{
  "address": "0xa66E5695380958308Cf8b02C5f225C2373e11A31",
  "abi": [
    {
      "inputs": [],
      "stateMutability": "nonpayable",
      "type": "constructor"
    },
    {
      "inputs": [
        {
          "internalType": "address",
          "name": "target",
          "type": "address"
        }
      ],
      "name": "AddressEmptyCode",
      "type": "error"
    },
    {
      "inputs": [
        {
          "internalType": "address",
          "name": "implementation",
          "type": "address"
        }
      ],
      "name": "ERC1967InvalidImplementation",
      "type": "error"
    },
    {
      "inputs": [],
      "name": "ERC1967NonPayable",
      "type": "error"
    },
    {
      "inputs": [],
      "name": "ERC721EnumerableForbiddenBatchMint",
      "type": "error"
    },
    {
      "inputs": [
        {
          "internalType": "address",
          "name": "sender",
          "type": "address"
        },
        {
          "internalType": "uint256",
          "name": "tokenId",
          "type": "uint256"
        },
        {
          "internalType": "address",
          "name": "owner",
          "type": "address"
        }
      ],
      "name": "ERC721IncorrectOwner",
      "type": "error"
    },
    {
      "inputs": [
        {
          "internalType": "address",
          "name": "operator",
          "type": "address"
        },
        {
          "internalType": "uint256",
          "name": "tokenId",
          "type": "uint256"
        }
      ],
      "name": "ERC721InsufficientApproval",
      "type": "error"
    },
    {
      "inputs": [
        {
          "internalType": "address",
          "name": "approver",
          "type": "address"
        }
      ],
      "name": "ERC721InvalidApprover",
      "type": "error"
    },
    {
      "inputs": [
        {
          "internalType": "address",
          "name": "operator",
          "type": "address"
        }
      ],
      "name": "ERC721InvalidOperator",
      "type": "error"
    },
    {
      "inputs": [
        {
          "internalType": "address",
          "name": "owner",
          "type": "address"
        }
      ],
      "name": "ERC721InvalidOwner",
      "type": "error"
    },
    {
      "inputs": [
        {
          "internalType": "address",
          "name": "receiver",
          "type": "address"
        }
      ],
      "name": "ERC721InvalidReceiver",
      "type": "error"
    },
    {
      "inputs": [
        {
          "internalType": "address",
          "name": "sender",
          "type": "address"
        }
      ],
      "name": "ERC721InvalidSender",
      "type": "error"
    },
    {
      "inputs": [
        {
          "internalType": "uint256",
          "name": "tokenId",
          "type": "uint256"
        }
      ],
      "name": "ERC721NonexistentToken",
      "type": "error"
    },
    {
      "inputs": [
        {
          "internalType": "address",
          "name": "owner",
          "type": "address"
        },
        {
          "internalType": "uint256",
          "name": "index",
          "type": "uint256"
        }
      ],
      "name": "ERC721OutOfBoundsIndex",
      "type": "error"
    },
    {
      "inputs": [],
      "name": "FailedCall",
      "type": "error"
    },
    {
      "inputs": [],
      "name": "InvalidInitialization",
      "type": "error"
    },
    {
      "inputs": [],
      "name": "NotInitializing",
      "type": "error"
    },
    {
      "inputs": [],
      "name": "UUPSUnauthorizedCallContext",
      "type": "error"
    },
    {
      "inputs": [
        {
          "internalType": "bytes32",
          "name": "slot",
          "type": "bytes32"
        }
      ],
      "name": "UUPSUnsupportedProxiableUUID",
      "type": "error"
    },
    {
      "anonymous": false,
      "inputs": [
        {
          "indexed": true,
          "internalType": "address",
          "name": "owner",
          "type": "address"
        },
        {
          "indexed": true,
          "internalType": "address",
          "name": "approved",
          "type": "address"
        },
        {
          "indexed": true,
          "internalType": "uint256",
          "name": "tokenId",
          "type": "uint256"
        }
      ],
      "name": "Approval",
      "type": "event"
    },
    {
      "anonymous": false,
      "inputs": [
        {
          "indexed": true,
          "internalType": "address",
          "name": "owner",
          "type": "address"
        },
        {
          "indexed": true,
          "internalType": "address",
          "name": "operator",
          "type": "address"
        },
        {
          "indexed": false,
          "internalType": "bool",
          "name": "approved",
          "type": "bool"
        }
      ],
      "name": "ApprovalForAll",
      "type": "event"
    },
    {
      "anonymous": false,
      "inputs": [
        {
          "indexed": false,
          "internalType": "uint64",
          "name": "version",
          "type": "uint64"
        }
      ],
      "name": "Initialized",
      "type": "event"
    },
    {
      "anonymous": false,
      "inputs": [
        {
          "indexed": true,
          "internalType": "address",
          "name": "from",
          "type": "address"
        },
        {
          "indexed": true,
          "internalType": "address",
          "name": "to",
          "type": "address"
        },
        {
          "indexed": true,
          "internalType": "uint256",
          "name": "tokenId",
          "type": "uint256"
        }
      ],
      "name": "Transfer",
      "type": "event"
    },
    {
      "anonymous": false,
      "inputs": [
        {
          "indexed": true,
          "internalType": "address",
          "name": "implementation",
          "type": "address"
        }
      ],
      "name": "Upgraded",
      "type": "event"
    },
    {
      "inputs": [],
      "name": "UPGRADE_INTERFACE_VERSION",
      "outputs": [
        {
          "internalType": "string",
          "name": "",
          "type": "string"
        }
      ],
      "stateMutability": "view",
      "type": "function"
    },
    {
      "inputs": [
        {
          "internalType": "address",
          "name": "to",
          "type": "address"
        },
        {
          "internalType": "uint256",
          "name": "tokenId",
          "type": "uint256"
        }
      ],
      "name": "approve",
      "outputs": [],
      "stateMutability": "nonpayable",
      "type": "function"
    },
    {
      "inputs": [
        {
          "internalType": "address",
          "name": "account",
          "type": "address"
        }
      ],
      "name": "availableReward",
      "outputs": [
        {
          "internalType": "uint256",
          "name": "",
          "type": "uint256"
        }
      ],
      "stateMutability": "view",
      "type": "function"
    },
    {
      "inputs": [
        {
          "internalType": "address",
          "name": "owner",
          "type": "address"
        }
      ],
      "name": "balanceOf",
      "outputs": [
        {
          "internalType": "uint256",
          "name": "",
          "type": "uint256"
        }
      ],
      "stateMutability": "view",
      "type": "function"
    },
    {
      "inputs": [
        {
          "internalType": "address",
          "name": "account",
          "type": "address"
        },
        {
          "internalType": "uint256",
          "name": "value",
          "type": "uint256"
        }
      ],
      "name": "canDeposit",
      "outputs": [
        {
          "internalType": "bool",
          "name": "",
          "type": "bool"
        }
      ],
      "stateMutability": "nonpayable",
      "type": "function"
    },
    {
      "inputs": [
        {
          "internalType": "address",
          "name": "account",
          "type": "address"
        }
      ],
      "name": "claim",
      "outputs": [],
      "stateMutability": "nonpayable",
      "type": "function"
    },
    {
      "inputs": [
        {
          "internalType": "uint256",
          "name": "",
          "type": "uint256"
        }
      ],
      "name": "dailyAmount",
      "outputs": [
        {
          "internalType": "uint256",
          "name": "",
          "type": "uint256"
        }
      ],
      "stateMutability": "view",
      "type": "function"
    },
    {
      "inputs": [
        {
          "internalType": "address",
          "name": "",
          "type": "address"
        }
      ],
      "name": "depositWhitelist",
      "outputs": [
        {
          "internalType": "bool",
          "name": "",
          "type": "bool"
        }
      ],
      "stateMutability": "view",
      "type": "function"
    },
    {
      "inputs": [
        {
          "internalType": "address",
          "name": "account",
          "type": "address"
        }
      ],
      "name": "fistTokenId",
      "outputs": [
        {
          "internalType": "uint256",
          "name": "",
          "type": "uint256"
        }
      ],
      "stateMutability": "view",
      "type": "function"
    },
    {
      "inputs": [
        {
          "internalType": "uint256",
          "name": "tokenId",
          "type": "uint256"
        }
      ],
      "name": "getApproved",
      "outputs": [
        {
          "internalType": "address",
          "name": "",
          "type": "address"
        }
      ],
      "stateMutability": "view",
      "type": "function"
    },
    {
      "inputs": [
        {
          "internalType": "contract IManager",
          "name": "_manager",
          "type": "address"
        },
        {
          "internalType": "address",
          "name": "_reserve",
          "type": "address"
        }
      ],
      "name": "initialize",
      "outputs": [],
      "stateMutability": "nonpayable",
      "type": "function"
    },
    {
      "inputs": [
        {
          "internalType": "address",
          "name": "owner",
          "type": "address"
        },
        {
          "internalType": "address",
          "name": "operator",
          "type": "address"
        }
      ],
      "name": "isApprovedForAll",
      "outputs": [
        {
          "internalType": "bool",
          "name": "",
          "type": "bool"
        }
      ],
      "stateMutability": "view",
      "type": "function"
    },
    {
      "inputs": [],
      "name": "manager",
      "outputs": [
        {
          "internalType": "contract IManager",
          "name": "",
          "type": "address"
        }
      ],
      "stateMutability": "view",
      "type": "function"
    },
    {
      "inputs": [],
      "name": "maxDailyAmount",
      "outputs": [
        {
          "internalType": "uint256",
          "name": "",
          "type": "uint256"
        }
      ],
      "stateMutability": "view",
      "type": "function"
    },
    {
      "inputs": [],
      "name": "maxDepositId",
      "outputs": [
        {
          "internalType": "uint256",
          "name": "",
          "type": "uint256"
        }
      ],
      "stateMutability": "view",
      "type": "function"
    },
    {
      "inputs": [],
      "name": "maxTokenId",
      "outputs": [
        {
          "internalType": "uint256",
          "name": "",
          "type": "uint256"
        }
      ],
      "stateMutability": "view",
      "type": "function"
    },
    {
      "inputs": [],
      "name": "name",
      "outputs": [
        {
          "internalType": "string",
          "name": "",
          "type": "string"
        }
      ],
      "stateMutability": "view",
      "type": "function"
    },
    {
      "inputs": [],
      "name": "nftPrice",
      "outputs": [
        {
          "internalType": "uint256",
          "name": "",
          "type": "uint256"
        }
      ],
      "stateMutability": "view",
      "type": "function"
    },
    {
      "inputs": [],
      "name": "onlyAA",
      "outputs": [
        {
          "internalType": "bool",
          "name": "",
          "type": "bool"
        }
      ],
      "stateMutability": "view",
      "type": "function"
    },
    {
      "inputs": [
        {
          "internalType": "uint256",
          "name": "tokenId",
          "type": "uint256"
        }
      ],
      "name": "ownerOf",
      "outputs": [
        {
          "internalType": "address",
          "name": "",
          "type": "address"
        }
      ],
      "stateMutability": "view",
      "type": "function"
    },
    {
      "inputs": [
        {
          "internalType": "address",
          "name": "",
          "type": "address"
        }
      ],
      "name": "payees",
      "outputs": [
        {
          "internalType": "uint256",
          "name": "released",
          "type": "uint256"
        },
        {
          "internalType": "uint256",
          "name": "available",
          "type": "uint256"
        },
        {
          "internalType": "uint256",
          "name": "debt",
          "type": "uint256"
        }
      ],
      "stateMutability": "view",
      "type": "function"
    },
    {
      "inputs": [
        {
          "internalType": "address",
          "name": "account",
          "type": "address"
        }
      ],
      "name": "pendingProfit",
      "outputs": [
        {
          "internalType": "uint256",
          "name": "pending",
          "type": "uint256"
        }
      ],
      "stateMutability": "view",
      "type": "function"
    },
    {
      "inputs": [],
      "name": "perDebt",
      "outputs": [
        {
          "internalType": "uint256",
          "name": "",
          "type": "uint256"
        }
      ],
      "stateMutability": "view",
      "type": "function"
    },
    {
      "inputs": [],
      "name": "proxiableUUID",
      "outputs": [
        {
          "internalType": "bytes32",
          "name": "",
          "type": "bytes32"
        }
      ],
      "stateMutability": "view",
      "type": "function"
    },
    {
      "inputs": [],
      "name": "reserve",
      "outputs": [
        {
          "internalType": "address",
          "name": "",
          "type": "address"
        }
      ],
      "stateMutability": "view",
      "type": "function"
    },
    {
      "inputs": [
        {
          "internalType": "address",
          "name": "to",
          "type": "address"
        }
      ],
      "name": "safeMint",
      "outputs": [
        {
          "internalType": "uint256",
          "name": "",
          "type": "uint256"
        }
      ],
      "stateMutability": "payable",
      "type": "function"
    },
    {
      "inputs": [
        {
          "internalType": "address",
          "name": "from",
          "type": "address"
        },
        {
          "internalType": "address",
          "name": "to",
          "type": "address"
        },
        {
          "internalType": "uint256",
          "name": "tokenId",
          "type": "uint256"
        }
      ],
      "name": "safeTransferFrom",
      "outputs": [],
      "stateMutability": "nonpayable",
      "type": "function"
    },
    {
      "inputs": [
        {
          "internalType": "address",
          "name": "from",
          "type": "address"
        },
        {
          "internalType": "address",
          "name": "to",
          "type": "address"
        },
        {
          "internalType": "uint256",
          "name": "tokenId",
          "type": "uint256"
        },
        {
          "internalType": "bytes",
          "name": "data",
          "type": "bytes"
        }
      ],
      "name": "safeTransferFrom",
      "outputs": [],
      "stateMutability": "nonpayable",
      "type": "function"
    },
    {
      "inputs": [],
      "name": "sendReward",
      "outputs": [],
      "stateMutability": "payable",
      "type": "function"
    },
    {
      "inputs": [
        {
          "internalType": "address",
          "name": "operator",
          "type": "address"
        },
        {
          "internalType": "bool",
          "name": "approved",
          "type": "bool"
        }
      ],
      "name": "setApprovalForAll",
      "outputs": [],
      "stateMutability": "nonpayable",
      "type": "function"
    },
    {
      "inputs": [
        {
          "internalType": "address[]",
          "name": "accounts",
          "type": "address[]"
        },
        {
          "internalType": "bool",
          "name": "status",
          "type": "bool"
        }
      ],
      "name": "setDepositWhitelist",
      "outputs": [],
      "stateMutability": "nonpayable",
      "type": "function"
    },
    {
      "inputs": [
        {
          "internalType": "uint256",
          "name": "_maxDailyAmount",
          "type": "uint256"
        }
      ],
      "name": "setMaxDailyAmount",
      "outputs": [],
      "stateMutability": "nonpayable",
      "type": "function"
    },
    {
      "inputs": [
        {
          "internalType": "uint256",
          "name": "_maxDepositId",
          "type": "uint256"
        }
      ],
      "name": "setMaxDepositId",
      "outputs": [],
      "stateMutability": "nonpayable",
      "type": "function"
    },
    {
      "inputs": [
        {
          "internalType": "uint256",
          "name": "_maxTokenId",
          "type": "uint256"
        }
      ],
      "name": "setMaxTokenId",
      "outputs": [],
      "stateMutability": "nonpayable",
      "type": "function"
    },
    {
      "inputs": [
        {
          "internalType": "uint256",
          "name": "_nftPrice",
          "type": "uint256"
        }
      ],
      "name": "setNftPrice",
      "outputs": [],
      "stateMutability": "nonpayable",
      "type": "function"
    },
    {
      "inputs": [
        {
          "internalType": "bool",
          "name": "_onlyAA",
          "type": "bool"
        }
      ],
      "name": "setOnlyAA",
      "outputs": [],
      "stateMutability": "nonpayable",
      "type": "function"
    },
    {
      "inputs": [
        {
          "internalType": "bytes4",
          "name": "interfaceId",
          "type": "bytes4"
        }
      ],
      "name": "supportsInterface",
      "outputs": [
        {
          "internalType": "bool",
          "name": "",
          "type": "bool"
        }
      ],
      "stateMutability": "view",
      "type": "function"
    },
    {
      "inputs": [],
      "name": "symbol",
      "outputs": [
        {
          "internalType": "string",
          "name": "",
          "type": "string"
        }
      ],
      "stateMutability": "view",
      "type": "function"
    },
    {
      "inputs": [
        {
          "internalType": "uint256",
          "name": "index",
          "type": "uint256"
        }
      ],
      "name": "tokenByIndex",
      "outputs": [
        {
          "internalType": "uint256",
          "name": "",
          "type": "uint256"
        }
      ],
      "stateMutability": "view",
      "type": "function"
    },
    {
      "inputs": [
        {
          "internalType": "address",
          "name": "owner",
          "type": "address"
        },
        {
          "internalType": "uint256",
          "name": "index",
          "type": "uint256"
        }
      ],
      "name": "tokenOfOwnerByIndex",
      "outputs": [
        {
          "internalType": "uint256",
          "name": "",
          "type": "uint256"
        }
      ],
      "stateMutability": "view",
      "type": "function"
    },
    {
      "inputs": [
        {
          "internalType": "uint256",
          "name": "tokenId",
          "type": "uint256"
        }
      ],
      "name": "tokenURI",
      "outputs": [
        {
          "internalType": "string",
          "name": "",
          "type": "string"
        }
      ],
      "stateMutability": "view",
      "type": "function"
    },
    {
      "inputs": [],
      "name": "totalSupply",
      "outputs": [
        {
          "internalType": "uint256",
          "name": "",
          "type": "uint256"
        }
      ],
      "stateMutability": "view",
      "type": "function"
    },
    {
      "inputs": [
        {
          "internalType": "address",
          "name": "from",
          "type": "address"
        },
        {
          "internalType": "address",
          "name": "to",
          "type": "address"
        },
        {
          "internalType": "uint256",
          "name": "tokenId",
          "type": "uint256"
        }
      ],
      "name": "transferFrom",
      "outputs": [],
      "stateMutability": "nonpayable",
      "type": "function"
    },
    {
      "inputs": [
        {
          "internalType": "address",
          "name": "newImplementation",
          "type": "address"
        },
        {
          "internalType": "bytes",
          "name": "data",
          "type": "bytes"
        }
      ],
      "name": "upgradeToAndCall",
      "outputs": [],
      "stateMutability": "payable",
      "type": "function"
    },
    {
      "stateMutability": "payable",
      "type": "receive"
    }
  ],
  "transactionHash": "0xe27185b25e2d19d819d3bedb7959af8f21881a4d3ff550fbaed27d93ffcaf224",
  "args": [],
  "numDeployments": 1,
  "solcInputHash": "a7998707e8ac9a1c5e9d6a3a5242f0fa",
  "bytecode": "0x60a0604052306080523480156200001557600080fd5b506200002062000026565b620000da565b7ff0c57e16840df040f15088dc2f81fe391c3923bec73e23a9662efc9c229c6a00805468010000000000000000900460ff1615620000775760405163f92ee8a960e01b815260040160405180910390fd5b80546001600160401b0390811614620000d75780546001600160401b0319166001600160401b0390811782556040519081527fc7f505b2f371ae2175ee4913f4499e1f2633a7b5936321eed1cdaeb6115181d29060200160405180910390a15b50565b608051612c8862000104600039600081816116c9015281816116f201526118910152612c886000f3fe60806040526004361061026b5760003560e01c80634f1ef28611610144578063a22cb465116100b6578063cd3293de1161007a578063cd3293de1461075e578063d1bc1d731461077e578063e0ad8b8e146107ae578063e1dddf5c146107ce578063e57c2148146107ee578063e985e9c51461080457600080fd5b8063a22cb465146106ad578063a5089836146106cd578063ad3cb1cc146106ed578063b88d4fde1461071e578063c87b56dd1461073e57600080fd5b806370a082311161010857806370a08231146105f55780637d9a7a4c1461061557806388e94488146106355780638b6ce0051461066257806391ba317a1461068257806395d89b411461069857600080fd5b80634f1ef286146105775780634f6ccce71461058a57806352d1902d146105aa5780636352211e146105bf5780637009b72d146105df57600080fd5b80631ce3a109116101dd5780632f745c59116101a15780632f745c591461048d578063310441fa146104ad57806340d097c31461050457806342842e0e14610517578063481c6a7514610537578063485cc9551461055757600080fd5b80631ce3a109146103f75780631e83409a1461040d578063202fcbbd1461042d57806323b872dd1461044d57806323c695b41461046d57600080fd5b8063095ea7b31161022f578063095ea7b31461035d5780630afc79cf1461037d5780630d39fc811461039d5780631149a81a146103b357806312e1ecbb146103bb57806318160ddd146103d557600080fd5b806301ffc9a714610280578063066fd899146102b557806306fdde03146102e3578063081812fc14610305578063094cba7a1461033d57600080fd5b3661027b5761027933610824565b005b600080fd5b34801561028c57600080fd5b506102a061029b366004612529565b610968565b60405190151581526020015b60405180910390f35b3480156102c157600080fd5b506102d56102d036600461255b565b610973565b6040519081526020016102ac565b3480156102ef57600080fd5b506102f86109a4565b6040516102ac91906125c8565b34801561031157600080fd5b506103256103203660046125db565b610a48565b6040516001600160a01b0390911681526020016102ac565b34801561034957600080fd5b506102d561035836600461255b565b610a5d565b34801561036957600080fd5b506102796103783660046125f4565b610a89565b34801561038957600080fd5b50610279610398366004612677565b610a98565b3480156103a957600080fd5b506102d560055481565b610279610b58565b3480156103c757600080fd5b50600a546102a09060ff1681565b3480156103e157600080fd5b50600080516020612c33833981519152546102d5565b34801561040357600080fd5b506102d560025481565b34801561041957600080fd5b5061027961042836600461255b565b610ba9565b34801561043957600080fd5b506102796104483660046125db565b610bed565b34801561045957600080fd5b5061027961046836600461273b565b610c53565b34801561047957600080fd5b506102d561048836600461255b565b610cde565b34801561049957600080fd5b506102d56104a83660046125f4565b610d45565b3480156104b957600080fd5b506104e96104c836600461255b565b60086020526000908152604090208054600182015460029092015490919083565b604080519384526020840192909252908201526060016102ac565b6102d561051236600461255b565b610824565b34801561052357600080fd5b5061027961053236600461273b565b610db9565b34801561054357600080fd5b50600654610325906001600160a01b031681565b34801561056357600080fd5b5061027961057236600461277c565b610dd4565b610279610585366004612825565b610f73565b34801561059657600080fd5b506102d56105a53660046125db565b610f8e565b3480156105b657600080fd5b506102d5611006565b3480156105cb57600080fd5b506103256105da3660046125db565b611023565b3480156105eb57600080fd5b506102d560015481565b34801561060157600080fd5b506102d561061036600461255b565b61102e565b34801561062157600080fd5b506102796106303660046125db565b61108a565b34801561064157600080fd5b506102d56106503660046125db565b60036020526000908152604090205481565b34801561066e57600080fd5b5061027961067d3660046125db565b6110f0565b34801561068e57600080fd5b506102d560005481565b3480156106a457600080fd5b506102f8611156565b3480156106b957600080fd5b506102796106c8366004612875565b611195565b3480156106d957600080fd5b506102796106e83660046128aa565b6111a0565b3480156106f957600080fd5b506102f8604051806040016040528060058152602001640352e302e360dc1b81525081565b34801561072a57600080fd5b506102796107393660046128c5565b611212565b34801561074a57600080fd5b506102f86107593660046125db565b61122a565b34801561076a57600080fd5b50600754610325906001600160a01b031681565b34801561078a57600080fd5b506102a061079936600461255b565b60046020526000908152604090205460ff1681565b3480156107ba57600080fd5b506102796107c93660046125db565b61129e565b3480156107da57600080fd5b506102a06107e93660046125f4565b611304565b3480156107fa57600080fd5b506102d560095481565b34801561081057600080fd5b506102a061081f36600461277c565b6113e3565b600a5460009060ff161561087457813b63ffffffff166108745760405162461bcd60e51b81526020600482015260066024820152656f6e6c79414160d01b60448201526064015b60405180910390fd5b60055434146108ae5760405162461bcd60e51b815260206004820152600660248201526521707269636560d01b604482015260640161086b565b6108b78261102e565b156108ea5760405162461bcd60e51b81526020600482015260036024820152626f6e6560e81b604482015260640161086b565b6000610902600080516020612c338339815191525490565b905060005481111561093f5760405162461bcd60e51b815260040161086b90602080825260049082015263042dac2f60e31b604082015260600190565b6109498382611430565b600754600554610962916001600160a01b03169061144a565b92915050565b6000610962826114fd565b600061097e82610cde565b6001600160a01b0383166000908152600860205260409020600101546109629190612947565b600080516020612bf383398151915280546060919081906109c49061295a565b80601f01602080910402602001604051908101604052809291908181526020018280546109f09061295a565b8015610a3d5780601f10610a1257610100808354040283529160200191610a3d565b820191906000526020600020905b815481529060010190602001808311610a2057829003601f168201915b505050505091505090565b6000610a5382611522565b506109628261155a565b6000610a688261102e565b600003610a795750620f423f919050565b610962826000610d45565b919050565b610a94828233611594565b5050565b6006546040516001620f6cad60e31b031981523360048201526001600160a01b039091169063ff849a989060240160006040518083038186803b158015610ade57600080fd5b505afa158015610af2573d6000803e3d6000fd5b5050505060005b8251811015610b53578160046000858481518110610b1957610b19612994565b6020908102919091018101516001600160a01b03168252810191909152604001600020805460ff1916911515919091179055600101610af9565b505050565b6000610b70600080516020612c338339815191525490565b1115610ba757600080516020612c3383398151915254610b9090346129aa565b60096000828254610ba19190612947565b90915550505b565b610bb2816115a1565b6001600160a01b03811660009081526008602052604090206001810154610bda90839061144a565b6001810180548254019091556000905550565b6006546040516001620f6cad60e31b031981523360048201526001600160a01b039091169063ff849a989060240160006040518083038186803b158015610c3357600080fd5b505afa158015610c47573d6000803e3d6000fd5b50505060009190915550565b6001600160a01b038216610c7d57604051633250574960e11b81526000600482015260240161086b565b6000610c8a838333611600565b9050836001600160a01b0316816001600160a01b031614610cd8576040516364283d7b60e01b81526001600160a01b038086166004830152602482018490528216604482015260640161086b565b50505050565b6001600160a01b03811660009081526008602090815260408083208151606081018352815481526001820154938101939093526002015490820152610d228361102e565b8160400151600954610d3491906129cc565b610d3e91906129df565b9392505050565b6000600080516020612bd3833981519152610d5f8461102e565b8310610d905760405163295f44f760e21b81526001600160a01b03851660048201526024810184905260440161086b565b6001600160a01b0384166000908152602091825260408082208583529092522054905092915050565b610b5383838360405180602001604052806000815250611212565b6000610dde61167b565b805490915060ff600160401b820416159067ffffffffffffffff16600081158015610e065750825b905060008267ffffffffffffffff166001148015610e235750303b155b905081158015610e31575080155b15610e4f5760405163f92ee8a960e01b815260040160405180910390fd5b845467ffffffffffffffff191660011785558315610e7957845460ff60401b1916600160401b1785555b610ec16040518060400160405280600a8152602001691310509550954813919560b21b815250604051806040016040528060048152602001631313919560e21b8152506116a4565b610ec96116b6565b6064600055670853a0d2313c000060055568056bc75e2d63100000600255600680546001600160a01b03808a166001600160a01b0319928316179092556007805492891692909116919091179055600a805460ff191660011790558315610f6a57845460ff60401b19168555604051600181527fc7f505b2f371ae2175ee4913f4499e1f2633a7b5936321eed1cdaeb6115181d29060200160405180910390a15b50505050505050565b610f7b6116be565b610f8482611763565b610a9482826117c9565b6000600080516020612bd3833981519152610fb5600080516020612c338339815191525490565b8310610fde5760405163295f44f760e21b8152600060048201526024810184905260440161086b565b806002018381548110610ff357610ff3612994565b9060005260206000200154915050919050565b6000611010611886565b50600080516020612c1383398151915290565b600061096282611522565b6000600080516020612bf38339815191526001600160a01b038316611069576040516322718ad960e21b81526000600482015260240161086b565b6001600160a01b039092166000908152600390920160205250604090205490565b6006546040516001620f6cad60e31b031981523360048201526001600160a01b039091169063ff849a989060240160006040518083038186803b1580156110d057600080fd5b505afa1580156110e4573d6000803e3d6000fd5b50505060059190915550565b6006546040516001620f6cad60e31b031981523360048201526001600160a01b039091169063ff849a989060240160006040518083038186803b15801561113657600080fd5b505afa15801561114a573d6000803e3d6000fd5b50505060019190915550565b7f80bb2b638cc20bc4d0a60d66940f3ab4a00c1d7b313497ca82fb0b4ab00793018054606091600080516020612bf3833981519152916109c49061295a565b610a943383836118cf565b6006546040516001620f6cad60e31b031981523360048201526001600160a01b039091169063ff849a989060240160006040518083038186803b1580156111e657600080fd5b505afa1580156111fa573d6000803e3d6000fd5b5050600a805460ff1916931515939093179092555050565b61121d848484610c53565b610cd83385858585611980565b606061123582611522565b50600061124d60408051602081019091526000815290565b9050600081511161126d5760405180602001604052806000815250610d3e565b8061127784611aaa565b6040516020016112889291906129f6565b6040516020818303038152906040529392505050565b6006546040516001620f6cad60e31b031981523360048201526001600160a01b039091169063ff849a989060240160006040518083038186803b1580156112e457600080fd5b505afa1580156112f8573d6000803e3d6000fd5b50505060029190915550565b60008061131462015180426129aa565b60025460008281526003602052604090205491925090611335908590612947565b10611344576000915050610962565b60008181526003602052604081208054859290611362908490612947565b90915550506001600160a01b03841660009081526004602052604090205460ff1615611392576001915050610962565b600061139d8561102e565b905060005b818110156113d75760006113b68783610d45565b905060015481116113ce576001945050505050610962565b506001016113a2565b50600095945050505050565b6001600160a01b0391821660009081527f80bb2b638cc20bc4d0a60d66940f3ab4a00c1d7b313497ca82fb0b4ab00793056020908152604080832093909416825291909152205460ff1690565b610a94828260405180602001604052806000815250611b3d565b604080516000808252602082019092526001600160a01b0384169083906040516114749190612a25565b60006040518083038185875af1925050503d80600081146114b1576040519150601f19603f3d011682016040523d82523d6000602084013e6114b6565b606091505b5050905080610b535760405162461bcd60e51b815260206004820152601360248201527211551217d514905394d1915497d19052531151606a1b604482015260640161086b565b60006001600160e01b0319821663780e9d6360e01b1480610962575061096282611b55565b60008061152e83611ba5565b90506001600160a01b03811661096257604051637e27328960e01b81526004810184905260240161086b565b60009081527f80bb2b638cc20bc4d0a60d66940f3ab4a00c1d7b313497ca82fb0b4ab007930460205260409020546001600160a01b031690565b610b538383836001611bdf565b6001600160a01b0381166115b25750565b60006115bd82610cde565b6001600160a01b0383166000908152600860205260408120600954600282015560018101805493945090928492906115f6908490612947565b9091555050505050565b60008061160c84611ba5565b6001600160a01b03161461164e5760405162461bcd60e51b815260206004820152600960248201526810ba3930b739b332b960b91b604482015260640161086b565b61165f61165a84611ba5565b6115a1565b611668846115a1565b611673848484611cf5565b949350505050565b6000807ff0c57e16840df040f15088dc2f81fe391c3923bec73e23a9662efc9c229c6a00610962565b6116ac611dee565b610a948282611e13565b610ba7611dee565b306001600160a01b037f000000000000000000000000000000000000000000000000000000000000000016148061174557507f00000000000000000000000000000000000000000000000000000000000000006001600160a01b0316611739600080516020612c13833981519152546001600160a01b031690565b6001600160a01b031614155b15610ba75760405163703e46dd60e11b815260040160405180910390fd5b60065460405163064f638960e31b81526001600160a01b0383811660048301523360248301529091169063327b1c489060440160006040518083038186803b1580156117ae57600080fd5b505afa1580156117c2573d6000803e3d6000fd5b5050505050565b816001600160a01b03166352d1902d6040518163ffffffff1660e01b8152600401602060405180830381865afa925050508015611823575060408051601f3d908101601f1916820190925261182091810190612a41565b60015b61184b57604051634c9c8ce360e01b81526001600160a01b038316600482015260240161086b565b600080516020612c13833981519152811461187c57604051632a87526960e21b81526004810182905260240161086b565b610b538383611e44565b306001600160a01b037f00000000000000000000000000000000000000000000000000000000000000001614610ba75760405163703e46dd60e11b815260040160405180910390fd5b600080516020612bf38339815191526001600160a01b03831661191057604051630b61174360e31b81526001600160a01b038416600482015260240161086b565b6001600160a01b038481166000818152600584016020908152604080832094881680845294825291829020805460ff191687151590811790915591519182527f17307eab39ab6107e8899845ad3d59bd9653f200f220920489ca2b5937696c31910160405180910390a350505050565b6001600160a01b0383163b156117c257604051630a85bd0160e11b81526001600160a01b0384169063150b7a02906119c2908890889087908790600401612a5a565b6020604051808303816000875af19250505080156119fd575060408051601f3d908101601f191682019092526119fa91810190612a97565b60015b611a66573d808015611a2b576040519150601f19603f3d011682016040523d82523d6000602084013e611a30565b606091505b508051600003611a5e57604051633250574960e11b81526001600160a01b038516600482015260240161086b565b805160208201fd5b6001600160e01b03198116630a85bd0160e11b14611aa257604051633250574960e11b81526001600160a01b038516600482015260240161086b565b505050505050565b60606000611ab783611e9a565b600101905060008167ffffffffffffffff811115611ad757611ad7612620565b6040519080825280601f01601f191660200182016040528015611b01576020820181803683370190505b5090508181016020015b600019016f181899199a1a9b1b9c1cb0b131b232b360811b600a86061a8153600a8504945084611b0b57509392505050565b611b478383611f72565b610b53336000858585611980565b60006001600160e01b031982166380ac58cd60e01b1480611b8657506001600160e01b03198216635b5e139f60e01b145b8061096257506301ffc9a760e01b6001600160e01b0319831614610962565b60009081527f80bb2b638cc20bc4d0a60d66940f3ab4a00c1d7b313497ca82fb0b4ab007930260205260409020546001600160a01b031690565b600080516020612bf38339815191528180611c0257506001600160a01b03831615155b15611cc4576000611c1285611522565b90506001600160a01b03841615801590611c3e5750836001600160a01b0316816001600160a01b031614155b8015611c515750611c4f81856113e3565b155b15611c7a5760405163a9fbf51f60e01b81526001600160a01b038516600482015260240161086b565b8215611cc25784866001600160a01b0316826001600160a01b03167f8c5be1e5ebec7d5bd14f71427d1e84f3dd0314c0f7b2291e5b200ac8c7c3b92560405160405180910390a45b505b600093845260040160205250506040902080546001600160a01b0319166001600160a01b0392909216919091179055565b600080611d03858585611fd7565b90506001600160a01b038116611d8c57611d8784600080516020612c33833981519152805460008381527f645e039705490088daad89bae25049a34f4a9072d398537b1ab2425f24cbed0360205260408120829055600182018355919091527fa42f15e5d656f8155fd7419d740a6073999f19cd6e061449ce4a257150545bf20155565b611daf565b846001600160a01b0316816001600160a01b031614611daf57611daf81856120e1565b6001600160a01b038516611dcb57611dc68461217d565b611673565b846001600160a01b0316816001600160a01b031614611673576116738585612254565b611df66122af565b610ba757604051631afcd79f60e31b815260040160405180910390fd5b611e1b611dee565b600080516020612bf383398151915280611e358482612afc565b5060018101610cd88382612afc565b611e4d826122c9565b6040516001600160a01b038316907fbc7cd75a20ee27fd9adebab32041f755214dbc6bffa90cc0225b39da2e5c2d3b90600090a2805115611e9257610b53828261232e565b610a946123a4565b60008072184f03e93ff9f4daa797ed6e38ed64bf6a1f0160401b8310611ed95772184f03e93ff9f4daa797ed6e38ed64bf6a1f0160401b830492506040015b6d04ee2d6d415b85acef81000000008310611f05576d04ee2d6d415b85acef8100000000830492506020015b662386f26fc100008310611f2357662386f26fc10000830492506010015b6305f5e1008310611f3b576305f5e100830492506008015b6127108310611f4f57612710830492506004015b60648310611f61576064830492506002015b600a83106109625760010192915050565b6001600160a01b038216611f9c57604051633250574960e11b81526000600482015260240161086b565b6000611faa83836000611600565b90506001600160a01b03811615610b53576040516339e3563760e11b81526000600482015260240161086b565b6000600080516020612bf383398151915281611ff285611ba5565b90506001600160a01b0384161561200e5761200e8185876123c3565b6001600160a01b0381161561204e5761202b600086600080611bdf565b6001600160a01b0381166000908152600383016020526040902080546000190190555b6001600160a01b0386161561207f576001600160a01b03861660009081526003830160205260409020805460010190555b600085815260028301602052604080822080546001600160a01b0319166001600160a01b038a811691821790925591518893918516917fddf252ad1be2c89b69c2b068fc378daa952ba7f163c4a11628f55a4df523b3ef91a495945050505050565b600080516020612bd383398151915260006120fb8461102e565b60008481526001840160209081526040808320546001600160a01b03891684529186905290912091925090818314612155576000838152602082815260408083205485845281842081905583526001870190915290208290555b6000948552600190930160209081526040808620869055928552929092528220919091555050565b600080516020612c3383398151915254600080516020612bd3833981519152906000906121ac906001906129cc565b60008481526003840160205260408120546002850180549394509092849081106121d8576121d8612994565b90600052602060002001549050808460020183815481106121fb576121fb612994565b60009182526020808320909101929092558281526003860190915260408082208490558682528120556002840180548061223757612237612bbc565b600190038181906000526020600020016000905590555050505050565b600080516020612bd3833981519152600060016122708561102e565b61227a91906129cc565b6001600160a01b0390941660009081526020838152604080832087845282528083208690559482526001909301909252502055565b60006122b961167b565b54600160401b900460ff16919050565b806001600160a01b03163b6000036122ff57604051634c9c8ce360e01b81526001600160a01b038216600482015260240161086b565b600080516020612c1383398151915280546001600160a01b0319166001600160a01b0392909216919091179055565b6060600080846001600160a01b03168460405161234b9190612a25565b600060405180830381855af49150503d8060008114612386576040519150601f19603f3d011682016040523d82523d6000602084013e61238b565b606091505b509150915061239b858383612427565b95945050505050565b3415610ba75760405163b398979f60e01b815260040160405180910390fd5b6123ce838383612483565b610b53576001600160a01b0383166123fc57604051637e27328960e01b81526004810182905260240161086b565b60405163177e802f60e01b81526001600160a01b03831660048201526024810182905260440161086b565b60608261243c57612437826124e8565b610d3e565b815115801561245357506001600160a01b0384163b155b1561247c57604051639996b31560e01b81526001600160a01b038516600482015260240161086b565b5080610d3e565b60006001600160a01b038316158015906116735750826001600160a01b0316846001600160a01b031614806124bd57506124bd84846113e3565b806116735750826001600160a01b03166124d68361155a565b6001600160a01b031614949350505050565b8051156124f757805160208201fd5b60405163d6bda27560e01b815260040160405180910390fd5b50565b6001600160e01b03198116811461251057600080fd5b60006020828403121561253b57600080fd5b8135610d3e81612513565b6001600160a01b038116811461251057600080fd5b60006020828403121561256d57600080fd5b8135610d3e81612546565b60005b8381101561259357818101518382015260200161257b565b50506000910152565b600081518084526125b4816020860160208601612578565b601f01601f19169290920160200192915050565b602081526000610d3e602083018461259c565b6000602082840312156125ed57600080fd5b5035919050565b6000806040838503121561260757600080fd5b823561261281612546565b946020939093013593505050565b634e487b7160e01b600052604160045260246000fd5b604051601f8201601f1916810167ffffffffffffffff8111828210171561265f5761265f612620565b604052919050565b80358015158114610a8457600080fd5b6000806040838503121561268a57600080fd5b823567ffffffffffffffff808211156126a257600080fd5b818501915085601f8301126126b657600080fd5b81356020828211156126ca576126ca612620565b8160051b92506126db818401612636565b82815292840181019281810190898511156126f557600080fd5b948201945b8486101561271f578535935061270f84612546565b83825294820194908201906126fa565b965061272e9050878201612667565b9450505050509250929050565b60008060006060848603121561275057600080fd5b833561275b81612546565b9250602084013561276b81612546565b929592945050506040919091013590565b6000806040838503121561278f57600080fd5b823561279a81612546565b915060208301356127aa81612546565b809150509250929050565b600082601f8301126127c657600080fd5b813567ffffffffffffffff8111156127e0576127e0612620565b6127f3601f8201601f1916602001612636565b81815284602083860101111561280857600080fd5b816020850160208301376000918101602001919091529392505050565b6000806040838503121561283857600080fd5b823561284381612546565b9150602083013567ffffffffffffffff81111561285f57600080fd5b61286b858286016127b5565b9150509250929050565b6000806040838503121561288857600080fd5b823561289381612546565b91506128a160208401612667565b90509250929050565b6000602082840312156128bc57600080fd5b610d3e82612667565b600080600080608085870312156128db57600080fd5b84356128e681612546565b935060208501356128f681612546565b925060408501359150606085013567ffffffffffffffff81111561291957600080fd5b612925878288016127b5565b91505092959194509250565b634e487b7160e01b600052601160045260246000fd5b8082018082111561096257610962612931565b600181811c9082168061296e57607f821691505b60208210810361298e57634e487b7160e01b600052602260045260246000fd5b50919050565b634e487b7160e01b600052603260045260246000fd5b6000826129c757634e487b7160e01b600052601260045260246000fd5b500490565b8181038181111561096257610962612931565b808202811582820484141761096257610962612931565b60008351612a08818460208801612578565b835190830190612a1c818360208801612578565b01949350505050565b60008251612a37818460208701612578565b9190910192915050565b600060208284031215612a5357600080fd5b5051919050565b6001600160a01b0385811682528416602082015260408101839052608060608201819052600090612a8d9083018461259c565b9695505050505050565b600060208284031215612aa957600080fd5b8151610d3e81612513565b601f821115610b53576000816000526020600020601f850160051c81016020861015612add5750805b601f850160051c820191505b81811015611aa257828155600101612ae9565b815167ffffffffffffffff811115612b1657612b16612620565b612b2a81612b24845461295a565b84612ab4565b602080601f831160018114612b5f5760008415612b475750858301515b600019600386901b1c1916600185901b178555611aa2565b600085815260208120601f198616915b82811015612b8e57888601518255948401946001909101908401612b6f565b5085821015612bac5787850151600019600388901b60f8161c191681555b5050505050600190811b01905550565b634e487b7160e01b600052603160045260246000fdfe645e039705490088daad89bae25049a34f4a9072d398537b1ab2425f24cbed0080bb2b638cc20bc4d0a60d66940f3ab4a00c1d7b313497ca82fb0b4ab0079300360894a13ba1a3210667c828492db98dca3e2076cc3735a920a3ca505d382bbc645e039705490088daad89bae25049a34f4a9072d398537b1ab2425f24cbed02a26469706673582212202846f4b4e8ca51c342f92d91fa9d8249e079277e594315ee6a343415a8651b0d64736f6c63430008160033",
  "devdoc": {
    "errors": {
      "AddressEmptyCode(address)": [
        {
          "details": "There's no code at `target` (it is not a contract)."
        }
      ],
      "ERC1967InvalidImplementation(address)": [
        {
          "details": "The `implementation` of the proxy is invalid."
        }
      ],
      "ERC1967NonPayable()": [
        {
          "details": "An upgrade function sees `msg.value > 0` that may be lost."
        }
      ],
      "ERC721EnumerableForbiddenBatchMint()": [
        {
          "details": "Batch mint is not allowed."
        }
      ],
      "ERC721IncorrectOwner(address,uint256,address)": [
        {
          "details": "Indicates an error related to the ownership over a particular token. Used in transfers.",
          "params": {
            "owner": "Address of the current owner of a token.",
            "sender": "Address whose tokens are being transferred.",
            "tokenId": "Identifier number of a token."
          }
        }
      ],
      "ERC721InsufficientApproval(address,uint256)": [
        {
          "details": "Indicates a failure with the `operator`s approval. Used in transfers.",
          "params": {
            "operator": "Address that may be allowed to operate on tokens without being their owner.",
            "tokenId": "Identifier number of a token."
          }
        }
      ],
      "ERC721InvalidApprover(address)": [
        {
          "details": "Indicates a failure with the `approver` of a token to be approved. Used in approvals.",
          "params": {
            "approver": "Address initiating an approval operation."
          }
        }
      ],
      "ERC721InvalidOperator(address)": [
        {
          "details": "Indicates a failure with the `operator` to be approved. Used in approvals.",
          "params": {
            "operator": "Address that may be allowed to operate on tokens without being their owner."
          }
        }
      ],
      "ERC721InvalidOwner(address)": [
        {
          "details": "Indicates that an address can't be an owner. For example, `address(0)` is a forbidden owner in ERC-20. Used in balance queries.",
          "params": {
            "owner": "Address of the current owner of a token."
          }
        }
      ],
      "ERC721InvalidReceiver(address)": [
        {
          "details": "Indicates a failure with the token `receiver`. Used in transfers.",
          "params": {
            "receiver": "Address to which tokens are being transferred."
          }
        }
      ],
      "ERC721InvalidSender(address)": [
        {
          "details": "Indicates a failure with the token `sender`. Used in transfers.",
          "params": {
            "sender": "Address whose tokens are being transferred."
          }
        }
      ],
      "ERC721NonexistentToken(uint256)": [
        {
          "details": "Indicates a `tokenId` whose `owner` is the zero address.",
          "params": {
            "tokenId": "Identifier number of a token."
          }
        }
      ],
      "ERC721OutOfBoundsIndex(address,uint256)": [
        {
          "details": "An `owner`'s token query was out of bounds for `index`. NOTE: The owner being `address(0)` indicates a global out of bounds index."
        }
      ],
      "FailedCall()": [
        {
          "details": "A call to an address target failed. The target may have reverted."
        }
      ],
      "InvalidInitialization()": [
        {
          "details": "The contract is already initialized."
        }
      ],
      "NotInitializing()": [
        {
          "details": "The contract is not initializing."
        }
      ],
      "UUPSUnauthorizedCallContext()": [
        {
          "details": "The call is from an unauthorized context."
        }
      ],
      "UUPSUnsupportedProxiableUUID(bytes32)": [
        {
          "details": "The storage `slot` is unsupported as a UUID."
        }
      ]
    },
    "events": {
      "Approval(address,address,uint256)": {
        "details": "Emitted when `owner` enables `approved` to manage the `tokenId` token."
      },
      "ApprovalForAll(address,address,bool)": {
        "details": "Emitted when `owner` enables or disables (`approved`) `operator` to manage all of its assets."
      },
      "Initialized(uint64)": {
        "details": "Triggered when the contract has been initialized or reinitialized."
      },
      "Transfer(address,address,uint256)": {
        "details": "Emitted when `tokenId` token is transferred from `from` to `to`."
      },
      "Upgraded(address)": {
        "details": "Emitted when the implementation is upgraded."
      }
    },
    "kind": "dev",
    "methods": {
      "approve(address,uint256)": {
        "details": "Gives permission to `to` to transfer `tokenId` token to another account. The approval is cleared when the token is transferred. Only a single account can be approved at a time, so approving the zero address clears previous approvals. Requirements: - The caller must own the token or be an approved operator. - `tokenId` must exist. Emits an {Approval} event."
      },
      "balanceOf(address)": {
        "details": "Returns the number of tokens in ``owner``'s account."
      },
      "constructor": {
        "custom:oz-upgrades-unsafe-allow": "constructor"
      },
      "getApproved(uint256)": {
        "details": "Returns the account approved for `tokenId` token. Requirements: - `tokenId` must exist."
      },
      "isApprovedForAll(address,address)": {
        "details": "Returns if the `operator` is allowed to manage all of the assets of `owner`. See {setApprovalForAll}"
      },
      "name()": {
        "details": "Returns the token collection name."
      },
      "ownerOf(uint256)": {
        "details": "Returns the owner of the `tokenId` token. Requirements: - `tokenId` must exist."
      },
      "proxiableUUID()": {
        "details": "Implementation of the ERC-1822 {proxiableUUID} function. This returns the storage slot used by the implementation. It is used to validate the implementation's compatibility when performing an upgrade. IMPORTANT: A proxy pointing at a proxiable contract should not be considered proxiable itself, because this risks bricking a proxy that upgrades to it, by delegating to itself until out of gas. Thus it is critical that this function revert if invoked through a proxy. This is guaranteed by the `notDelegated` modifier."
      },
      "safeTransferFrom(address,address,uint256)": {
        "details": "Safely transfers `tokenId` token from `from` to `to`, checking first that contract recipients are aware of the ERC-721 protocol to prevent tokens from being forever locked. Requirements: - `from` cannot be the zero address. - `to` cannot be the zero address. - `tokenId` token must exist and be owned by `from`. - If the caller is not `from`, it must have been allowed to move this token by either {approve} or   {setApprovalForAll}. - If `to` refers to a smart contract, it must implement {IERC721Receiver-onERC721Received}, which is called upon   a safe transfer. Emits a {Transfer} event."
      },
      "safeTransferFrom(address,address,uint256,bytes)": {
        "details": "Safely transfers `tokenId` token from `from` to `to`. Requirements: - `from` cannot be the zero address. - `to` cannot be the zero address. - `tokenId` token must exist and be owned by `from`. - If the caller is not `from`, it must be approved to move this token by either {approve} or {setApprovalForAll}. - If `to` refers to a smart contract, it must implement {IERC721Receiver-onERC721Received}, which is called upon   a safe transfer. Emits a {Transfer} event."
      },
      "setApprovalForAll(address,bool)": {
        "details": "Approve or remove `operator` as an operator for the caller. Operators can call {transferFrom} or {safeTransferFrom} for any token owned by the caller. Requirements: - The `operator` cannot be the address zero. Emits an {ApprovalForAll} event."
      },
      "symbol()": {
        "details": "Returns the token collection symbol."
      },
      "tokenByIndex(uint256)": {
        "details": "Returns a token ID at a given `index` of all the tokens stored by the contract. Use along with {totalSupply} to enumerate all tokens."
      },
      "tokenOfOwnerByIndex(address,uint256)": {
        "details": "Returns a token ID owned by `owner` at a given `index` of its token list. Use along with {balanceOf} to enumerate all of ``owner``'s tokens."
      },
      "tokenURI(uint256)": {
        "details": "Returns the Uniform Resource Identifier (URI) for `tokenId` token."
      },
      "totalSupply()": {
        "details": "Returns the total amount of tokens stored by the contract."
      },
      "transferFrom(address,address,uint256)": {
        "details": "Transfers `tokenId` token from `from` to `to`. WARNING: Note that the caller is responsible to confirm that the recipient is capable of receiving ERC-721 or else they may be permanently lost. Usage of {safeTransferFrom} prevents loss, though the caller must understand this adds an external call which potentially creates a reentrancy vulnerability. Requirements: - `from` cannot be the zero address. - `to` cannot be the zero address. - `tokenId` token must be owned by `from`. - If the caller is not `from`, it must be approved to move this token by either {approve} or {setApprovalForAll}. Emits a {Transfer} event."
      },
      "upgradeToAndCall(address,bytes)": {
        "custom:oz-upgrades-unsafe-allow-reachable": "delegatecall",
        "details": "Upgrade the implementation of the proxy to `newImplementation`, and subsequently execute the function call encoded in `data`. Calls {_authorizeUpgrade}. Emits an {Upgraded} event."
      }
    },
    "version": 1
  },
  "userdoc": {
    "kind": "user",
    "methods": {},
    "version": 1
  },
  "storageLayout": {
    "storage": [
      {
        "astId": 8268,
        "contract": "contracts/LabubuNFT.sol:LabubuNFT",
        "label": "maxTokenId",
        "offset": 0,
        "slot": "0",
        "type": "t_uint256"
      },
      {
        "astId": 8270,
        "contract": "contracts/LabubuNFT.sol:LabubuNFT",
        "label": "maxDepositId",
        "offset": 0,
        "slot": "1",
        "type": "t_uint256"
      },
      {
        "astId": 8272,
        "contract": "contracts/LabubuNFT.sol:LabubuNFT",
        "label": "maxDailyAmount",
        "offset": 0,
        "slot": "2",
        "type": "t_uint256"
      },
      {
        "astId": 8276,
        "contract": "contracts/LabubuNFT.sol:LabubuNFT",
        "label": "dailyAmount",
        "offset": 0,
        "slot": "3",
        "type": "t_mapping(t_uint256,t_uint256)"
      },
      {
        "astId": 8280,
        "contract": "contracts/LabubuNFT.sol:LabubuNFT",
        "label": "depositWhitelist",
        "offset": 0,
        "slot": "4",
        "type": "t_mapping(t_address,t_bool)"
      },
      {
        "astId": 8282,
        "contract": "contracts/LabubuNFT.sol:LabubuNFT",
        "label": "nftPrice",
        "offset": 0,
        "slot": "5",
        "type": "t_uint256"
      },
      {
        "astId": 8285,
        "contract": "contracts/LabubuNFT.sol:LabubuNFT",
        "label": "manager",
        "offset": 0,
        "slot": "6",
        "type": "t_contract(IManager)8964"
      },
      {
        "astId": 8287,
        "contract": "contracts/LabubuNFT.sol:LabubuNFT",
        "label": "reserve",
        "offset": 0,
        "slot": "7",
        "type": "t_address"
      },
      {
        "astId": 8292,
        "contract": "contracts/LabubuNFT.sol:LabubuNFT",
        "label": "payees",
        "offset": 0,
        "slot": "8",
        "type": "t_mapping(t_address,t_struct(Payee)8303_storage)"
      },
      {
        "astId": 8294,
        "contract": "contracts/LabubuNFT.sol:LabubuNFT",
        "label": "perDebt",
        "offset": 0,
        "slot": "9",
        "type": "t_uint256"
      },
      {
        "astId": 8296,
        "contract": "contracts/LabubuNFT.sol:LabubuNFT",
        "label": "onlyAA",
        "offset": 0,
        "slot": "10",
        "type": "t_bool"
      }
    ],
    "types": {
      "t_address": {
        "encoding": "inplace",
        "label": "address",
        "numberOfBytes": "20"
      },
      "t_bool": {
        "encoding": "inplace",
        "label": "bool",
        "numberOfBytes": "1"
      },
      "t_contract(IManager)8964": {
        "encoding": "inplace",
        "label": "contract IManager",
        "numberOfBytes": "20"
      },
      "t_mapping(t_address,t_bool)": {
        "encoding": "mapping",
        "key": "t_address",
        "label": "mapping(address => bool)",
        "numberOfBytes": "32",
        "value": "t_bool"
      },
      "t_mapping(t_address,t_struct(Payee)8303_storage)": {
        "encoding": "mapping",
        "key": "t_address",
        "label": "mapping(address => struct LabubuNFT.Payee)",
        "numberOfBytes": "32",
        "value": "t_struct(Payee)8303_storage"
      },
      "t_mapping(t_uint256,t_uint256)": {
        "encoding": "mapping",
        "key": "t_uint256",
        "label": "mapping(uint256 => uint256)",
        "numberOfBytes": "32",
        "value": "t_uint256"
      },
      "t_struct(Payee)8303_storage": {
        "encoding": "inplace",
        "label": "struct LabubuNFT.Payee",
        "members": [
          {
            "astId": 8298,
            "contract": "contracts/LabubuNFT.sol:LabubuNFT",
            "label": "released",
            "offset": 0,
            "slot": "0",
            "type": "t_uint256"
          },
          {
            "astId": 8300,
            "contract": "contracts/LabubuNFT.sol:LabubuNFT",
            "label": "available",
            "offset": 0,
            "slot": "1",
            "type": "t_uint256"
          },
          {
            "astId": 8302,
            "contract": "contracts/LabubuNFT.sol:LabubuNFT",
            "label": "debt",
            "offset": 0,
            "slot": "2",
            "type": "t_uint256"
          }
        ],
        "numberOfBytes": "96"
      },
      "t_uint256": {
        "encoding": "inplace",
        "label": "uint256",
        "numberOfBytes": "32"
      }
    }
  }
}