{
  "address": "0xb456856Cbafc0dFEEB9d42b27DC812DE693bAE32",
  "abi": [
    {
      "inputs": [
        {
          "internalType": "address[]",
          "name": "_owners",
          "type": "address[]"
        },
        {
          "internalType": "uint256",
          "name": "_required",
          "type": "uint256"
        }
      ],
      "stateMutability": "nonpayable",
      "type": "constructor"
    },
    {
      "inputs": [],
      "name": "FailedCall",
      "type": "error"
    },
    {
      "anonymous": false,
      "inputs": [
        {
          "indexed": true,
          "internalType": "address",
          "name": "sender",
          "type": "address"
        },
        {
          "indexed": true,
          "internalType": "uint256",
          "name": "transactionId",
          "type": "uint256"
        }
      ],
      "name": "Confirmation",
      "type": "event"
    },
    {
      "anonymous": false,
      "inputs": [
        {
          "indexed": true,
          "internalType": "address",
          "name": "sender",
          "type": "address"
        },
        {
          "indexed": false,
          "internalType": "uint256",
          "name": "value",
          "type": "uint256"
        }
      ],
      "name": "Deposit",
      "type": "event"
    },
    {
      "anonymous": false,
      "inputs": [
        {
          "indexed": true,
          "internalType": "uint256",
          "name": "transactionId",
          "type": "uint256"
        }
      ],
      "name": "Execution",
      "type": "event"
    },
    {
      "anonymous": false,
      "inputs": [
        {
          "indexed": true,
          "internalType": "uint256",
          "name": "transactionId",
          "type": "uint256"
        }
      ],
      "name": "ExecutionFailure",
      "type": "event"
    },
    {
      "anonymous": false,
      "inputs": [
        {
          "indexed": true,
          "internalType": "address",
          "name": "owner",
          "type": "address"
        }
      ],
      "name": "OwnerAddition",
      "type": "event"
    },
    {
      "anonymous": false,
      "inputs": [
        {
          "indexed": true,
          "internalType": "address",
          "name": "owner",
          "type": "address"
        }
      ],
      "name": "OwnerRemoval",
      "type": "event"
    },
    {
      "anonymous": false,
      "inputs": [
        {
          "indexed": false,
          "internalType": "uint256",
          "name": "required",
          "type": "uint256"
        }
      ],
      "name": "RequirementChange",
      "type": "event"
    },
    {
      "anonymous": false,
      "inputs": [
        {
          "indexed": true,
          "internalType": "address",
          "name": "sender",
          "type": "address"
        },
        {
          "indexed": true,
          "internalType": "uint256",
          "name": "transactionId",
          "type": "uint256"
        }
      ],
      "name": "Revocation",
      "type": "event"
    },
    {
      "anonymous": false,
      "inputs": [
        {
          "indexed": true,
          "internalType": "uint256",
          "name": "transactionId",
          "type": "uint256"
        }
      ],
      "name": "Submission",
      "type": "event"
    },
    {
      "inputs": [],
      "name": "MAX_OWNER_COUNT",
      "outputs": [
        {
          "internalType": "uint256",
          "name": "",
          "type": "uint256"
        }
      ],
      "stateMutability": "view",
      "type": "function"
    },
    {
      "inputs": [
        {
          "internalType": "address",
          "name": "owner",
          "type": "address"
        }
      ],
      "name": "addOwner",
      "outputs": [],
      "stateMutability": "nonpayable",
      "type": "function"
    },
    {
      "inputs": [
        {
          "internalType": "uint256",
          "name": "_required",
          "type": "uint256"
        }
      ],
      "name": "changeRequirement",
      "outputs": [],
      "stateMutability": "nonpayable",
      "type": "function"
    },
    {
      "inputs": [
        {
          "internalType": "uint256",
          "name": "transactionId",
          "type": "uint256"
        }
      ],
      "name": "confirmTransaction",
      "outputs": [],
      "stateMutability": "nonpayable",
      "type": "function"
    },
    {
      "inputs": [
        {
          "internalType": "uint256",
          "name": "",
          "type": "uint256"
        },
        {
          "internalType": "address",
          "name": "",
          "type": "address"
        }
      ],
      "name": "confirmations",
      "outputs": [
        {
          "internalType": "bool",
          "name": "",
          "type": "bool"
        }
      ],
      "stateMutability": "view",
      "type": "function"
    },
    {
      "inputs": [
        {
          "internalType": "uint256",
          "name": "transactionId",
          "type": "uint256"
        }
      ],
      "name": "discardTransaction",
      "outputs": [],
      "stateMutability": "nonpayable",
      "type": "function"
    },
    {
      "inputs": [
        {
          "internalType": "uint256",
          "name": "transactionId",
          "type": "uint256"
        }
      ],
      "name": "executeTransaction",
      "outputs": [],
      "stateMutability": "nonpayable",
      "type": "function"
    },
    {
      "inputs": [
        {
          "internalType": "uint256",
          "name": "transactionId",
          "type": "uint256"
        }
      ],
      "name": "getConfirmationCount",
      "outputs": [
        {
          "internalType": "uint256",
          "name": "count",
          "type": "uint256"
        }
      ],
      "stateMutability": "view",
      "type": "function"
    },
    {
      "inputs": [
        {
          "internalType": "uint256",
          "name": "transactionId",
          "type": "uint256"
        }
      ],
      "name": "getConfirmations",
      "outputs": [
        {
          "internalType": "address[]",
          "name": "_confirmations",
          "type": "address[]"
        }
      ],
      "stateMutability": "view",
      "type": "function"
    },
    {
      "inputs": [],
      "name": "getOwners",
      "outputs": [
        {
          "internalType": "address[]",
          "name": "",
          "type": "address[]"
        }
      ],
      "stateMutability": "view",
      "type": "function"
    },
    {
      "inputs": [
        {
          "internalType": "bool",
          "name": "pending",
          "type": "bool"
        },
        {
          "internalType": "bool",
          "name": "executed",
          "type": "bool"
        }
      ],
      "name": "getTransactionCount",
      "outputs": [
        {
          "internalType": "uint256",
          "name": "count",
          "type": "uint256"
        }
      ],
      "stateMutability": "view",
      "type": "function"
    },
    {
      "inputs": [
        {
          "internalType": "uint256",
          "name": "from",
          "type": "uint256"
        },
        {
          "internalType": "uint256",
          "name": "to",
          "type": "uint256"
        },
        {
          "internalType": "bool",
          "name": "pending",
          "type": "bool"
        },
        {
          "internalType": "bool",
          "name": "executed",
          "type": "bool"
        }
      ],
      "name": "getTransactionIds",
      "outputs": [
        {
          "internalType": "uint256[]",
          "name": "_transactionIds",
          "type": "uint256[]"
        }
      ],
      "stateMutability": "view",
      "type": "function"
    },
    {
      "inputs": [
        {
          "internalType": "uint256",
          "name": "count",
          "type": "uint256"
        },
        {
          "internalType": "address",
          "name": "account",
          "type": "address"
        }
      ],
      "name": "getTransactions",
      "outputs": [
        {
          "components": [
            {
              "internalType": "bytes32",
              "name": "description",
              "type": "bytes32"
            },
            {
              "internalType": "uint48",
              "name": "createTime",
              "type": "uint48"
            },
            {
              "internalType": "address",
              "name": "destination",
              "type": "address"
            },
            {
              "internalType": "uint256",
              "name": "value",
              "type": "uint256"
            },
            {
              "internalType": "bytes",
              "name": "data",
              "type": "bytes"
            },
            {
              "internalType": "address",
              "name": "submitter",
              "type": "address"
            },
            {
              "internalType": "bool",
              "name": "executed",
              "type": "bool"
            }
          ],
          "internalType": "struct MultiSigBank.Transaction[]",
          "name": "_transactions",
          "type": "tuple[]"
        },
        {
          "internalType": "bool[]",
          "name": "_isAccountConfirms",
          "type": "bool[]"
        },
        {
          "internalType": "bool[]",
          "name": "_confirms",
          "type": "bool[]"
        },
        {
          "internalType": "uint256[]",
          "name": "_ids",
          "type": "uint256[]"
        }
      ],
      "stateMutability": "view",
      "type": "function"
    },
    {
      "inputs": [
        {
          "internalType": "uint256",
          "name": "transactionId",
          "type": "uint256"
        }
      ],
      "name": "isConfirmed",
      "outputs": [
        {
          "internalType": "bool",
          "name": "",
          "type": "bool"
        }
      ],
      "stateMutability": "view",
      "type": "function"
    },
    {
      "inputs": [
        {
          "internalType": "address",
          "name": "",
          "type": "address"
        }
      ],
      "name": "isOwner",
      "outputs": [
        {
          "internalType": "bool",
          "name": "",
          "type": "bool"
        }
      ],
      "stateMutability": "view",
      "type": "function"
    },
    {
      "inputs": [
        {
          "internalType": "uint256",
          "name": "",
          "type": "uint256"
        }
      ],
      "name": "owners",
      "outputs": [
        {
          "internalType": "address",
          "name": "",
          "type": "address"
        }
      ],
      "stateMutability": "view",
      "type": "function"
    },
    {
      "inputs": [
        {
          "internalType": "address",
          "name": "owner",
          "type": "address"
        }
      ],
      "name": "removeOwner",
      "outputs": [],
      "stateMutability": "nonpayable",
      "type": "function"
    },
    {
      "inputs": [
        {
          "internalType": "address",
          "name": "owner",
          "type": "address"
        },
        {
          "internalType": "address",
          "name": "newOwner",
          "type": "address"
        }
      ],
      "name": "replaceOwner",
      "outputs": [],
      "stateMutability": "nonpayable",
      "type": "function"
    },
    {
      "inputs": [],
      "name": "required",
      "outputs": [
        {
          "internalType": "uint256",
          "name": "",
          "type": "uint256"
        }
      ],
      "stateMutability": "view",
      "type": "function"
    },
    {
      "inputs": [
        {
          "internalType": "uint256",
          "name": "transactionId",
          "type": "uint256"
        }
      ],
      "name": "revokeConfirmation",
      "outputs": [],
      "stateMutability": "nonpayable",
      "type": "function"
    },
    {
      "inputs": [
        {
          "internalType": "address",
          "name": "destination",
          "type": "address"
        },
        {
          "internalType": "uint256",
          "name": "value",
          "type": "uint256"
        },
        {
          "internalType": "bytes",
          "name": "data",
          "type": "bytes"
        },
        {
          "internalType": "bytes32",
          "name": "description",
          "type": "bytes32"
        }
      ],
      "name": "submitTransaction",
      "outputs": [
        {
          "internalType": "uint256",
          "name": "transactionId",
          "type": "uint256"
        }
      ],
      "stateMutability": "nonpayable",
      "type": "function"
    },
    {
      "inputs": [],
      "name": "transactionCount",
      "outputs": [
        {
          "internalType": "uint256",
          "name": "",
          "type": "uint256"
        }
      ],
      "stateMutability": "view",
      "type": "function"
    },
    {
      "inputs": [
        {
          "internalType": "uint256",
          "name": "",
          "type": "uint256"
        }
      ],
      "name": "transactions",
      "outputs": [
        {
          "internalType": "bytes32",
          "name": "description",
          "type": "bytes32"
        },
        {
          "internalType": "uint48",
          "name": "createTime",
          "type": "uint48"
        },
        {
          "internalType": "address",
          "name": "destination",
          "type": "address"
        },
        {
          "internalType": "uint256",
          "name": "value",
          "type": "uint256"
        },
        {
          "internalType": "bytes",
          "name": "data",
          "type": "bytes"
        },
        {
          "internalType": "address",
          "name": "submitter",
          "type": "address"
        },
        {
          "internalType": "bool",
          "name": "executed",
          "type": "bool"
        }
      ],
      "stateMutability": "view",
      "type": "function"
    },
    {
      "stateMutability": "payable",
      "type": "receive"
    }
  ],
  "transactionHash": "0x6f193add7a77ff51cc4768ef33e3dadb1e78f981613fa5034037df067919e2bd",
  "args": [
    [
      "0xc172397B7A4c84E71541A2DDF4F403e396d52b4d",
      "0xc0326624EE57Db85270C8083fc3E5B2d18265fE8",
      "0xA2F0Ea9d57914e82a65E47B146aE020Ce56C3955",
      "0xa16Be7DB418479E8441508C7331716D1234Fa0e4",
      "0xcCfef077902333AFb1cF7F8c338E03edfe8bF8da"
    ],
    4
  ],
  "numDeployments": 1,
  "solcInputHash": "2851e554c9f8f2713d1224dc2ac4c4d2",
  "bytecode": "0x60806040523480156200001157600080fd5b506040516200268b3803806200268b833981016040819052620000349162000251565b60005b82518110156200017c5760006001600160a01b03168382815181106200006157620000616200032b565b60200260200101516001600160a01b031603620000a95760405162461bcd60e51b81526020600482015260016024820152600360fc1b60448201526064015b60405180910390fd5b60026000848381518110620000c257620000c26200032b565b6020908102919091018101516001600160a01b031682528101919091526040016000205460ff1615620001265760405162461bcd60e51b815260206004820152600b60248201526a6f776e657220726561647960a81b6044820152606401620000a0565b6001600260008584815181106200014157620001416200032b565b6020908102919091018101516001600160a01b03168252810191909152604001600020805460ff191691151591909117905560010162000037565b508151620001929060039060208501906200019d565b506004555062000341565b828054828255906000526020600020908101928215620001f5579160200282015b82811115620001f557825182546001600160a01b0319166001600160a01b03909116178255602090920191600190910190620001be565b506200020392915062000207565b5090565b5b8082111562000203576000815560010162000208565b634e487b7160e01b600052604160045260246000fd5b80516001600160a01b03811681146200024c57600080fd5b919050565b600080604083850312156200026557600080fd5b82516001600160401b03808211156200027d57600080fd5b818501915085601f8301126200029257600080fd5b8151602082821115620002a957620002a96200021e565b8160051b604051601f19603f83011681018181108682111715620002d157620002d16200021e565b604052928352818301935084810182019289841115620002f057600080fd5b948201945b838610156200031957620003098662000234565b85529482019493820193620002f5565b97909101519698969750505050505050565b634e487b7160e01b600052603260045260246000fd5b61233a80620003516000396000f3fe6080604052600436106101445760003560e01c80639ace38c2116100b6578063ba51a6df1161006f578063ba51a6df1461043a578063c01a8c841461045a578063d74f8edd1461047a578063dc8452cd1461048f578063e20056e6146104a5578063ee22610b146104c557600080fd5b80639ace38c214610362578063a0e67e2b14610395578063a8abe69a146103b7578063b5dc40c3146103e4578063b77bf60014610404578063b9e66aa91461041a57600080fd5b806338959e201161010857806338959e20146102845780633f1f2d24146102b257806354741525146102e25780637065cb4814610302578063784547a7146103225780638b51d13f1461034257600080fd5b8063025e7c271461018c578063173825d9146101c957806320ea8d86146101e95780632f54bf6e146102095780633411c81c1461024957600080fd5b366101875734156101855760405134815233907fe1fffcc4923d04b559f4d29a8bfc6cda04eb5b0d3c460751c2402c5c5cc9109c9060200160405180910390a25b005b600080fd5b34801561019857600080fd5b506101ac6101a7366004611be0565b6104e5565b6040516001600160a01b0390911681526020015b60405180910390f35b3480156101d557600080fd5b506101856101e4366004611c15565b61050f565b3480156101f557600080fd5b50610185610204366004611be0565b6106de565b34801561021557600080fd5b50610239610224366004611c15565b60026020526000908152604090205460ff1681565b60405190151581526020016101c0565b34801561025557600080fd5b50610239610264366004611c37565b600160209081526000928352604080842090915290825290205460ff1681565b34801561029057600080fd5b506102a461029f366004611c79565b6107f0565b6040519081526020016101c0565b3480156102be57600080fd5b506102d26102cd366004611c37565b610811565b6040516101c09493929190611e01565b3480156102ee57600080fd5b506102a46102fd366004611f24565b610b7f565b34801561030e57600080fd5b5061018561031d366004611c15565b610c20565b34801561032e57600080fd5b5061023961033d366004611be0565b610de8565b34801561034e57600080fd5b506102a461035d366004611be0565b610e7c565b34801561036e57600080fd5b5061038261037d366004611be0565b610ef8565b6040516101c09796959493929190611f4e565b3480156103a157600080fd5b506103aa610fe1565b6040516101c09190611fa4565b3480156103c357600080fd5b506103d76103d2366004611ff1565b611043565b6040516101c09190612037565b3480156103f057600080fd5b506103aa6103ff366004611be0565b6111f5565b34801561041057600080fd5b506102a460055481565b34801561042657600080fd5b50610185610435366004611be0565b6113b9565b34801561044657600080fd5b50610185610455366004611be0565b611463565b34801561046657600080fd5b50610185610475366004611be0565b61152b565b34801561048657600080fd5b506102a4603281565b34801561049b57600080fd5b506102a460045481565b3480156104b157600080fd5b506101856104c036600461204a565b6116c5565b3480156104d157600080fd5b506101856104e0366004611be0565b6118aa565b600381815481106104f557600080fd5b6000918252602090912001546001600160a01b0316905081565b3330146105375760405162461bcd60e51b815260040161052e90612074565b60405180910390fd5b6001600160a01b038116600090815260026020526040902054819060ff166105715760405162461bcd60e51b815260040161052e90612098565b6001600160a01b0382166000908152600260205260408120805460ff191690555b60035481101561068d57826001600160a01b0316600382815481106105b9576105b96120bd565b6000918252602090912001546001600160a01b03160361068557600380546105e3906001906120e9565b815481106105f3576105f36120bd565b600091825260209091200154600380546001600160a01b03909216918390811061061f5761061f6120bd565b9060005260206000200160006101000a8154816001600160a01b0302191690836001600160a01b03160217905550600380548061065e5761065e6120fc565b600082815260209020810160001990810180546001600160a01b031916905501905561068d565b600101610592565b5060035460045411156106a6576003546106a690611463565b6040516001600160a01b038316907f8001553a916ef2f495d26a907cc54d96ed840d7bda71e73194bf5a9df7a76b9090600090a25050565b3360008181526002602052604090205460ff1661070d5760405162461bcd60e51b815260040161052e90612098565b60008281526001602090815260408083203380855292529091205483919060ff166107665760405162461bcd60e51b815260206004820152600960248201526818dbdb999a5c9b595960ba1b604482015260640161052e565b6000848152602081905260409020600401548490600160a01b900460ff16156107a15760405162461bcd60e51b815260040161052e90612112565b6000858152600160209081526040808320338085529252808320805460ff191690555187927ff6a317157440607f36269043eb55f1287a5a19ba2216afeab88cd46cbcfb88e991a35050505050565b60006107fe85858585611a25565b90506108098161152b565b949350505050565b6060806060806005548611156108275760055495505b8567ffffffffffffffff81111561084057610840611c63565b6040519080825280602002602001820160405280156108a657816020015b6040805160e081018252600080825260208083018290529282018190526060808301829052608083015260a0820181905260c0820152825260001990920191018161085e5790505b5093508567ffffffffffffffff8111156108c2576108c2611c63565b6040519080825280602002602001820160405280156108eb578160200160208202803683370190505b5092508567ffffffffffffffff81111561090757610907611c63565b604051908082528060200260200182016040528015610930578160200160208202803683370190505b5091508567ffffffffffffffff81111561094c5761094c611c63565b604051908082528060200260200182016040528015610975578160200160208202803683370190505b50905060005b86811015610b7557600081600160055461099591906120e9565b61099f91906120e9565b60008181526020818152604091829020825160e08101845281548152600182015465ffffffffffff811693820193909352600160301b9092046001600160a01b031692820192909252600282015460608201526003820180549394509092608084019190610a0c90612137565b80601f0160208091040260200160405190810160405280929190818152602001828054610a3890612137565b8015610a855780601f10610a5a57610100808354040283529160200191610a85565b820191906000526020600020905b815481529060010190602001808311610a6857829003601f168201915b5050509183525050600491909101546001600160a01b0381166020830152600160a01b900460ff1615156040909101528651879084908110610ac957610ac96120bd565b60209081029190910181019190915260008281526001825260408082206001600160a01b038b1683529092522054855160ff90911690869084908110610b1157610b116120bd565b91151560209283029190910190910152610b2a81610de8565b848381518110610b3c57610b3c6120bd565b60200260200101901515908115158152505080838381518110610b6157610b616120bd565b60209081029190910101525060010161097b565b5092959194509250565b6000805b600554811015610c19576000818152602081905260409020600401546001600160a01b031615610c1157838015610bd35750600081815260208190526040902060040154600160a01b900460ff16155b80610bfe5750828015610bfe5750600081815260208190526040902060040154600160a01b900460ff165b15610c1157610c0e60018361216b565b91505b600101610b83565b5092915050565b333014610c3f5760405162461bcd60e51b815260040161052e90612074565b6001600160a01b038116600090815260026020526040902054819060ff1615610c9e5760405162461bcd60e51b81526020600482015260116024820152701bdddb995c911bd95cd39bdd115e1a5cdd607a1b604482015260640161052e565b816001600160a01b038116610cdf5760405162461bcd60e51b81526020600482015260076024820152661b9bdd139d5b1b60ca1b604482015260640161052e565b600354610ced90600161216b565b60045460328211158015610d015750818111155b8015610d0d5750600081115b8015610d195750600082115b610d585760405162461bcd60e51b815260206004820152601060248201526f1d985b1a5914995c5d5a5c995b595b9d60821b604482015260640161052e565b6001600160a01b038516600081815260026020526040808220805460ff1916600190811790915560038054918201815583527fc2575a0e9e593c00f959f8c92f12db2869c3395a3b0502d05e2516446f71f85b0180546001600160a01b03191684179055517ff39e6e1eb0edcf53c221607b54b00cd28f3196fed0a24994dc308b8f611b682d9190a25050505050565b600080805b600354811015610e725760008481526001602052604081206003805491929184908110610e1c57610e1c6120bd565b60009182526020808320909101546001600160a01b0316835282019290925260400190205460ff1615610e5757610e5460018361216b565b91505b6004548203610e6a575060019392505050565b600101610ded565b5060009392505050565b6000805b600354811015610ef25760008381526001602052604081206003805491929184908110610eaf57610eaf6120bd565b60009182526020808320909101546001600160a01b0316835282019290925260400190205460ff1615610eea57610ee760018361216b565b91505b600101610e80565b50919050565b6000602081905290815260409020805460018201546002830154600384018054939465ffffffffffff841694600160301b9094046001600160a01b031693909190610f4290612137565b80601f0160208091040260200160405190810160405280929190818152602001828054610f6e90612137565b8015610fbb5780601f10610f9057610100808354040283529160200191610fbb565b820191906000526020600020905b815481529060010190602001808311610f9e57829003601f168201915b505050600490930154919250506001600160a01b0381169060ff600160a01b9091041687565b6060600380548060200260200160405190810160405280929190818152602001828054801561103957602002820191906000526020600020905b81546001600160a01b0316815260019091019060200180831161101b575b5050505050905090565b6060600060055467ffffffffffffffff81111561106257611062611c63565b60405190808252806020026020018201604052801561108b578160200160208202803683370190505b5090506000805b600554811015611146576000818152602081905260409020600401546001600160a01b03161561113e578580156110e25750600081815260208190526040902060040154600160a01b900460ff16155b8061110d575084801561110d5750600081815260208190526040902060040154600160a01b900460ff165b1561113e5780838381518110611125576111256120bd565b602090810291909101015261113b60018361216b565b91505b600101611092565b61115088886120e9565b67ffffffffffffffff81111561116857611168611c63565b604051908082528060200260200182016040528015611191578160200160208202803683370190505b5093508790505b868110156111ea578281815181106111b2576111b26120bd565b60200260200101518489836111c791906120e9565b815181106111d7576111d76120bd565b6020908102919091010152600101611198565b505050949350505050565b60035460609060009067ffffffffffffffff81111561121657611216611c63565b60405190808252806020026020018201604052801561123f578160200160208202803683370190505b5090506000805b6003548110156113135760008581526001602052604081206003805491929184908110611275576112756120bd565b60009182526020808320909101546001600160a01b0316835282019290925260400190205460ff161561130b57600381815481106112b5576112b56120bd565b9060005260206000200160009054906101000a90046001600160a01b03168383815181106112e5576112e56120bd565b6001600160a01b039092166020928302919091019091015261130860018361216b565b91505b600101611246565b8167ffffffffffffffff81111561132c5761132c611c63565b604051908082528060200260200182016040528015611355578160200160208202803683370190505b509350600090505b818110156113b157828181518110611377576113776120bd565b6020026020010151848281518110611391576113916120bd565b6001600160a01b039092166020928302919091019091015260010161135d565b505050919050565b6000818152602081905260409020600401548190600160a01b900460ff16156113f45760405162461bcd60e51b815260040161052e90612112565b600082815260208190526040902060048101546001600160a01b0316331461144e5760405162461bcd60e51b815260206004820152600d60248201526c3737ba1039bab136b4ba3a32b960991b604482015260640161052e565b60040180546001600160a01b03191690555050565b3330146114825760405162461bcd60e51b815260040161052e90612074565b60035481603282118015906114975750818111155b80156114a35750600081115b80156114af5750600082115b6114ee5760405162461bcd60e51b815260206004820152601060248201526f1d985b1a5914995c5d5a5c995b595b9d60821b604482015260640161052e565b60048390556040518381527fa3f1ee9126a074d9326c682f561767f710e927faa811f7a99829d49dc421797a9060200160405180910390a1505050565b3360008181526002602052604090205460ff1661155a5760405162461bcd60e51b815260040161052e90612098565b6000828152602081905260409020600101548290600160301b90046001600160a01b03166115be5760405162461bcd60e51b81526020600482015260116024820152707472616e73616374696f6e45786973747360781b604482015260640161052e565b60008381526020819052604090206004015483906001600160a01b03166116135760405162461bcd60e51b8152602060048201526009602482015268191a5cd8d85c99195960ba1b604482015260640161052e565b60008481526001602090815260408083203380855292529091205485919060ff16156116705760405162461bcd60e51b815260206004820152600c60248201526b1b9bdd10dbdb999a5c9b595960a21b604482015260640161052e565b6000868152600160208181526040808420338086529252808420805460ff1916909317909255905188927f4a504a94899432a9846e1aa406dceb1bcfd538bb839071d49d1e5e23f5be30ef91a3505050505050565b3330146116e45760405162461bcd60e51b815260040161052e90612074565b6001600160a01b038216600090815260026020526040902054829060ff1661171e5760405162461bcd60e51b815260040161052e90612098565b6001600160a01b038216600090815260026020526040902054829060ff161561177d5760405162461bcd60e51b81526020600482015260116024820152701bdddb995c911bd95cd39bdd115e1a5cdd607a1b604482015260640161052e565b60005b60035481101561181057846001600160a01b0316600382815481106117a7576117a76120bd565b6000918252602090912001546001600160a01b0316036118085783600382815481106117d5576117d56120bd565b9060005260206000200160006101000a8154816001600160a01b0302191690836001600160a01b03160217905550611810565b600101611780565b506001600160a01b03808516600081815260026020526040808220805460ff1990811690915593871682528082208054909416600117909355915190917f8001553a916ef2f495d26a907cc54d96ed840d7bda71e73194bf5a9df7a76b9091a26040516001600160a01b038416907ff39e6e1eb0edcf53c221607b54b00cd28f3196fed0a24994dc308b8f611b682d90600090a250505050565b60008181526020819052604090206004015481906001600160a01b03166118ff5760405162461bcd60e51b8152602060048201526009602482015268191a5cd8d85c99195960ba1b604482015260640161052e565b6000828152602081905260409020600401548290600160a01b900460ff161561193a5760405162461bcd60e51b815260040161052e90612112565b61194383610de8565b15611a2057600083815260208190526040808220600481018054600160a01b60ff60a01b199091161790556001810154600282015492519193928392600160301b9092046001600160a01b03169161199f90600387019061217e565b60006040518083038185875af1925050503d80600081146119dc576040519150601f19603f3d011682016040523d82523d6000602084013e6119e1565b606091505b50915091506119f08282611b9a565b5060405186907f33e13ecb54c3076d8e8bb8c2881800a4d972b792045ffae98fdf46df365fed7590600090a25050505b505050565b6000846001600160a01b038116611a685760405162461bcd60e51b81526020600482015260076024820152661b9bdd139d5b1b60ca1b604482015260640161052e565b6005546040805160e08101825285815265ffffffffffff42811660208084019182526001600160a01b03808d16858701908152606086018d8152608087018d81523360a0890152600060c089018190528a815294859052979093208651815593516001850180549251909316600160301b026001600160d01b031990921695169490941793909317909255905160028201559151929450916003820190611b0f9082612244565b5060a08201516004909101805460c0909301511515600160a01b026001600160a81b03199093166001600160a01b03909216919091179190911790556005805460019190600090611b6190849061216b565b909155505060405182907fc0ba8fe4b176c1714197d43b9cc6bcf797a4a7461c5fe8d0ef6e184ae7601e5190600090a250949350505050565b606082611baf57611baa82611bb8565b611bb2565b50805b92915050565b805115611bc757805160208201fd5b60405163d6bda27560e01b815260040160405180910390fd5b600060208284031215611bf257600080fd5b5035919050565b80356001600160a01b0381168114611c1057600080fd5b919050565b600060208284031215611c2757600080fd5b611c3082611bf9565b9392505050565b60008060408385031215611c4a57600080fd5b82359150611c5a60208401611bf9565b90509250929050565b634e487b7160e01b600052604160045260246000fd5b60008060008060808587031215611c8f57600080fd5b611c9885611bf9565b935060208501359250604085013567ffffffffffffffff80821115611cbc57600080fd5b818701915087601f830112611cd057600080fd5b813581811115611ce257611ce2611c63565b604051601f8201601f19908116603f01168101908382118183101715611d0a57611d0a611c63565b816040528281528a6020848701011115611d2357600080fd5b826020860160208301376000928101602001929092525095989497509495606001359450505050565b6000815180845260005b81811015611d7257602081850181015186830182015201611d56565b506000602082860101526020601f19601f83011685010191505092915050565b60008151808452602080850194506020840160005b83811015611dc5578151151587529582019590820190600101611da7565b509495945050505050565b60008151808452602080850194506020840160005b83811015611dc557815187529582019590820190600101611de5565b600060808083016080845280885180835260a0925060a08601915060a08160051b8701016020808c0160005b84811015611eca57898403609f190186528151805185528381015165ffffffffffff16848601526040808201516001600160a01b0380821692880192909252606080840151908801528a83015160e08c890181905292909190611e92848a0184611d4c565b9350808c860151168c8a015250505060c0808301519250611eb68188018415159052565b509684019694505090820190600101611e2d565b505087820390880152611edd818b611d92565b9450505050508281036040840152611ef58186611d92565b90508281036060840152611f098185611dd0565b979650505050505050565b80358015158114611c1057600080fd5b60008060408385031215611f3757600080fd5b611f4083611f14565b9150611c5a60208401611f14565b87815265ffffffffffff87166020820152600060018060a01b03808816604084015286606084015260e06080840152611f8a60e0840187611d4c565b941660a08301525090151560c09091015295945050505050565b6020808252825182820181905260009190848201906040850190845b81811015611fe55783516001600160a01b031683529284019291840191600101611fc0565b50909695505050505050565b6000806000806080858703121561200757600080fd5b843593506020850135925061201e60408601611f14565b915061202c60608601611f14565b905092959194509250565b602081526000611c306020830184611dd0565b6000806040838503121561205d57600080fd5b61206683611bf9565b9150611c5a60208401611bf9565b6020808252600a90820152691bdb9b1e55d85b1b195d60b21b604082015260600190565b6020808252600b908201526a6f776e657245786973747360a81b604082015260600190565b634e487b7160e01b600052603260045260246000fd5b634e487b7160e01b600052601160045260246000fd5b81810381811115611bb257611bb26120d3565b634e487b7160e01b600052603160045260246000fd5b6020808252600b908201526a1b9bdd115e1958dd5d195960aa1b604082015260600190565b600181811c9082168061214b57607f821691505b602082108103610ef257634e487b7160e01b600052602260045260246000fd5b80820180821115611bb257611bb26120d3565b600080835461218c81612137565b600182811680156121a457600181146121b9576121e8565b60ff19841687528215158302870194506121e8565b8760005260208060002060005b858110156121df5781548a8201529084019082016121c6565b50505082870194505b50929695505050505050565b601f821115611a20576000816000526020600020601f850160051c8101602086101561221d5750805b601f850160051c820191505b8181101561223c57828155600101612229565b505050505050565b815167ffffffffffffffff81111561225e5761225e611c63565b6122728161226c8454612137565b846121f4565b602080601f8311600181146122a7576000841561228f5750858301515b600019600386901b1c1916600185901b17855561223c565b600085815260208120601f198616915b828110156122d6578886015182559484019460019091019084016122b7565b50858210156122f45787850151600019600388901b60f8161c191681555b5050505050600190811b0190555056fea2646970667358221220776bb69b09f10a986156817fda05caeddcb6acfc848089e0fc6b943224a4975064736f6c63430008160033",
  "devdoc": {
    "errors": {
      "FailedCall()": [
        {
          "details": "A call to an address target failed. The target may have reverted."
        }
      ]
    },
    "kind": "dev",
    "methods": {
      "addOwner(address)": {
        "details": "Allows to add a new owner. Transaction has to be sent by wallet.",
        "params": {
          "owner": "Address of new owner."
        }
      },
      "changeRequirement(uint256)": {
        "details": "Allows to change the number of required confirmations. Transaction has to be sent by wallet.",
        "params": {
          "_required": "Number of required confirmations."
        }
      },
      "confirmTransaction(uint256)": {
        "details": "Allows an owner to confirm a transaction.",
        "params": {
          "transactionId": "Transaction ID."
        }
      },
      "constructor": {
        "details": "Contract constructor sets initial owners and required number of confirmations.",
        "params": {
          "_owners": "List of initial owners.",
          "_required": "Number of required confirmations."
        }
      },
      "executeTransaction(uint256)": {
        "details": "Allows anyone to execute a confirmed transaction.",
        "params": {
          "transactionId": "Transaction ID."
        }
      },
      "getConfirmationCount(uint256)": {
        "details": "Returns number of confirmations of a transaction.",
        "params": {
          "transactionId": "Transaction ID."
        },
        "returns": {
          "count": "of confirmations."
        }
      },
      "getConfirmations(uint256)": {
        "details": "Returns array with owner addresses, which confirmed transaction.",
        "params": {
          "transactionId": "Transaction ID."
        },
        "returns": {
          "_confirmations": "array of owner addresses."
        }
      },
      "getOwners()": {
        "details": "Returns list of owners.",
        "returns": {
          "_0": "List of owner addresses."
        }
      },
      "getTransactionCount(bool,bool)": {
        "details": "Returns total number of transactions after filers are applied.",
        "params": {
          "executed": "Include executed transactions.",
          "pending": "Include pending transactions."
        },
        "returns": {
          "count": "Total number of transactions after filters are applied."
        }
      },
      "getTransactionIds(uint256,uint256,bool,bool)": {
        "details": "Returns list of transaction IDs in defined range.",
        "params": {
          "executed": "Include executed transactions.",
          "from": "Index start position of transaction array.",
          "pending": "Include pending transactions.",
          "to": "Index end position of transaction array."
        },
        "returns": {
          "_transactionIds": "array of transaction IDs."
        }
      },
      "isConfirmed(uint256)": {
        "details": "Returns the confirmation status of a transaction.",
        "params": {
          "transactionId": "Transaction ID."
        },
        "returns": {
          "_0": "Confirmation status."
        }
      },
      "removeOwner(address)": {
        "details": "Allows to remove an owner. Transaction has to be sent by wallet.",
        "params": {
          "owner": "Address of owner."
        }
      },
      "replaceOwner(address,address)": {
        "details": "Allows to replace an owner with a new owner. Transaction has to be sent by wallet.",
        "params": {
          "owner": "Address of new owner."
        }
      },
      "revokeConfirmation(uint256)": {
        "details": "Allows an owner to revoke a confirmation for a transaction.",
        "params": {
          "transactionId": "Transaction ID."
        }
      },
      "submitTransaction(address,uint256,bytes,bytes32)": {
        "details": "Allows an owner to submit and confirm a transaction.",
        "params": {
          "data": "Transaction data payload.",
          "description": "A brief description of this transaction, less than 32 bytes.",
          "destination": "Transaction target address.",
          "value": "Transaction ether value."
        },
        "returns": {
          "transactionId": "transaction ID."
        }
      }
    },
    "version": 1
  },
  "userdoc": {
    "kind": "user",
    "methods": {
      "getTransactions(uint256,address)": {
        "notice": ""
      }
    },
    "version": 1
  },
  "storageLayout": {
    "storage": [
      {
        "astId": 8785,
        "contract": "contracts/utils/MultiSigBank.sol:MultiSigBank",
        "label": "transactions",
        "offset": 0,
        "slot": "0",
        "type": "t_mapping(t_uint256,t_struct(Transaction)8817_storage)"
      },
      {
        "astId": 8791,
        "contract": "contracts/utils/MultiSigBank.sol:MultiSigBank",
        "label": "confirmations",
        "offset": 0,
        "slot": "1",
        "type": "t_mapping(t_uint256,t_mapping(t_address,t_bool))"
      },
      {
        "astId": 8795,
        "contract": "contracts/utils/MultiSigBank.sol:MultiSigBank",
        "label": "isOwner",
        "offset": 0,
        "slot": "2",
        "type": "t_mapping(t_address,t_bool)"
      },
      {
        "astId": 8798,
        "contract": "contracts/utils/MultiSigBank.sol:MultiSigBank",
        "label": "owners",
        "offset": 0,
        "slot": "3",
        "type": "t_array(t_address)dyn_storage"
      },
      {
        "astId": 8800,
        "contract": "contracts/utils/MultiSigBank.sol:MultiSigBank",
        "label": "required",
        "offset": 0,
        "slot": "4",
        "type": "t_uint256"
      },
      {
        "astId": 8802,
        "contract": "contracts/utils/MultiSigBank.sol:MultiSigBank",
        "label": "transactionCount",
        "offset": 0,
        "slot": "5",
        "type": "t_uint256"
      }
    ],
    "types": {
      "t_address": {
        "encoding": "inplace",
        "label": "address",
        "numberOfBytes": "20"
      },
      "t_array(t_address)dyn_storage": {
        "base": "t_address",
        "encoding": "dynamic_array",
        "label": "address[]",
        "numberOfBytes": "32"
      },
      "t_bool": {
        "encoding": "inplace",
        "label": "bool",
        "numberOfBytes": "1"
      },
      "t_bytes32": {
        "encoding": "inplace",
        "label": "bytes32",
        "numberOfBytes": "32"
      },
      "t_bytes_storage": {
        "encoding": "bytes",
        "label": "bytes",
        "numberOfBytes": "32"
      },
      "t_mapping(t_address,t_bool)": {
        "encoding": "mapping",
        "key": "t_address",
        "label": "mapping(address => bool)",
        "numberOfBytes": "32",
        "value": "t_bool"
      },
      "t_mapping(t_uint256,t_mapping(t_address,t_bool))": {
        "encoding": "mapping",
        "key": "t_uint256",
        "label": "mapping(uint256 => mapping(address => bool))",
        "numberOfBytes": "32",
        "value": "t_mapping(t_address,t_bool)"
      },
      "t_mapping(t_uint256,t_struct(Transaction)8817_storage)": {
        "encoding": "mapping",
        "key": "t_uint256",
        "label": "mapping(uint256 => struct MultiSigBank.Transaction)",
        "numberOfBytes": "32",
        "value": "t_struct(Transaction)8817_storage"
      },
      "t_struct(Transaction)8817_storage": {
        "encoding": "inplace",
        "label": "struct MultiSigBank.Transaction",
        "members": [
          {
            "astId": 8804,
            "contract": "contracts/utils/MultiSigBank.sol:MultiSigBank",
            "label": "description",
            "offset": 0,
            "slot": "0",
            "type": "t_bytes32"
          },
          {
            "astId": 8806,
            "contract": "contracts/utils/MultiSigBank.sol:MultiSigBank",
            "label": "createTime",
            "offset": 0,
            "slot": "1",
            "type": "t_uint48"
          },
          {
            "astId": 8808,
            "contract": "contracts/utils/MultiSigBank.sol:MultiSigBank",
            "label": "destination",
            "offset": 6,
            "slot": "1",
            "type": "t_address"
          },
          {
            "astId": 8810,
            "contract": "contracts/utils/MultiSigBank.sol:MultiSigBank",
            "label": "value",
            "offset": 0,
            "slot": "2",
            "type": "t_uint256"
          },
          {
            "astId": 8812,
            "contract": "contracts/utils/MultiSigBank.sol:MultiSigBank",
            "label": "data",
            "offset": 0,
            "slot": "3",
            "type": "t_bytes_storage"
          },
          {
            "astId": 8814,
            "contract": "contracts/utils/MultiSigBank.sol:MultiSigBank",
            "label": "submitter",
            "offset": 0,
            "slot": "4",
            "type": "t_address"
          },
          {
            "astId": 8816,
            "contract": "contracts/utils/MultiSigBank.sol:MultiSigBank",
            "label": "executed",
            "offset": 20,
            "slot": "4",
            "type": "t_bool"
          }
        ],
        "numberOfBytes": "160"
      },
      "t_uint256": {
        "encoding": "inplace",
        "label": "uint256",
        "numberOfBytes": "32"
      },
      "t_uint48": {
        "encoding": "inplace",
        "label": "uint48",
        "numberOfBytes": "6"
      }
    }
  }
}