{
  "address": "0xe981CF0D65Df9C37FB233eF33547a045df18E3f7",
  "abi": [
    {
      "inputs": [
        {
          "components": [
            {
              "internalType": "address",
              "name": "target",
              "type": "address"
            },
            {
              "internalType": "bytes",
              "name": "callData",
              "type": "bytes"
            }
          ],
          "internalType": "struct Multicall.Call[]",
          "name": "calls",
          "type": "tuple[]"
        }
      ],
      "name": "aggregate",
      "outputs": [
        {
          "internalType": "bytes[]",
          "name": "returnData",
          "type": "bytes[]"
        }
      ],
      "stateMutability": "view",
      "type": "function"
    }
  ],
  "transactionHash": "0x4429562c02433c842e686e29f66f151221995eddad33a21bfefcaff6130d2121",
  "args": [],
  "numDeployments": 1,
  "solcInputHash": "9f80c9f2dfc453b795c2099826f741e0",
  "bytecode": "0x608060405234801561001057600080fd5b506104f2806100206000396000f3fe608060405234801561001057600080fd5b506004361061002b5760003560e01c8063252dba4214610030575b600080fd5b61004361003e36600461027f565b610059565b6040516100509190610410565b60405180910390f35b6060815167ffffffffffffffff8111156100755761007561020f565b6040519080825280602002602001820160405280156100a857816020015b60608152602001906001900390816100935790505b50905060005b82518110156102095760008382815181106100cb576100cb61048a565b60200260200101516020015151111561019a5760008382815181106100f2576100f261048a565b6020026020010151600001516001600160a01b03168483815181106101195761011961048a565b60200260200101516020015160405161013291906104a0565b600060405180830381855afa9150503d806000811461016d576040519150601f19603f3d011682016040523d82523d6000602084013e610172565b606091505b50915050808383815181106101895761018961048a565b602002602001018190525050610201565b8281815181106101ac576101ac61048a565b6020026020010151600001516001600160a01b0316316040516020016101d491815260200190565b6040516020818303038152906040528282815181106101f5576101f561048a565b60200260200101819052505b6001016100ae565b50919050565b634e487b7160e01b600052604160045260246000fd5b6040805190810167ffffffffffffffff811182821017156102485761024861020f565b60405290565b604051601f8201601f1916810167ffffffffffffffff811182821017156102775761027761020f565b604052919050565b6000602080838503121561029257600080fd5b823567ffffffffffffffff808211156102aa57600080fd5b818501915085601f8301126102be57600080fd5b8135818111156102d0576102d061020f565b8060051b6102df85820161024e565b91825283810185019185810190898411156102f957600080fd5b86860192505b838310156103df578235858111156103175760008081fd5b86016040601f19828d0381018213156103305760008081fd5b610338610225565b838b01356001600160a01b03811681146103525760008081fd5b815283830135898111156103665760008081fd5b8085019450508d603f85011261037c5760008081fd5b8a840135898111156103905761039061020f565b6103a08c84601f8401160161024e565b92508083528e848287010111156103b75760008081fd5b808486018d85013760009083018c0152808b01919091528452505091860191908601906102ff565b9998505050505050505050565b60005b838110156104075781810151838201526020016103ef565b50506000910152565b6000602080830181845280855180835260408601915060408160051b870101925083870160005b8281101561047d57878503603f190184528151805180875261045e818989018a85016103ec565b601f01601f191695909501860194509285019290850190600101610437565b5092979650505050505050565b634e487b7160e01b600052603260045260246000fd5b600082516104b28184602087016103ec565b919091019291505056fea2646970667358221220a97466757363f86c0d26b0b795ad549220c5f5ca91a332c72ae56e1dc463817664736f6c63430008160033",
  "devdoc": {
    "kind": "dev",
    "methods": {},
    "version": 1
  },
  "userdoc": {
    "kind": "user",
    "methods": {},
    "version": 1
  },
  "storageLayout": {
    "storage": [],
    "types": null
  }
}