{
  "address": "0x6934B8B5f1BCb1f864f0aB760baa393eE1BCC253",
  "abi": [
    {
      "inputs": [
        {
          "internalType": "address",
          "name": "_wBNB",
          "type": "address"
        },
        {
          "internalType": "address",
          "name": "_router",
          "type": "address"
        }
      ],
      "stateMutability": "nonpayable",
      "type": "constructor"
    },
    {
      "inputs": [],
      "name": "AccessControlBadConfirmation",
      "type": "error"
    },
    {
      "inputs": [
        {
          "internalType": "address",
          "name": "account",
          "type": "address"
        },
        {
          "internalType": "bytes32",
          "name": "neededRole",
          "type": "bytes32"
        }
      ],
      "name": "AccessControlUnauthorizedAccount",
      "type": "error"
    },
    {
      "inputs": [
        {
          "internalType": "address",
          "name": "target",
          "type": "address"
        }
      ],
      "name": "AddressEmptyCode",
      "type": "error"
    },
    {
      "inputs": [
        {
          "internalType": "address",
          "name": "implementation",
          "type": "address"
        }
      ],
      "name": "ERC1967InvalidImplementation",
      "type": "error"
    },
    {
      "inputs": [],
      "name": "ERC1967NonPayable",
      "type": "error"
    },
    {
      "inputs": [
        {
          "internalType": "address",
          "name": "spender",
          "type": "address"
        },
        {
          "internalType": "uint256",
          "name": "allowance",
          "type": "uint256"
        },
        {
          "internalType": "uint256",
          "name": "needed",
          "type": "uint256"
        }
      ],
      "name": "ERC20InsufficientAllowance",
      "type": "error"
    },
    {
      "inputs": [
        {
          "internalType": "address",
          "name": "sender",
          "type": "address"
        },
        {
          "internalType": "uint256",
          "name": "balance",
          "type": "uint256"
        },
        {
          "internalType": "uint256",
          "name": "needed",
          "type": "uint256"
        }
      ],
      "name": "ERC20InsufficientBalance",
      "type": "error"
    },
    {
      "inputs": [
        {
          "internalType": "address",
          "name": "approver",
          "type": "address"
        }
      ],
      "name": "ERC20InvalidApprover",
      "type": "error"
    },
    {
      "inputs": [
        {
          "internalType": "address",
          "name": "receiver",
          "type": "address"
        }
      ],
      "name": "ERC20InvalidReceiver",
      "type": "error"
    },
    {
      "inputs": [
        {
          "internalType": "address",
          "name": "sender",
          "type": "address"
        }
      ],
      "name": "ERC20InvalidSender",
      "type": "error"
    },
    {
      "inputs": [
        {
          "internalType": "address",
          "name": "spender",
          "type": "address"
        }
      ],
      "name": "ERC20InvalidSpender",
      "type": "error"
    },
    {
      "inputs": [],
      "name": "FailedCall",
      "type": "error"
    },
    {
      "inputs": [],
      "name": "InvalidInitialization",
      "type": "error"
    },
    {
      "inputs": [],
      "name": "NotInitializing",
      "type": "error"
    },
    {
      "inputs": [],
      "name": "UUPSUnauthorizedCallContext",
      "type": "error"
    },
    {
      "inputs": [
        {
          "internalType": "bytes32",
          "name": "slot",
          "type": "bytes32"
        }
      ],
      "name": "UUPSUnsupportedProxiableUUID",
      "type": "error"
    },
    {
      "anonymous": false,
      "inputs": [
        {
          "indexed": true,
          "internalType": "address",
          "name": "owner",
          "type": "address"
        },
        {
          "indexed": true,
          "internalType": "address",
          "name": "spender",
          "type": "address"
        },
        {
          "indexed": false,
          "internalType": "uint256",
          "name": "value",
          "type": "uint256"
        }
      ],
      "name": "Approval",
      "type": "event"
    },
    {
      "anonymous": false,
      "inputs": [
        {
          "indexed": true,
          "internalType": "address",
          "name": "from",
          "type": "address"
        },
        {
          "indexed": false,
          "internalType": "uint256",
          "name": "usdtValue",
          "type": "uint256"
        },
        {
          "indexed": false,
          "internalType": "uint256",
          "name": "bnbValue",
          "type": "uint256"
        }
      ],
      "name": "Deposit",
      "type": "event"
    },
    {
      "anonymous": false,
      "inputs": [
        {
          "indexed": false,
          "internalType": "uint64",
          "name": "version",
          "type": "uint64"
        }
      ],
      "name": "Initialized",
      "type": "event"
    },
    {
      "anonymous": false,
      "inputs": [
        {
          "indexed": true,
          "internalType": "address",
          "name": "user",
          "type": "address"
        },
        {
          "indexed": false,
          "internalType": "uint256",
          "name": "labubuPrice",
          "type": "uint256"
        },
        {
          "indexed": false,
          "internalType": "uint256",
          "name": "backAmount",
          "type": "uint256"
        },
        {
          "indexed": false,
          "internalType": "uint256",
          "name": "burnAmount",
          "type": "uint256"
        }
      ],
      "name": "LpRedeemed",
      "type": "event"
    },
    {
      "anonymous": false,
      "inputs": [
        {
          "indexed": true,
          "internalType": "bytes32",
          "name": "role",
          "type": "bytes32"
        },
        {
          "indexed": true,
          "internalType": "bytes32",
          "name": "previousAdminRole",
          "type": "bytes32"
        },
        {
          "indexed": true,
          "internalType": "bytes32",
          "name": "newAdminRole",
          "type": "bytes32"
        }
      ],
      "name": "RoleAdminChanged",
      "type": "event"
    },
    {
      "anonymous": false,
      "inputs": [
        {
          "indexed": true,
          "internalType": "bytes32",
          "name": "role",
          "type": "bytes32"
        },
        {
          "indexed": true,
          "internalType": "address",
          "name": "account",
          "type": "address"
        },
        {
          "indexed": true,
          "internalType": "address",
          "name": "sender",
          "type": "address"
        }
      ],
      "name": "RoleGranted",
      "type": "event"
    },
    {
      "anonymous": false,
      "inputs": [
        {
          "indexed": true,
          "internalType": "bytes32",
          "name": "role",
          "type": "bytes32"
        },
        {
          "indexed": true,
          "internalType": "address",
          "name": "account",
          "type": "address"
        },
        {
          "indexed": true,
          "internalType": "address",
          "name": "sender",
          "type": "address"
        }
      ],
      "name": "RoleRevoked",
      "type": "event"
    },
    {
      "anonymous": false,
      "inputs": [
        {
          "indexed": true,
          "internalType": "address",
          "name": "from",
          "type": "address"
        },
        {
          "indexed": true,
          "internalType": "address",
          "name": "to",
          "type": "address"
        },
        {
          "indexed": false,
          "internalType": "uint256",
          "name": "value",
          "type": "uint256"
        }
      ],
      "name": "Transfer",
      "type": "event"
    },
    {
      "anonymous": false,
      "inputs": [
        {
          "indexed": true,
          "internalType": "uint256",
          "name": "liquidityPairBalance",
          "type": "uint256"
        },
        {
          "indexed": true,
          "internalType": "uint256",
          "name": "burnAmount",
          "type": "uint256"
        },
        {
          "indexed": true,
          "internalType": "uint256",
          "name": "holdLPAwardAmount",
          "type": "uint256"
        }
      ],
      "name": "TriggerDailyBurnAndMint",
      "type": "event"
    },
    {
      "anonymous": false,
      "inputs": [
        {
          "indexed": true,
          "internalType": "address",
          "name": "implementation",
          "type": "address"
        }
      ],
      "name": "Upgraded",
      "type": "event"
    },
    {
      "anonymous": false,
      "inputs": [
        {
          "indexed": true,
          "internalType": "address",
          "name": "token",
          "type": "address"
        },
        {
          "indexed": true,
          "internalType": "address",
          "name": "receiver",
          "type": "address"
        },
        {
          "indexed": true,
          "internalType": "uint256",
          "name": "amount",
          "type": "uint256"
        }
      ],
      "name": "WithdrawalToken",
      "type": "event"
    },
    {
      "inputs": [],
      "name": "BASE_PERCENT",
      "outputs": [
        {
          "internalType": "uint256",
          "name": "",
          "type": "uint256"
        }
      ],
      "stateMutability": "view",
      "type": "function"
    },
    {
      "inputs": [],
      "name": "BLACK_ADDRESS",
      "outputs": [
        {
          "internalType": "address",
          "name": "",
          "type": "address"
        }
      ],
      "stateMutability": "view",
      "type": "function"
    },
    {
      "inputs": [],
      "name": "BUY_MIDDLEWARE",
      "outputs": [
        {
          "internalType": "address",
          "name": "",
          "type": "address"
        }
      ],
      "stateMutability": "view",
      "type": "function"
    },
    {
      "inputs": [],
      "name": "DEFAULT_ADMIN_ROLE",
      "outputs": [
        {
          "internalType": "bytes32",
          "name": "",
          "type": "bytes32"
        }
      ],
      "stateMutability": "view",
      "type": "function"
    },
    {
      "inputs": [],
      "name": "MARKET_INCENTIVES",
      "outputs": [
        {
          "internalType": "uint256",
          "name": "",
          "type": "uint256"
        }
      ],
      "stateMutability": "view",
      "type": "function"
    },
    {
      "inputs": [],
      "name": "MIN_AMOUNT",
      "outputs": [
        {
          "internalType": "uint256",
          "name": "",
          "type": "uint256"
        }
      ],
      "stateMutability": "view",
      "type": "function"
    },
    {
      "inputs": [],
      "name": "SELL_MIDDLEWARE",
      "outputs": [
        {
          "internalType": "address",
          "name": "",
          "type": "address"
        }
      ],
      "stateMutability": "view",
      "type": "function"
    },
    {
      "inputs": [],
      "name": "UPGRADE_INTERFACE_VERSION",
      "outputs": [
        {
          "internalType": "string",
          "name": "",
          "type": "string"
        }
      ],
      "stateMutability": "view",
      "type": "function"
    },
    {
      "inputs": [
        {
          "internalType": "address",
          "name": "",
          "type": "address"
        }
      ],
      "name": "accountLpAmount",
      "outputs": [
        {
          "internalType": "uint256",
          "name": "",
          "type": "uint256"
        }
      ],
      "stateMutability": "view",
      "type": "function"
    },
    {
      "inputs": [
        {
          "internalType": "address",
          "name": "",
          "type": "address"
        }
      ],
      "name": "accountSales",
      "outputs": [
        {
          "internalType": "uint256",
          "name": "",
          "type": "uint256"
        }
      ],
      "stateMutability": "view",
      "type": "function"
    },
    {
      "inputs": [
        {
          "internalType": "address",
          "name": "",
          "type": "address"
        }
      ],
      "name": "addLiquidityUnlockTime",
      "outputs": [
        {
          "internalType": "uint256",
          "name": "",
          "type": "uint256"
        }
      ],
      "stateMutability": "view",
      "type": "function"
    },
    {
      "inputs": [
        {
          "internalType": "address",
          "name": "owner",
          "type": "address"
        },
        {
          "internalType": "address",
          "name": "spender",
          "type": "address"
        }
      ],
      "name": "allowance",
      "outputs": [
        {
          "internalType": "uint256",
          "name": "",
          "type": "uint256"
        }
      ],
      "stateMutability": "view",
      "type": "function"
    },
    {
      "inputs": [
        {
          "internalType": "address",
          "name": "spender",
          "type": "address"
        },
        {
          "internalType": "uint256",
          "name": "value",
          "type": "uint256"
        }
      ],
      "name": "approve",
      "outputs": [
        {
          "internalType": "bool",
          "name": "",
          "type": "bool"
        }
      ],
      "stateMutability": "nonpayable",
      "type": "function"
    },
    {
      "inputs": [
        {
          "internalType": "address",
          "name": "account",
          "type": "address"
        }
      ],
      "name": "balanceOf",
      "outputs": [
        {
          "internalType": "uint256",
          "name": "",
          "type": "uint256"
        }
      ],
      "stateMutability": "view",
      "type": "function"
    },
    {
      "inputs": [],
      "name": "bnbTokenAddress",
      "outputs": [
        {
          "internalType": "address",
          "name": "",
          "type": "address"
        }
      ],
      "stateMutability": "view",
      "type": "function"
    },
    {
      "inputs": [],
      "name": "burnAndMintSwitch",
      "outputs": [
        {
          "internalType": "bool",
          "name": "",
          "type": "bool"
        }
      ],
      "stateMutability": "view",
      "type": "function"
    },
    {
      "inputs": [
        {
          "internalType": "uint256",
          "name": "lububuAmount",
          "type": "uint256"
        }
      ],
      "name": "calLiquidityByLububu",
      "outputs": [
        {
          "internalType": "uint256",
          "name": "",
          "type": "uint256"
        }
      ],
      "stateMutability": "view",
      "type": "function"
    },
    {
      "inputs": [
        {
          "internalType": "uint256",
          "name": "",
          "type": "uint256"
        }
      ],
      "name": "dailyBurnRate",
      "outputs": [
        {
          "internalType": "uint16",
          "name": "",
          "type": "uint16"
        }
      ],
      "stateMutability": "view",
      "type": "function"
    },
    {
      "inputs": [
        {
          "internalType": "uint256",
          "name": "",
          "type": "uint256"
        }
      ],
      "name": "dailyBurned",
      "outputs": [
        {
          "internalType": "bool",
          "name": "",
          "type": "bool"
        }
      ],
      "stateMutability": "view",
      "type": "function"
    },
    {
      "inputs": [],
      "name": "decimals",
      "outputs": [
        {
          "internalType": "uint8",
          "name": "",
          "type": "uint8"
        }
      ],
      "stateMutability": "view",
      "type": "function"
    },
    {
      "inputs": [],
      "name": "deflationAddress",
      "outputs": [
        {
          "internalType": "address",
          "name": "",
          "type": "address"
        }
      ],
      "stateMutability": "view",
      "type": "function"
    },
    {
      "inputs": [],
      "name": "deposit",
      "outputs": [
        {
          "internalType": "uint256",
          "name": "",
          "type": "uint256"
        }
      ],
      "stateMutability": "payable",
      "type": "function"
    },
    {
      "inputs": [],
      "name": "depositFeeAddress",
      "outputs": [
        {
          "internalType": "address",
          "name": "",
          "type": "address"
        }
      ],
      "stateMutability": "view",
      "type": "function"
    },
    {
      "inputs": [
        {
          "internalType": "bytes32",
          "name": "role",
          "type": "bytes32"
        }
      ],
      "name": "getRoleAdmin",
      "outputs": [
        {
          "internalType": "bytes32",
          "name": "",
          "type": "bytes32"
        }
      ],
      "stateMutability": "view",
      "type": "function"
    },
    {
      "inputs": [
        {
          "internalType": "bytes32",
          "name": "role",
          "type": "bytes32"
        },
        {
          "internalType": "uint256",
          "name": "index",
          "type": "uint256"
        }
      ],
      "name": "getRoleMember",
      "outputs": [
        {
          "internalType": "address",
          "name": "",
          "type": "address"
        }
      ],
      "stateMutability": "view",
      "type": "function"
    },
    {
      "inputs": [
        {
          "internalType": "bytes32",
          "name": "role",
          "type": "bytes32"
        }
      ],
      "name": "getRoleMemberCount",
      "outputs": [
        {
          "internalType": "uint256",
          "name": "",
          "type": "uint256"
        }
      ],
      "stateMutability": "view",
      "type": "function"
    },
    {
      "inputs": [
        {
          "internalType": "bytes32",
          "name": "role",
          "type": "bytes32"
        }
      ],
      "name": "getRoleMembers",
      "outputs": [
        {
          "internalType": "address[]",
          "name": "",
          "type": "address[]"
        }
      ],
      "stateMutability": "view",
      "type": "function"
    },
    {
      "inputs": [
        {
          "internalType": "address",
          "name": "from",
          "type": "address"
        },
        {
          "internalType": "address",
          "name": "to",
          "type": "address"
        }
      ],
      "name": "getTransferType",
      "outputs": [
        {
          "internalType": "enum SkyLabubu.TransferType",
          "name": "",
          "type": "uint8"
        }
      ],
      "stateMutability": "view",
      "type": "function"
    },
    {
      "inputs": [
        {
          "internalType": "bytes32",
          "name": "role",
          "type": "bytes32"
        },
        {
          "internalType": "address",
          "name": "account",
          "type": "address"
        }
      ],
      "name": "grantRole",
      "outputs": [],
      "stateMutability": "nonpayable",
      "type": "function"
    },
    {
      "inputs": [
        {
          "internalType": "bytes32",
          "name": "role",
          "type": "bytes32"
        },
        {
          "internalType": "address",
          "name": "account",
          "type": "address"
        }
      ],
      "name": "hasRole",
      "outputs": [
        {
          "internalType": "bool",
          "name": "",
          "type": "bool"
        }
      ],
      "stateMutability": "view",
      "type": "function"
    },
    {
      "inputs": [
        {
          "internalType": "address",
          "name": "_minter",
          "type": "address"
        },
        {
          "internalType": "address",
          "name": "_sellFeeAddress",
          "type": "address"
        },
        {
          "internalType": "address",
          "name": "_deflationAddress",
          "type": "address"
        },
        {
          "internalType": "address",
          "name": "_depositFeeAddress",
          "type": "address"
        },
        {
          "internalType": "contract ILabubuNFT",
          "name": "_nft",
          "type": "address"
        },
        {
          "internalType": "contract IRegisterV2",
          "name": "_registerV2",
          "type": "address"
        }
      ],
      "name": "initialize",
      "outputs": [],
      "stateMutability": "nonpayable",
      "type": "function"
    },
    {
      "inputs": [
        {
          "internalType": "address",
          "name": "account",
          "type": "address"
        }
      ],
      "name": "isBlacklisted",
      "outputs": [
        {
          "internalType": "bool",
          "name": "",
          "type": "bool"
        }
      ],
      "stateMutability": "view",
      "type": "function"
    },
    {
      "inputs": [
        {
          "internalType": "address",
          "name": "account",
          "type": "address"
        }
      ],
      "name": "isTaxExempt",
      "outputs": [
        {
          "internalType": "bool",
          "name": "",
          "type": "bool"
        }
      ],
      "stateMutability": "view",
      "type": "function"
    },
    {
      "inputs": [],
      "name": "maxAmount",
      "outputs": [
        {
          "internalType": "uint256",
          "name": "",
          "type": "uint256"
        }
      ],
      "stateMutability": "view",
      "type": "function"
    },
    {
      "inputs": [],
      "name": "name",
      "outputs": [
        {
          "internalType": "string",
          "name": "",
          "type": "string"
        }
      ],
      "stateMutability": "view",
      "type": "function"
    },
    {
      "inputs": [],
      "name": "nft",
      "outputs": [
        {
          "internalType": "contract ILabubuNFT",
          "name": "",
          "type": "address"
        }
      ],
      "stateMutability": "view",
      "type": "function"
    },
    {
      "inputs": [],
      "name": "oracle",
      "outputs": [
        {
          "internalType": "contract ILabubuOracle",
          "name": "",
          "type": "address"
        }
      ],
      "stateMutability": "view",
      "type": "function"
    },
    {
      "inputs": [],
      "name": "pancakePair",
      "outputs": [
        {
          "internalType": "address",
          "name": "",
          "type": "address"
        }
      ],
      "stateMutability": "view",
      "type": "function"
    },
    {
      "inputs": [],
      "name": "pancakeV2Router",
      "outputs": [
        {
          "internalType": "address",
          "name": "",
          "type": "address"
        }
      ],
      "stateMutability": "view",
      "type": "function"
    },
    {
      "inputs": [],
      "name": "proxiableUUID",
      "outputs": [
        {
          "internalType": "bytes32",
          "name": "",
          "type": "bytes32"
        }
      ],
      "stateMutability": "view",
      "type": "function"
    },
    {
      "inputs": [],
      "name": "recoupment",
      "outputs": [
        {
          "internalType": "contract ILabubuRecoupment",
          "name": "",
          "type": "address"
        }
      ],
      "stateMutability": "view",
      "type": "function"
    },
    {
      "inputs": [],
      "name": "registerV2",
      "outputs": [
        {
          "internalType": "contract IRegisterV2",
          "name": "",
          "type": "address"
        }
      ],
      "stateMutability": "view",
      "type": "function"
    },
    {
      "inputs": [
        {
          "internalType": "uint256",
          "name": "",
          "type": "uint256"
        }
      ],
      "name": "removeLpBurnRate",
      "outputs": [
        {
          "internalType": "uint16",
          "name": "",
          "type": "uint16"
        }
      ],
      "stateMutability": "view",
      "type": "function"
    },
    {
      "inputs": [],
      "name": "removeLpSwitch",
      "outputs": [
        {
          "internalType": "bool",
          "name": "",
          "type": "bool"
        }
      ],
      "stateMutability": "view",
      "type": "function"
    },
    {
      "inputs": [
        {
          "internalType": "bytes32",
          "name": "role",
          "type": "bytes32"
        },
        {
          "internalType": "address",
          "name": "callerConfirmation",
          "type": "address"
        }
      ],
      "name": "renounceRole",
      "outputs": [],
      "stateMutability": "nonpayable",
      "type": "function"
    },
    {
      "inputs": [
        {
          "internalType": "bytes32",
          "name": "role",
          "type": "bytes32"
        },
        {
          "internalType": "address",
          "name": "account",
          "type": "address"
        }
      ],
      "name": "revokeRole",
      "outputs": [],
      "stateMutability": "nonpayable",
      "type": "function"
    },
    {
      "inputs": [],
      "name": "sellFeeAddress",
      "outputs": [
        {
          "internalType": "address",
          "name": "",
          "type": "address"
        }
      ],
      "stateMutability": "view",
      "type": "function"
    },
    {
      "inputs": [
        {
          "internalType": "bool",
          "name": "_switch",
          "type": "bool"
        }
      ],
      "name": "setBurnAndMintSwitch",
      "outputs": [],
      "stateMutability": "nonpayable",
      "type": "function"
    },
    {
      "inputs": [
        {
          "internalType": "uint16[3]",
          "name": "_burn",
          "type": "uint16[3]"
        }
      ],
      "name": "setDailBurnRate",
      "outputs": [],
      "stateMutability": "nonpayable",
      "type": "function"
    },
    {
      "inputs": [
        {
          "internalType": "address",
          "name": "_deflationAddress",
          "type": "address"
        }
      ],
      "name": "setDeflationAddress",
      "outputs": [],
      "stateMutability": "nonpayable",
      "type": "function"
    },
    {
      "inputs": [
        {
          "internalType": "uint256",
          "name": "amount",
          "type": "uint256"
        }
      ],
      "name": "setMaxAmount",
      "outputs": [],
      "stateMutability": "nonpayable",
      "type": "function"
    },
    {
      "inputs": [
        {
          "internalType": "contract ILabubuNFT",
          "name": "_nft",
          "type": "address"
        }
      ],
      "name": "setMintNFTAddress",
      "outputs": [],
      "stateMutability": "nonpayable",
      "type": "function"
    },
    {
      "inputs": [
        {
          "internalType": "contract ILabubuOracle",
          "name": "_oracle",
          "type": "address"
        }
      ],
      "name": "setOracle",
      "outputs": [],
      "stateMutability": "nonpayable",
      "type": "function"
    },
    {
      "inputs": [
        {
          "internalType": "contract ILabubuRecoupment",
          "name": "_recoupment",
          "type": "address"
        }
      ],
      "name": "setRecoupment",
      "outputs": [],
      "stateMutability": "nonpayable",
      "type": "function"
    },
    {
      "inputs": [
        {
          "internalType": "uint16[]",
          "name": "_burn",
          "type": "uint16[]"
        }
      ],
      "name": "setRemoveLpBurnRate",
      "outputs": [],
      "stateMutability": "nonpayable",
      "type": "function"
    },
    {
      "inputs": [
        {
          "internalType": "bool",
          "name": "_switch",
          "type": "bool"
        }
      ],
      "name": "setRemoveLpSwitch",
      "outputs": [],
      "stateMutability": "nonpayable",
      "type": "function"
    },
    {
      "inputs": [
        {
          "internalType": "bytes4",
          "name": "interfaceId",
          "type": "bytes4"
        }
      ],
      "name": "supportsInterface",
      "outputs": [
        {
          "internalType": "bool",
          "name": "",
          "type": "bool"
        }
      ],
      "stateMutability": "view",
      "type": "function"
    },
    {
      "inputs": [],
      "name": "symbol",
      "outputs": [
        {
          "internalType": "string",
          "name": "",
          "type": "string"
        }
      ],
      "stateMutability": "view",
      "type": "function"
    },
    {
      "inputs": [],
      "name": "totalSupply",
      "outputs": [
        {
          "internalType": "uint256",
          "name": "",
          "type": "uint256"
        }
      ],
      "stateMutability": "view",
      "type": "function"
    },
    {
      "inputs": [
        {
          "internalType": "address",
          "name": "to",
          "type": "address"
        },
        {
          "internalType": "uint256",
          "name": "value",
          "type": "uint256"
        }
      ],
      "name": "transfer",
      "outputs": [
        {
          "internalType": "bool",
          "name": "",
          "type": "bool"
        }
      ],
      "stateMutability": "nonpayable",
      "type": "function"
    },
    {
      "inputs": [
        {
          "internalType": "address",
          "name": "from",
          "type": "address"
        },
        {
          "internalType": "address",
          "name": "to",
          "type": "address"
        },
        {
          "internalType": "uint256",
          "name": "value",
          "type": "uint256"
        }
      ],
      "name": "transferFrom",
      "outputs": [
        {
          "internalType": "bool",
          "name": "",
          "type": "bool"
        }
      ],
      "stateMutability": "nonpayable",
      "type": "function"
    },
    {
      "inputs": [],
      "name": "triggerDailyBurnAndMint",
      "outputs": [],
      "stateMutability": "nonpayable",
      "type": "function"
    },
    {
      "inputs": [
        {
          "internalType": "address",
          "name": "newImplementation",
          "type": "address"
        }
      ],
      "name": "upgradeTo",
      "outputs": [],
      "stateMutability": "nonpayable",
      "type": "function"
    },
    {
      "inputs": [
        {
          "internalType": "address",
          "name": "newImplementation",
          "type": "address"
        },
        {
          "internalType": "bytes",
          "name": "data",
          "type": "bytes"
        }
      ],
      "name": "upgradeToAndCall",
      "outputs": [],
      "stateMutability": "payable",
      "type": "function"
    },
    {
      "inputs": [
        {
          "internalType": "address",
          "name": "recipient",
          "type": "address"
        },
        {
          "internalType": "uint256",
          "name": "value",
          "type": "uint256"
        }
      ],
      "name": "withdrawEth",
      "outputs": [],
      "stateMutability": "nonpayable",
      "type": "function"
    },
    {
      "inputs": [
        {
          "internalType": "address",
          "name": "token",
          "type": "address"
        },
        {
          "internalType": "address",
          "name": "receiver",
          "type": "address"
        },
        {
          "internalType": "uint256",
          "name": "amount",
          "type": "uint256"
        }
      ],
      "name": "withdrawalToken",
      "outputs": [],
      "stateMutability": "nonpayable",
      "type": "function"
    },
    {
      "stateMutability": "payable",
      "type": "receive"
    }
  ],
  "transactionHash": "0x4eb53d8e7643977dc82fa547fc34a3d3e354891735add82fcb656382f0a51524",
  "args": [
    "0xbb4CdB9CBd36B01bD1cBaEBF2De08d9173bc095c",
    "0x10ED43C718714eb63d5aA57B78B54704E256024E"
  ],
  "numDeployments": 1,
  "solcInputHash": "50a59bf805ab07e035cae7484d04c2af",
  "bytecode": "0x60e0604052306080523480156200001557600080fd5b5060405162004de338038062004de383398101604081905262000038916200012b565b620000426200005a565b6001600160a01b0391821660a0521660c05262000163565b7ff0c57e16840df040f15088dc2f81fe391c3923bec73e23a9662efc9c229c6a00805468010000000000000000900460ff1615620000ab5760405163f92ee8a960e01b815260040160405180910390fd5b80546001600160401b03908116146200010b5780546001600160401b0319166001600160401b0390811782556040519081527fc7f505b2f371ae2175ee4913f4499e1f2633a7b5936321eed1cdaeb6115181d29060200160405180910390a15b50565b80516001600160a01b03811681146200012657600080fd5b919050565b600080604083850312156200013f57600080fd5b6200014a836200010e565b91506200015a602084016200010e565b90509250929050565b60805160a05160c051614be0620002036000396000818161051a01528181611d6d01528181611e9601528181611ed401528181612717015281816128ba0152614010015260008181610aeb01528181610f73015281816117e701528181611c0701528181611df901528181611f040152818161268c015281816128e10152613fc6015260008181612e8101528181612eaa01526130ab0152614be06000f3fe6080604052600436106103dd5760003560e01c80637adbf973116101fd578063a9059cbb11610118578063d547741f116100ab578063e02a1fd31161007a578063e02a1fd314610c10578063e5c9442314610c30578063e876952514610c50578063f466323514610c6a578063fe575a8714610c8057600080fd5b8063d547741f14610b94578063d6c2a84a14610bb4578063dd62ed3e14610bd4578063ddbcb5fa14610bf457600080fd5b8063c78d61b3116100e7578063c78d61b314610b2d578063ca15c87314610b4c578063cc2a9a5b14610b6c578063d0e30db014610b8c57600080fd5b8063a9059cbb14610a88578063ad3cb1cc14610aa8578063b3b640df14610ad9578063b8c9d25c14610b0d57600080fd5b8063a064a03a11610190578063a3246ad31161015f578063a3246ad3146109fb578063a7ef23d714610a28578063a7fd2b3f14610a48578063a8f33d3714610a6857600080fd5b8063a064a03a14610991578063a16f0198146109b1578063a217fddf146109c6578063a31966f6146109db57600080fd5b806391d14854116101cc57806391d148541461090f57806395d89b411461092f57806399e58734146109445780639f5ae5c31461097157600080fd5b80637adbf973146108825780637dc0d1d0146108a257806383f53259146108c25780639010d07c146108ef57600080fd5b806336568abe116102f8578063535757591161028b57806364a1fa2c1161025a57806364a1fa2c14610795578063651ad7d5146107c557806365b096dc146107e55780636d2b739b1461081257806370a082311461083f57600080fd5b80635357575914610729578063592470cd146107495780635f48f3931461076957806362f3765e1461077f57600080fd5b806347ccca02116102c757806347ccca02146106c15780634f1ef286146106e15780634fe47f70146106f457806352d1902d1461071457600080fd5b806336568abe1461064b5780633659cfe61461066b5780633c3cb5151461068b578063403f6fc0146106ab57600080fd5b80631b9a91a41161037057806327af97ee1161033f57806327af97ee146105bc5780632cddf04a146105dc5780632f2ff15d1461060f578063313ce5671461062f57600080fd5b80631b9a91a41461053c5780631cb74eca1461055c57806323b872dd1461057c578063248a9ca31461059c57600080fd5b806318160ddd116103ac57806318160ddd146104885780631847cc20146104c657806319b9d574146104db5780631a4cd1b11461050857600080fd5b806301ffc9a7146103f157806306fdde0314610426578063095ea7b31461044857806316c2be6b1461046857600080fd5b366103ec576103ea610ca0565b005b600080fd5b3480156103fd57600080fd5b5061041161040c3660046141ea565b61103f565b60405190151581526020015b60405180910390f35b34801561043257600080fd5b5061043b61106a565b60405161041d9190614238565b34801561045457600080fd5b50610411610463366004614280565b61112d565b34801561047457600080fd5b506104116104833660046142ac565b611145565b34801561049457600080fd5b507f52c63247e1f47db19d5ce0460030c497f067ca4cebf71ba98eeadabe20bace02545b60405190815260200161041d565b3480156104d257600080fd5b506103ea611171565b3480156104e757600080fd5b506104f0600281565b6040516001600160a01b03909116815260200161041d565b34801561051457600080fd5b506104f07f000000000000000000000000000000000000000000000000000000000000000081565b34801561054857600080fd5b506103ea610557366004614280565b611410565b34801561056857600080fd5b506004546104f0906001600160a01b031681565b34801561058857600080fd5b506104116105973660046142c9565b6114b2565b3480156105a857600080fd5b506104b86105b736600461430a565b6114d8565b3480156105c857600080fd5b506002546104f0906001600160a01b031681565b3480156105e857600080fd5b506105fc6105f736600461430a565b6114fa565b60405161ffff909116815260200161041d565b34801561061b57600080fd5b506103ea61062a366004614323565b611528565b34801561063b57600080fd5b506040516012815260200161041d565b34801561065757600080fd5b506103ea610666366004614323565b61154a565b34801561067757600080fd5b506103ea6106863660046142ac565b611582565b34801561069757600080fd5b506103ea6106a63660046142c9565b61159e565b3480156106b757600080fd5b506104b8610fa081565b3480156106cd57600080fd5b506001546104f0906001600160a01b031681565b6103ea6106ef366004614369565b611671565b34801561070057600080fd5b506103ea61070f36600461430a565b611690565b34801561072057600080fd5b506104b86116ae565b34801561073557600080fd5b506103ea61074436600461443b565b6116cb565b34801561075557600080fd5b506103ea6107643660046142ac565b6116f7565b34801561077557600080fd5b506104b860005481565b34801561078b57600080fd5b506104b861271081565b3480156107a157600080fd5b506104116107b036600461430a565b600e6020526000908152604090205460ff1681565b3480156107d157600080fd5b506103ea6107e036600461443b565b61173f565b3480156107f157600080fd5b506104b86108003660046142ac565b60096020526000908152604090205481565b34801561081e57600080fd5b5061083261082d366004614458565b611772565b60405161041d919061449c565b34801561084b57600080fd5b506104b861085a3660046142ac565b6001600160a01b03166000908152600080516020614b2b833981519152602052604090205490565b34801561088e57600080fd5b506103ea61089d3660046142ac565b611900565b3480156108ae57600080fd5b506003546104f0906001600160a01b031681565b3480156108ce57600080fd5b506104b86108dd3660046142ac565b600a6020526000908152604090205481565b3480156108fb57600080fd5b506104f061090a3660046144c4565b61193b565b34801561091b57600080fd5b5061041161092a366004614323565b61196a565b34801561093b57600080fd5b5061043b6119a2565b34801561095057600080fd5b506104b861095f3660046142ac565b600b6020526000908152604090205481565b34801561097d57600080fd5b506103ea61098c3660046142ac565b6119e1565b34801561099d57600080fd5b506103ea6109ac3660046144e6565b611a1c565b3480156109bd57600080fd5b506104f0600181565b3480156109d257600080fd5b506104b8600081565b3480156109e757600080fd5b506005546104f0906001600160a01b031681565b348015610a0757600080fd5b50610a1b610a1636600461430a565b611abe565b60405161041d9190614553565b348015610a3457600080fd5b506103ea610a433660046142ac565b611ae9565b348015610a5457600080fd5b506007546104f0906001600160a01b031681565b348015610a7457600080fd5b506006546104f0906001600160a01b031681565b348015610a9457600080fd5b50610411610aa3366004614280565b611b24565b348015610ab457600080fd5b5061043b604051806040016040528060058152602001640352e302e360dc1b81525081565b348015610ae557600080fd5b506104f07f000000000000000000000000000000000000000000000000000000000000000081565b348015610b1957600080fd5b506008546104f0906001600160a01b031681565b348015610b3957600080fd5b50600f5461041190610100900460ff1681565b348015610b5857600080fd5b506104b8610b6736600461430a565b611b32565b348015610b7857600080fd5b506103ea610b87366004614566565b611b58565b6104b8610ca0565b348015610ba057600080fd5b506103ea610baf366004614323565b6120fa565b348015610bc057600080fd5b506103ea610bcf3660046145e8565b612116565b348015610be057600080fd5b506104b8610bef366004614458565b6121b2565b348015610c0057600080fd5b506104b867016345785d8a000081565b348015610c1c57600080fd5b506105fc610c2b36600461430a565b6121fc565b348015610c3c57600080fd5b506104b8610c4b36600461430a565b612234565b348015610c5c57600080fd5b50600f546104119060ff1681565b348015610c7657600080fd5b506104f061dead81565b348015610c8c57600080fd5b50610411610c9b3660046142ac565b61234c565b60015460405163387777d760e21b8152336004820152346024820181905260009290916001600160a01b039091169063e1dddf5c90604401600060405180830381600087803b158015610cf257600080fd5b505af1158015610d06573d6000803e3d6000fd5b5050505080670853a0d2313c000003610d92576001546040516340d097c360e01b81523360048201526001600160a01b03909116906340d097c390839060240160206040518083038185885af1158015610d64573d6000803e3d6000fd5b50505050506040513d601f19601f82011682018060405250810190610d89919061465d565b50600091505090565b67016345785d8a0000811080610da9575060005481115b80610dc557506000610dc367016345785d8a00008361468c565b115b15610e005760405162461bcd60e51b81526020600482015260066024820152652176616c756560d01b60448201526064015b60405180910390fd5b6004805460405163b2dd5c0760e01b815233928101929092526001600160a01b03169063b2dd5c0790602401602060405180830381865afa158015610e49573d6000803e3d6000fd5b505050506040513d601f19601f82011682018060405250810190610e6d91906146a0565b610ea75760405162461bcd60e51b815260206004820152600b60248201526a085c9959da5cdd195c995960aa1b6044820152606401610df7565b3360009081526009602052604081208054839290610ec69084906146d3565b90915550506000805433825260096020526040909120541115610f175760405162461bcd60e51b81526020600482015260096024820152681b585e105b5bdd5b9d60ba1b6044820152606401610df7565b336000818152600a60205260409020429055610f339082612378565b6000610f4d612710610f4784610fa061251f565b906125a1565b90506000610f606002610f4785856125e3565b90506000610f6f308330612625565b90507f00000000000000000000000000000000000000000000000000000000000000006001600160a01b031663d0e30db0836040518263ffffffff1660e01b81526004016000604051808303818588803b158015610fcc57600080fd5b505af1158015610fe0573d6000803e3d6000fd5b50505050506000610ff283833361280d565b9050337f90890809c654f11d6e72a28fa60149770a0d11ec6c92319d6ceb2bb0a4ea1a1561101f87612a64565b60408051918252602082018990520160405180910390a295945050505050565b60006001600160e01b03198216635a05180f60e01b1480611064575061106482612af8565b92915050565b7f52c63247e1f47db19d5ce0460030c497f067ca4cebf71ba98eeadabe20bace038054606091600080516020614b2b833981519152916110a9906146e6565b80601f01602080910402602001604051908101604052809291908181526020018280546110d5906146e6565b80156111225780601f106110f757610100808354040283529160200191611122565b820191906000526020600020905b81548152906001019060200180831161110557829003601f168201915b505050505091505090565b60003361113b818585612b2d565b5060019392505050565b60006110647ff6bd60d666281445586442f3baa703c98c5b0fcab74fe9e61ffdb03e64be4c888361196a565b600f5460ff1661117d57565b600061118c620151804261471a565b611199906201518061472e565b6000818152600e602052604090205490915060ff16156111b65750565b6000818152600e6020526040808220805460ff1916600117905560085490516370a0823160e01b81526001600160a01b03909116600482015230906370a0823190602401602060405180830381865afa158015611217573d6000803e3d6000fd5b505050506040513d601f19601f8201168201806040525081019061123b919061465d565b905080600003611249575050565b600d546000906112669061271090610f4790859061ffff1661251f565b9050801561128757600854611287906001600160a01b031661dead83612b3a565b600d546000906112aa9061271090610f4790869062010000900461ffff1661251f565b905080156112cf576008546005546112cf916001600160a01b03908116911683612b3a565b600d546000906112f49061271090610f47908790640100000000900461ffff1661251f565b9050801561137257600854611313906001600160a01b03163083612b3a565b6002546040516363c5b6f560e11b8152600481018390526001600160a01b039091169063c78b6dea90602401600060405180830381600087803b15801561135957600080fd5b505af115801561136d573d6000803e3d6000fd5b505050505b8183857f64c67ac00a5faa5be134c7b634356b13ea9997cc8167f5de530559942a0e755c60405160405180910390a4600860009054906101000a90046001600160a01b03166001600160a01b031663fff6cae96040518163ffffffff1660e01b8152600401600060405180830381600087803b1580156113f157600080fd5b505af1158015611405573d6000803e3d6000fd5b505050505050505050565b600080516020614b8b83398151915261142881612c78565b8147101561146b5760405162461bcd60e51b815260206004820152601060248201526f24b739bab33334b1b4b2b73a1021272160811b6044820152606401610df7565b6114758383612c82565b60405182906001600160a01b038516906000907f0886ee76c4fcfcfd7f757fe6ef518b77bc91156422cfdc27932ec8c3eb06126f908290a4505050565b6000336114c0858285612d35565b6114cb858585612d96565b60019150505b9392505050565b6000908152600080516020614b6b833981519152602052604090206001015490565b600d816003811061150a57600080fd5b60109182820401919006600202915054906101000a900461ffff1681565b611531826114d8565b61153a81612c78565b6115448383612df5565b50505050565b6001600160a01b03811633146115735760405163334bd91960e11b815260040160405180910390fd5b61157d8282612e3a565b505050565b61159b8160405180602001604052806000815250611671565b50565b600080516020614b8b8339815191526115b681612c78565b60405163a9059cbb60e01b81526001600160a01b0384811660048301526024820184905285169063a9059cbb906044016020604051808303816000875af1158015611605573d6000803e3d6000fd5b505050506040513d601f19601f8201168201806040525081019061162991906146a0565b5081836001600160a01b0316856001600160a01b03167f0886ee76c4fcfcfd7f757fe6ef518b77bc91156422cfdc27932ec8c3eb06126f60405160405180910390a450505050565b611679612e76565b61168282612f1d565b61168c8282612fe3565b5050565b600080516020614b8b8339815191526116a881612c78565b50600055565b60006116b86130a0565b50600080516020614b4b83398151915290565b600080516020614b8b8339815191526116e381612c78565b50600f805460ff1916911515919091179055565b600080516020614b8b83398151915261170f81612c78565b61171c3083600019612b2d565b50600280546001600160a01b0319166001600160a01b0392909216919091179055565b600080516020614b8b83398151915261175781612c78565b50600f80549115156101000261ff0019909216919091179055565b60006000196001600160a01b0383160161178e57506002611064565b6008546001600160a01b03908116908316036117ac57506000611064565b6008546001600160a01b03908116908416036118f8576008546040516370a0823160e01b81526001600160a01b0391821660048201526000917f000000000000000000000000000000000000000000000000000000000000000016906370a0823190602401602060405180830381865afa15801561182e573d6000803e3d6000fd5b505050506040513d601f19601f82011682018060405250810190611852919061465d565b90506000600860009054906101000a90046001600160a01b03166001600160a01b0316630902f1ac6040518163ffffffff1660e01b8152600401606060405180830381865afa1580156118a9573d6000803e3d6000fd5b505050506040513d601f19601f820116820180604052508101906118cd9190614777565b50506001600160701b03169050808210156118ed57600192505050611064565b600392505050611064565b506004611064565b600080516020614b8b83398151915261191881612c78565b50600380546001600160a01b0319166001600160a01b0392909216919091179055565b6000828152600080516020614b0b83398151915260208190526040822061196290846130e9565b949350505050565b6000918252600080516020614b6b833981519152602090815260408084206001600160a01b0393909316845291905290205460ff1690565b7f52c63247e1f47db19d5ce0460030c497f067ca4cebf71ba98eeadabe20bace048054606091600080516020614b2b833981519152916110a9906146e6565b600080516020614b8b8339815191526119f981612c78565b50600180546001600160a01b0319166001600160a01b0392909216919091179055565b600080516020614b8b833981519152611a3481612c78565b611a4460608301604084016147c7565b611a5460408401602085016147c7565b611a6160208501856147c7565b611a6b91906147eb565b611a7591906147eb565b61ffff1660c814611ab15760405162461bcd60e51b8152600401610df7906020808252600490820152630213230360e41b604082015260600190565b61157d600d8360036140c5565b6000818152600080516020614b0b83398151915260208190526040909120606091906114d1906130f5565b600080516020614b8b833981519152611b0181612c78565b50600580546001600160a01b0319166001600160a01b0392909216919091179055565b60003361113b818585612d96565b6000818152600080516020614b0b8339815191526020819052604082206114d190613102565b6000611b6261310c565b805490915060ff600160401b820416159067ffffffffffffffff16600081158015611b8a5750825b905060008267ffffffffffffffff166001148015611ba75750303b155b905081158015611bb5575080155b15611bd35760405163f92ee8a960e01b815260040160405180910390fd5b845467ffffffffffffffff191660011785558315611bfd57845460ff60401b1916600160401b1785555b6001600160a01b037f0000000000000000000000000000000000000000000000000000000000000000163011611c5b5760405162461bcd60e51b81526020600482015260036024820152620859dd60ea1b6044820152606401610df7565b611c63613135565b611c6b613135565b611cb86040518060400160405280600a815260200169536b79204c616275627560b01b81525060405180604001604052806009815260200168536b794c616275627560b81b81525061313d565b611cc3600033612df5565b50611cee7fbb0e9981f3e0d8e82b96d842d9255c9c0326f67ccc118d7edc5365c9372ae9be33612df5565b50611d07600080516020614b8b83398151915233612df5565b50600180546001600160a01b03199081166001600160a01b038a8116919091179092556006805482168d84161790556005805482168c84161790556007805482168b8416179055600480549091168883161781556040805163c45a015560e01b815290517f00000000000000000000000000000000000000000000000000000000000000009093169263c45a0155928281019260209291908290030181865afa158015611db8573d6000803e3d6000fd5b505050506040513d601f19601f82011682018060405250810190611ddc9190614806565b6040516364e329cb60e11b81523060048201526001600160a01b037f000000000000000000000000000000000000000000000000000000000000000081166024830152919091169063c9c65396906044016020604051808303816000875af1158015611e4c573d6000803e3d6000fd5b505050506040513d601f19601f82011682018060405250810190611e709190614806565b600880546001600160a01b0319166001600160a01b0392909216919091179055611ebd307f0000000000000000000000000000000000000000000000000000000000000000600019612b2d565b60405163095ea7b360e01b81526001600160a01b037f00000000000000000000000000000000000000000000000000000000000000008116600483015260001960248301527f0000000000000000000000000000000000000000000000000000000000000000169063095ea7b3906044016020604051808303816000875af1158015611f4d573d6000803e3d6000fd5b505050506040513d601f19601f82011682018060405250810190611f7191906146a0565b50600c805460018181018355600083815260108084047fdf6966c971051c3d54ec59162606531493a51404a002842f56009d7e5cf4a8c790810180546002600f978816810261010090810a612328810261ffff918202199094169390931790935588548088018a5585810485018054918a168302850a611b5881029085021990921691909117905588548088018a5585810485018054918a168302850a611388810290850219909216919091179055885496870190985592850490910180549490951690950290940a610bb8810294021990911692909217905567016345785d8a0000815560408051606081018252606480825260208201939093529081019190915261208290600d90600361415f565b506120a78b6120936012600a614907565b6120a2906430e4f9b40061472e565b61314f565b83156120ed57845460ff60401b19168555604051600181527fc7f505b2f371ae2175ee4913f4499e1f2633a7b5936321eed1cdaeb6115181d29060200160405180910390a15b5050505050505050505050565b612103826114d8565b61210c81612c78565b6115448383612e3a565b600080516020614b8b83398151915261212e81612c78565b61213a600c60006141b4565b60005b8281101561154457600c84848381811061215957612159614745565b905060200201602081019061216e91906147c7565b8154600180820184556000938452602090932060108204018054600f9092166002026101000a61ffff8181021990931693909216919091029190911790550161213d565b6001600160a01b0391821660009081527f52c63247e1f47db19d5ce0460030c497f067ca4cebf71ba98eeadabe20bace016020908152604080832093909416825291909152205490565b600c818154811061220c57600080fd5b9060005260206000209060109182820401919006600202915054906101000a900461ffff1681565b600080600860009054906101000a90046001600160a01b03166001600160a01b03166318160ddd6040518163ffffffff1660e01b8152600401602060405180830381865afa15801561228a573d6000803e3d6000fd5b505050506040513d601f19601f820116820180604052508101906122ae919061465d565b90506000600860009054906101000a90046001600160a01b03166001600160a01b0316630902f1ac6040518163ffffffff1660e01b8152600401606060405180830381865afa158015612305573d6000803e3d6000fd5b505050506040513d601f19601f820116820180604052508101906123299190614777565b506001600160701b03169150819050612342838661472e565b611962919061471a565b60006110647f3424dc5ca6b3cf6dd87e69df719ea55d37c3b029e4042ebd09588944d252a0038361196a565b6001546001600160a01b03161580159061239c57506007546001600160a01b031615155b80156123b257506002546001600160a01b031615155b6123e35760405162461bcd60e51b8152602060048201526002602482015261021360f41b6044820152606401610df7565b60006123f7612710610f47846107d061251f565b600254604051630332026d60e31b81526001600160a01b03868116600483015292935091169063199013689083906024016000604051808303818588803b15801561244157600080fd5b505af1158015612455573d6000803e3d6000fd5b50505050506000612477612710610f476103e88661251f90919063ffffffff16565b9050600160009054906101000a90046001600160a01b03166001600160a01b0316631149a81a826040518263ffffffff1660e01b81526004016000604051808303818588803b1580156124c957600080fd5b505af11580156124dd573d6000803e3d6000fd5b505050505060006124ff612710610f476103e88761251f90919063ffffffff16565b600754909150612518906001600160a01b031682612c82565b5050505050565b60008260000361253157506000611064565b600061253d838561472e565b90508261254a858361471a565b146114d15760405162461bcd60e51b815260206004820152602160248201527f536166654d6174683a206d756c7469706c69636174696f6e206f766572666c6f6044820152607760f81b6064820152608401610df7565b60006114d183836040518060400160405280601a81526020017f536166654d6174683a206469766973696f6e206279207a65726f000000000000815250613185565b60006114d183836040518060400160405280601e81526020017f536166654d6174683a207375627472616374696f6e206f766572666c6f7700008152506131b3565b60008034116126695760405162461bcd60e51b815260206004820152601060248201526f053656e642045544820746f20737761760841b6044820152606401610df7565b6040805160028082526060820183526000926020830190803683370190505090507f0000000000000000000000000000000000000000000000000000000000000000816000815181106126be576126be614745565b60200260200101906001600160a01b031690816001600160a01b03168152505084816001815181106126f2576126f2614745565b6001600160a01b03928316602091820292909201015260405163b6f9de9560e01b81527f00000000000000000000000000000000000000000000000000000000000000009091169063b6f9de959086906127589060009086906002904290600401614916565b6000604051808303818588803b15801561277157600080fd5b505af1158015612785573d6000803e3d6000fd5b50506040516370a0823160e01b815260026004820152600093506001600160a01b03891692506370a082319150602401602060405180830381865afa1580156127d2573d6000803e3d6000fd5b505050506040513d601f19601f820116820180604052508101906127f6919061465d565b905061280460028583612b3a565b95945050505050565b600080841161285e5760405162461bcd60e51b815260206004820152601b60248201527f496e73756666696369656e7420746f6b656e412062616c616e636500000000006044820152606401610df7565b600083116128ae5760405162461bcd60e51b815260206004820152601b60248201527f496e73756666696369656e7420746f6b656e422062616c616e636500000000006044820152606401610df7565b60006001600160a01b037f00000000000000000000000000000000000000000000000000000000000000001663e8e337007f000000000000000000000000000000000000000000000000000000000000000030888886808a612912426102586146d3565b60405160e08a901b6001600160e01b03191681526001600160a01b039889166004820152968816602488015260448701959095526064860193909352608485019190915260a484015290921660c482015260e4810191909152610104016060604051808303816000875af115801561298e573d6000803e3d6000fd5b505050506040513d601f19601f820116820180604052508101906129b2919061494b565b6001600160a01b0386166000908152600b6020526040812080549295508594509250906129e09084906146d3565b90915550506002546001600160a01b038481166000818152600b6020526040908190205490516307e1321d60e51b81526004810192909252602482015291169063fc2643a090604401600060405180830381600087803b158015612a4357600080fd5b505af1158015612a57573d6000803e3d6000fd5b5092979650505050505050565b600064e8d4a5100082600360009054906101000a90046001600160a01b03166001600160a01b03166308760b0d6040518163ffffffff1660e01b8152600401602060405180830381865afa158015612ac0573d6000803e3d6000fd5b505050506040513d601f19601f82011682018060405250810190612ae4919061465d565b612aee919061472e565b611064919061471a565b60006001600160e01b03198216637965db0b60e01b148061106457506301ffc9a760e01b6001600160e01b0319831614611064565b61157d83838360016131e4565b600080516020614b2b8339815191526001600160a01b038416612b765781816002016000828254612b6b91906146d3565b90915550612be89050565b6001600160a01b03841660009081526020829052604090205482811015612bc95760405163391434e360e21b81526001600160a01b03861660048201526024810182905260448101849052606401610df7565b6001600160a01b03851660009081526020839052604090209083900390555b6001600160a01b038316612c06576002810180548390039055612c25565b6001600160a01b03831660009081526020829052604090208054830190555b826001600160a01b0316846001600160a01b03167fddf252ad1be2c89b69c2b068fc378daa952ba7f163c4a11628f55a4df523b3ef84604051612c6a91815260200190565b60405180910390a350505050565b61159b81336132cb565b604080516000808252602082019092526001600160a01b038416908390604051612cac9190614979565b60006040518083038185875af1925050503d8060008114612ce9576040519150601f19603f3d011682016040523d82523d6000602084013e612cee565b606091505b505090508061157d5760405162461bcd60e51b815260206004820152601360248201527211551217d514905394d1915497d19052531151606a1b6044820152606401610df7565b6000612d4184846121b2565b90506000198110156115445781811015612d8757604051637dc7a0d960e11b81526001600160a01b03841660048201526024810182905260448101839052606401610df7565b611544848484840360006131e4565b6001600160a01b038316612dc057604051634b637e8f60e11b815260006004820152602401610df7565b6001600160a01b038216612dea5760405163ec442f0560e01b815260006004820152602401610df7565b61157d838383613304565b6000600080516020614b0b83398151915281612e11858561389f565b90508015611962576000858152602083905260409020612e31908561394b565b50949350505050565b6000600080516020614b0b83398151915281612e568585613960565b90508015611962576000858152602083905260409020612e3190856139dc565b306001600160a01b037f0000000000000000000000000000000000000000000000000000000000000000161480612efd57507f00000000000000000000000000000000000000000000000000000000000000006001600160a01b0316612ef1600080516020614b4b833981519152546001600160a01b031690565b6001600160a01b031614155b15612f1b5760405163703e46dd60e11b815260040160405180910390fd5b565b7fbb0e9981f3e0d8e82b96d842d9255c9c0326f67ccc118d7edc5365c9372ae9be612f4781612c78565b60408051600080516020614b4b83398151915260208201520160408051601f1981840301815282825280516020918201206004845260248401909252820180516001600160e01b03166352d1902d60e01b17905290612fa79084906139f1565b805190602001201461168c5760405162461bcd60e51b8152602060048201526005602482015264085555525160da1b6044820152606401610df7565b816001600160a01b03166352d1902d6040518163ffffffff1660e01b8152600401602060405180830381865afa92505050801561303d575060408051601f3d908101601f1916820190925261303a9181019061465d565b60015b61306557604051634c9c8ce360e01b81526001600160a01b0383166004820152602401610df7565b600080516020614b4b833981519152811461309657604051632a87526960e21b815260048101829052602401610df7565b61157d8383613a5e565b306001600160a01b037f00000000000000000000000000000000000000000000000000000000000000001614612f1b5760405163703e46dd60e11b815260040160405180910390fd5b60006114d18383613ab4565b606060006114d183613ade565b6000611064825490565b6000807ff0c57e16840df040f15088dc2f81fe391c3923bec73e23a9662efc9c229c6a00611064565b612f1b613b3a565b613145613b3a565b61168c8282613b5f565b6001600160a01b0382166131795760405163ec442f0560e01b815260006004820152602401610df7565b61168c60008383613304565b600081836131a65760405162461bcd60e51b8152600401610df79190614238565b506000612804848661471a565b600081848411156131d75760405162461bcd60e51b8152600401610df79190614238565b5060006128048486614995565b600080516020614b2b8339815191526001600160a01b03851661321d5760405163e602df0560e01b815260006004820152602401610df7565b6001600160a01b03841661324757604051634a1406b160e11b815260006004820152602401610df7565b6001600160a01b0380861660009081526001830160209081526040808320938816835292905220839055811561251857836001600160a01b0316856001600160a01b03167f8c5be1e5ebec7d5bd14f71427d1e84f3dd0314c0f7b2291e5b200ac8c7c3b925856040516132bc91815260200190565b60405180910390a35050505050565b6132d5828261196a565b61168c5760405163e2517d3f60e01b81526001600160a01b038216600482015260248101839052604401610df7565b61330d8361234c565b156133495760405162461bcd60e51b815260206004820152600c60248201526b08589b1858dadb1a5cdd195960a21b6044820152606401610df7565b80670de0b6b3a76400001480156133cd57506004805460405163b2dd5c0760e01b81526001600160a01b038681169382019390935291169063b2dd5c0790602401602060405180830381865afa1580156133a7573d6000803e3d6000fd5b505050506040513d601f19601f820116820180604052508101906133cb91906146a0565b155b1561343c5760048054604051632a99dcd560e21b81526001600160a01b0386811693820193909352848316602482015291169063aa67735490604401600060405180830381600087803b15801561342357600080fd5b505af1158015613437573d6000803e3d6000fd5b505050505b61344583611145565b80613454575061345482611145565b156134645761157d838383612b3a565b60006134708484611772565b9050600381600481111561348657613486614486565b036134bc5760405162461bcd60e51b8152600401610df7906020808252600490820152632162757960e01b604082015260600190565b60008160048111156134d0576134d0614486565b036135065760405162461bcd60e51b8152600401610df7906020808252600490820152630858591960e21b604082015260600190565b600f54610100900460ff1661356057600181600481111561352957613529614486565b036135605760405162461bcd60e51b81526020600482015260076024820152662152656d6f766560c81b6044820152606401610df7565b600181600481111561357457613574614486565b0361386c57600061358483612234565b6001600160a01b0385166000908152600b60205260409020549091508111156135e25760405162461bcd60e51b815260206004820152601060248201526f085859191959081b1c08185b5bdd5b9d60821b6044820152606401610df7565b6001600160a01b0384166000908152600b60205260408120805483929061360a908490614995565b90915550506002546001600160a01b038581166000818152600b6020526040908190205490516307e1321d60e51b81526004810192909252602482015291169063fc2643a090604401600060405180830381600087803b15801561366d57600080fd5b505af1158015613681573d6000803e3d6000fd5b5050506001600160a01b0385166000908152600a602052604081205491506136ac8262278d006146d3565b4210156136fe576136f7612710610f47600c6000815481106136d0576136d0614745565b600091825260209091206010820401548991600f166002026101000a900461ffff1661251f565b9050613780565b61370b82624f1a006146d3565b42101561372f576136f7612710610f47600c6001815481106136d0576136d0614745565b61373c826276a7006146d3565b421015613760576136f7612710610f47600c6002815481106136d0576136d0614745565b61377d612710610f47600c6003815481106136d0576136d0614745565b90505b61378d8761dead83612b3a565b61379785826125e3565b94506137a4878787612b3a565b856001600160a01b03167f33d76f9964b2e4d0479931f8179012829dac684bb00145bda1404e54975b51a0600360009054906101000a90046001600160a01b03166001600160a01b03166372faf1426040518163ffffffff1660e01b8152600401602060405180830381865afa158015613822573d6000803e3d6000fd5b505050506040513d601f19601f82011682018060405250810190613846919061465d565b6040805191825260208201899052810184905260600160405180910390a2505050611544565b600281600481111561388057613880614486565b036138945761388f8483613bb0565b611544565b611544848484612b3a565b6000600080516020614b6b8339815191526138ba848461196a565b61393a576000848152602082815260408083206001600160a01b03871684529091529020805460ff191660011790556138f03390565b6001600160a01b0316836001600160a01b0316857f2f8788117e7eff1d82e926ec794901d17c78024a50270940304540a733656f0d60405160405180910390a46001915050611064565b6000915050611064565b5092915050565b60006114d1836001600160a01b038416613c9e565b6000600080516020614b6b83398151915261397b848461196a565b1561393a576000848152602082815260408083206001600160a01b0387168085529252808320805460ff1916905551339287917ff6391f5c32d9c69d2a47ea670b442974b53935d1edc7fd64eb21e047a839171b9190a46001915050611064565b60006114d1836001600160a01b038416613ced565b6060600080846001600160a01b031684604051613a0e9190614979565b600060405180830381855afa9150503d8060008114613a49576040519150601f19603f3d011682016040523d82523d6000602084013e613a4e565b606091505b5091509150612804858383613dd6565b613a6782613e32565b6040516001600160a01b038316907fbc7cd75a20ee27fd9adebab32041f755214dbc6bffa90cc0225b39da2e5c2d3b90600090a2805115613aac5761157d8282613e97565b61168c613eef565b6000826000018281548110613acb57613acb614745565b9060005260206000200154905092915050565b606081600001805480602002602001604051908101604052809291908181526020018280548015613b2e57602002820191906000526020600020905b815481526020019060010190808311613b1a575b50505050509050919050565b613b42613f0e565b612f1b57604051631afcd79f60e31b815260040160405180910390fd5b613b67613b3a565b600080516020614b2b8339815191527f52c63247e1f47db19d5ce0460030c497f067ca4cebf71ba98eeadabe20bace03613ba184826149f8565b506004810161154483826149f8565b60035460408051637128a3f360e01b815290516000926001600160a01b031691637128a3f39160048083019260209291908290030181865afa158015613bfa573d6000803e3d6000fd5b505050506040513d601f19601f82011682018060405250810190613c1e919061465d565b613c2990600261472e565b90506101f4811015613c3a57506101f45b6127108110613c4857506127105b6000613c5a612710610f47858561251f565b600654909150613c759085906001600160a01b031683612b3a565b6000613c8184836125e3565b9050801561251857613c94853083612b3a565b6125188186613f28565b6000818152600183016020526040812054613ce557508154600181810184556000848152602080822090930184905584548482528286019093526040902091909155611064565b506000611064565b6000818152600183016020526040812054801561393a576000613d11600183614995565b8554909150600090613d2590600190614995565b9050808214613d8a576000866000018281548110613d4557613d45614745565b9060005260206000200154905080876000018481548110613d6857613d68614745565b6000918252602080832090910192909255918252600188019052604090208390555b8554869080613d9b57613d9b614ab8565b600190038181906000526020600020016000905590558560010160008681526020019081526020016000206000905560019350505050611064565b606082613deb57613de68261409d565b6114d1565b8151158015613e0257506001600160a01b0384163b155b15613e2b57604051639996b31560e01b81526001600160a01b0385166004820152602401610df7565b50806114d1565b806001600160a01b03163b600003613e6857604051634c9c8ce360e01b81526001600160a01b0382166004820152602401610df7565b600080516020614b4b83398151915280546001600160a01b0319166001600160a01b0392909216919091179055565b6060600080846001600160a01b031684604051613eb49190614979565b600060405180830381855af49150503d8060008114613a49576040519150601f19603f3d011682016040523d82523d6000602084013e613a4e565b3415612f1b5760405163b398979f60e01b815260040160405180910390fd5b6000613f1861310c565b54600160401b900460ff16919050565b60008211613f6f5760405162461bcd60e51b8152602060048201526014602482015273125b9d985b1a59081a5b9c1d5d08185b5bdd5b9d60621b6044820152606401610df7565b6040805160028082526060820183526000926020830190803683370190505090503081600081518110613fa457613fa4614745565b60200260200101906001600160a01b031690816001600160a01b0316815250507f000000000000000000000000000000000000000000000000000000000000000081600181518110613ff857613ff8614745565b6001600160a01b0392831660209182029290920101527f00000000000000000000000000000000000000000000000000000000000000001663791ac9478460008486614046426102586146d3565b6040518663ffffffff1660e01b8152600401614066959493929190614ace565b600060405180830381600087803b15801561408057600080fd5b505af1158015614094573d6000803e3d6000fd5b50505050505050565b8051156140ac57805160208201fd5b60405163d6bda27560e01b815260040160405180910390fd5b60018301918390821561414f5791602002820160005b8382111561411f57833561ffff1683826101000a81548161ffff021916908361ffff16021790555092602001926002016020816001010492830192600103026140db565b801561414d5782816101000a81549061ffff021916905560020160208160010104928301926001030261411f565b505b5061415b9291506141d5565b5090565b60018301918390821561414f5791602002820160005b8382111561411f57835183826101000a81548161ffff021916908360ff1602179055509260200192600201602081600101049283019260010302614175565b50805460008255600f01601090049060005260206000209081019061159b91905b5b8082111561415b57600081556001016141d6565b6000602082840312156141fc57600080fd5b81356001600160e01b0319811681146114d157600080fd5b60005b8381101561422f578181015183820152602001614217565b50506000910152565b6020815260008251806020840152614257816040850160208701614214565b601f01601f19169190910160400192915050565b6001600160a01b038116811461159b57600080fd5b6000806040838503121561429357600080fd5b823561429e8161426b565b946020939093013593505050565b6000602082840312156142be57600080fd5b81356114d18161426b565b6000806000606084860312156142de57600080fd5b83356142e98161426b565b925060208401356142f98161426b565b929592945050506040919091013590565b60006020828403121561431c57600080fd5b5035919050565b6000806040838503121561433657600080fd5b8235915060208301356143488161426b565b809150509250929050565b634e487b7160e01b600052604160045260246000fd5b6000806040838503121561437c57600080fd5b82356143878161426b565b9150602083013567ffffffffffffffff808211156143a457600080fd5b818501915085601f8301126143b857600080fd5b8135818111156143ca576143ca614353565b604051601f8201601f19908116603f011681019083821181831017156143f2576143f2614353565b8160405282815288602084870101111561440b57600080fd5b8260208601602083013760006020848301015280955050505050509250929050565b801515811461159b57600080fd5b60006020828403121561444d57600080fd5b81356114d18161442d565b6000806040838503121561446b57600080fd5b82356144768161426b565b915060208301356143488161426b565b634e487b7160e01b600052602160045260246000fd5b60208101600583106144be57634e487b7160e01b600052602160045260246000fd5b91905290565b600080604083850312156144d757600080fd5b50508035926020909101359150565b6000606082840312156144f857600080fd5b8260608301111561450857600080fd5b50919050565b60008151808452602080850194506020840160005b838110156145485781516001600160a01b031687529582019590820190600101614523565b509495945050505050565b6020815260006114d1602083018461450e565b60008060008060008060c0878903121561457f57600080fd5b863561458a8161426b565b9550602087013561459a8161426b565b945060408701356145aa8161426b565b935060608701356145ba8161426b565b925060808701356145ca8161426b565b915060a08701356145da8161426b565b809150509295509295509295565b600080602083850312156145fb57600080fd5b823567ffffffffffffffff8082111561461357600080fd5b818501915085601f83011261462757600080fd5b81358181111561463657600080fd5b8660208260051b850101111561464b57600080fd5b60209290920196919550909350505050565b60006020828403121561466f57600080fd5b5051919050565b634e487b7160e01b600052601260045260246000fd5b60008261469b5761469b614676565b500690565b6000602082840312156146b257600080fd5b81516114d18161442d565b634e487b7160e01b600052601160045260246000fd5b80820180821115611064576110646146bd565b600181811c908216806146fa57607f821691505b60208210810361450857634e487b7160e01b600052602260045260246000fd5b60008261472957614729614676565b500490565b8082028115828204841417611064576110646146bd565b634e487b7160e01b600052603260045260246000fd5b80516001600160701b038116811461477257600080fd5b919050565b60008060006060848603121561478c57600080fd5b6147958461475b565b92506147a36020850161475b565b9150604084015163ffffffff811681146147bc57600080fd5b809150509250925092565b6000602082840312156147d957600080fd5b813561ffff811681146114d157600080fd5b61ffff818116838216019080821115613944576139446146bd565b60006020828403121561481857600080fd5b81516114d18161426b565b600181815b8085111561485e578160001904821115614844576148446146bd565b8085161561485157918102915b93841c9390800290614828565b509250929050565b60008261487557506001611064565b8161488257506000611064565b816001811461489857600281146148a2576148be565b6001915050611064565b60ff8411156148b3576148b36146bd565b50506001821b611064565b5060208310610133831016604e8410600b84101617156148e1575081810a611064565b6148eb8383614823565b80600019048211156148ff576148ff6146bd565b029392505050565b60006114d160ff841683614866565b84815260806020820152600061492f608083018661450e565b6001600160a01b03949094166040830152506060015292915050565b60008060006060848603121561496057600080fd5b8351925060208401519150604084015190509250925092565b6000825161498b818460208701614214565b9190910192915050565b81810381811115611064576110646146bd565b601f82111561157d576000816000526020600020601f850160051c810160208610156149d15750805b601f850160051c820191505b818110156149f0578281556001016149dd565b505050505050565b815167ffffffffffffffff811115614a1257614a12614353565b614a2681614a2084546146e6565b846149a8565b602080601f831160018114614a5b5760008415614a435750858301515b600019600386901b1c1916600185901b1785556149f0565b600085815260208120601f198616915b82811015614a8a57888601518255948401946001909101908401614a6b565b5085821015614aa85787850151600019600388901b60f8161c191681555b5050505050600190811b01905550565b634e487b7160e01b600052603160045260246000fd5b85815284602082015260a060408201526000614aed60a083018661450e565b6001600160a01b039490941660608301525060800152939250505056fec1f6fe24621ce81ec5827caf0253cadb74709b061630e6b55e8237170593200052c63247e1f47db19d5ce0460030c497f067ca4cebf71ba98eeadabe20bace00360894a13ba1a3210667c828492db98dca3e2076cc3735a920a3ca505d382bbc02dd7bc7dec4dceedda775e58dd541e08a116c6c53815c0bd028192f7b62680042c574c7286eda4a697031a50021e14becf19cc00ff83d93a7547d3809b37f72a26469706673582212206178e79c6fb522ea08955fcbec6e75e763e2c9c9bd384d8f0a224effb9fe0e1064736f6c63430008160033",
  "devdoc": {
    "errors": {
      "AccessControlBadConfirmation()": [
        {
          "details": "The caller of a function is not the expected one. NOTE: Don't confuse with {AccessControlUnauthorizedAccount}."
        }
      ],
      "AccessControlUnauthorizedAccount(address,bytes32)": [
        {
          "details": "The `account` is missing a role."
        }
      ],
      "AddressEmptyCode(address)": [
        {
          "details": "There's no code at `target` (it is not a contract)."
        }
      ],
      "ERC1967InvalidImplementation(address)": [
        {
          "details": "The `implementation` of the proxy is invalid."
        }
      ],
      "ERC1967NonPayable()": [
        {
          "details": "An upgrade function sees `msg.value > 0` that may be lost."
        }
      ],
      "ERC20InsufficientAllowance(address,uint256,uint256)": [
        {
          "details": "Indicates a failure with the `spender`s `allowance`. Used in transfers.",
          "params": {
            "allowance": "Amount of tokens a `spender` is allowed to operate with.",
            "needed": "Minimum amount required to perform a transfer.",
            "spender": "Address that may be allowed to operate on tokens without being their owner."
          }
        }
      ],
      "ERC20InsufficientBalance(address,uint256,uint256)": [
        {
          "details": "Indicates an error related to the current `balance` of a `sender`. Used in transfers.",
          "params": {
            "balance": "Current balance for the interacting account.",
            "needed": "Minimum amount required to perform a transfer.",
            "sender": "Address whose tokens are being transferred."
          }
        }
      ],
      "ERC20InvalidApprover(address)": [
        {
          "details": "Indicates a failure with the `approver` of a token to be approved. Used in approvals.",
          "params": {
            "approver": "Address initiating an approval operation."
          }
        }
      ],
      "ERC20InvalidReceiver(address)": [
        {
          "details": "Indicates a failure with the token `receiver`. Used in transfers.",
          "params": {
            "receiver": "Address to which tokens are being transferred."
          }
        }
      ],
      "ERC20InvalidSender(address)": [
        {
          "details": "Indicates a failure with the token `sender`. Used in transfers.",
          "params": {
            "sender": "Address whose tokens are being transferred."
          }
        }
      ],
      "ERC20InvalidSpender(address)": [
        {
          "details": "Indicates a failure with the `spender` to be approved. Used in approvals.",
          "params": {
            "spender": "Address that may be allowed to operate on tokens without being their owner."
          }
        }
      ],
      "FailedCall()": [
        {
          "details": "A call to an address target failed. The target may have reverted."
        }
      ],
      "InvalidInitialization()": [
        {
          "details": "The contract is already initialized."
        }
      ],
      "NotInitializing()": [
        {
          "details": "The contract is not initializing."
        }
      ],
      "UUPSUnauthorizedCallContext()": [
        {
          "details": "The call is from an unauthorized context."
        }
      ],
      "UUPSUnsupportedProxiableUUID(bytes32)": [
        {
          "details": "The storage `slot` is unsupported as a UUID."
        }
      ]
    },
    "events": {
      "Approval(address,address,uint256)": {
        "details": "Emitted when the allowance of a `spender` for an `owner` is set by a call to {approve}. `value` is the new allowance."
      },
      "Initialized(uint64)": {
        "details": "Triggered when the contract has been initialized or reinitialized."
      },
      "RoleAdminChanged(bytes32,bytes32,bytes32)": {
        "details": "Emitted when `newAdminRole` is set as ``role``'s admin role, replacing `previousAdminRole` `DEFAULT_ADMIN_ROLE` is the starting admin for all roles, despite {RoleAdminChanged} not being emitted to signal this."
      },
      "RoleGranted(bytes32,address,address)": {
        "details": "Emitted when `account` is granted `role`. `sender` is the account that originated the contract call. This account bears the admin role (for the granted role). Expected in cases where the role was granted using the internal {AccessControl-_grantRole}."
      },
      "RoleRevoked(bytes32,address,address)": {
        "details": "Emitted when `account` is revoked `role`. `sender` is the account that originated the contract call:   - if using `revokeRole`, it is the admin role bearer   - if using `renounceRole`, it is the role bearer (i.e. `account`)"
      },
      "Transfer(address,address,uint256)": {
        "details": "Emitted when `value` tokens are moved from one account (`from`) to another (`to`). Note that `value` may be zero."
      },
      "Upgraded(address)": {
        "details": "Emitted when the implementation is upgraded."
      }
    },
    "kind": "dev",
    "methods": {
      "allowance(address,address)": {
        "details": "Returns the remaining number of tokens that `spender` will be allowed to spend on behalf of `owner` through {transferFrom}. This is zero by default. This value changes when {approve} or {transferFrom} are called."
      },
      "approve(address,uint256)": {
        "details": "See {IERC20-approve}. NOTE: If `value` is the maximum `uint256`, the allowance is not updated on `transferFrom`. This is semantically equivalent to an infinite approval. Requirements: - `spender` cannot be the zero address."
      },
      "balanceOf(address)": {
        "details": "Returns the value of tokens owned by `account`."
      },
      "constructor": {
        "custom:oz-upgrades-unsafe-allow": "constructor"
      },
      "decimals()": {
        "details": "Returns the number of decimals used to get its user representation. For example, if `decimals` equals `2`, a balance of `505` tokens should be displayed to a user as `5.05` (`505 / 10 ** 2`). Tokens usually opt for a value of 18, imitating the relationship between Ether and Wei. This is the default value returned by this function, unless it's overridden. NOTE: This information is only used for _display_ purposes: it in no way affects any of the arithmetic of the contract, including {IERC20-balanceOf} and {IERC20-transfer}."
      },
      "getRoleAdmin(bytes32)": {
        "details": "Returns the admin role that controls `role`. See {grantRole} and {revokeRole}. To change a role's admin, use {_setRoleAdmin}."
      },
      "getRoleMember(bytes32,uint256)": {
        "details": "Returns one of the accounts that have `role`. `index` must be a value between 0 and {getRoleMemberCount}, non-inclusive. Role bearers are not sorted in any particular way, and their ordering may change at any point. WARNING: When using {getRoleMember} and {getRoleMemberCount}, make sure you perform all queries on the same block. See the following https://forum.openzeppelin.com/t/iterating-over-elements-on-enumerableset-in-openzeppelin-contracts/2296[forum post] for more information."
      },
      "getRoleMemberCount(bytes32)": {
        "details": "Returns the number of accounts that have `role`. Can be used together with {getRoleMember} to enumerate all bearers of a role."
      },
      "getRoleMembers(bytes32)": {
        "details": "Return all accounts that have `role` WARNING: This operation will copy the entire storage to memory, which can be quite expensive. This is designed to mostly be used by view accessors that are queried without any gas fees. Developers should keep in mind that this function has an unbounded cost, and using it as part of a state-changing function may render the function uncallable if the set grows to a point where copying to memory consumes too much gas to fit in a block."
      },
      "grantRole(bytes32,address)": {
        "details": "Grants `role` to `account`. If `account` had not been already granted `role`, emits a {RoleGranted} event. Requirements: - the caller must have ``role``'s admin role. May emit a {RoleGranted} event."
      },
      "hasRole(bytes32,address)": {
        "details": "Returns `true` if `account` has been granted `role`."
      },
      "name()": {
        "details": "Returns the name of the token."
      },
      "proxiableUUID()": {
        "details": "Implementation of the ERC-1822 {proxiableUUID} function. This returns the storage slot used by the implementation. It is used to validate the implementation's compatibility when performing an upgrade. IMPORTANT: A proxy pointing at a proxiable contract should not be considered proxiable itself, because this risks bricking a proxy that upgrades to it, by delegating to itself until out of gas. Thus it is critical that this function revert if invoked through a proxy. This is guaranteed by the `notDelegated` modifier."
      },
      "renounceRole(bytes32,address)": {
        "details": "Revokes `role` from the calling account. Roles are often managed via {grantRole} and {revokeRole}: this function's purpose is to provide a mechanism for accounts to lose their privileges if they are compromised (such as when a trusted device is misplaced). If the calling account had been revoked `role`, emits a {RoleRevoked} event. Requirements: - the caller must be `callerConfirmation`. May emit a {RoleRevoked} event."
      },
      "revokeRole(bytes32,address)": {
        "details": "Revokes `role` from `account`. If `account` had been granted `role`, emits a {RoleRevoked} event. Requirements: - the caller must have ``role``'s admin role. May emit a {RoleRevoked} event."
      },
      "supportsInterface(bytes4)": {
        "details": "Returns true if this contract implements the interface defined by `interfaceId`. See the corresponding https://eips.ethereum.org/EIPS/eip-165#how-interfaces-are-identified[ERC section] to learn more about how these ids are created. This function call must use less than 30 000 gas."
      },
      "symbol()": {
        "details": "Returns the symbol of the token, usually a shorter version of the name."
      },
      "totalSupply()": {
        "details": "Returns the value of tokens in existence."
      },
      "transfer(address,uint256)": {
        "details": "See {IERC20-transfer}. Requirements: - `to` cannot be the zero address. - the caller must have a balance of at least `value`."
      },
      "transferFrom(address,address,uint256)": {
        "details": "See {IERC20-transferFrom}. Skips emitting an {Approval} event indicating an allowance update. This is not required by the ERC. See {xref-ERC20-_approve-address-address-uint256-bool-}[_approve]. NOTE: Does not update the allowance if the current allowance is the maximum `uint256`. Requirements: - `from` and `to` cannot be the zero address. - `from` must have a balance of at least `value`. - the caller must have allowance for ``from``'s tokens of at least `value`."
      },
      "upgradeToAndCall(address,bytes)": {
        "custom:oz-upgrades-unsafe-allow-reachable": "delegatecall",
        "details": "Upgrade the implementation of the proxy to `newImplementation`, and subsequently execute the function call encoded in `data`. Calls {_authorizeUpgrade}. Emits an {Upgraded} event."
      }
    },
    "version": 1
  },
  "userdoc": {
    "kind": "user",
    "methods": {},
    "version": 1
  },
  "storageLayout": {
    "storage": [
      {
        "astId": 8998,
        "contract": "contracts/SkyLabubu.sol:SkyLabubu",
        "label": "maxAmount",
        "offset": 0,
        "slot": "0",
        "type": "t_uint256"
      },
      {
        "astId": 9001,
        "contract": "contracts/SkyLabubu.sol:SkyLabubu",
        "label": "nft",
        "offset": 0,
        "slot": "1",
        "type": "t_contract(ILabubuNFT)10664"
      },
      {
        "astId": 9004,
        "contract": "contracts/SkyLabubu.sol:SkyLabubu",
        "label": "recoupment",
        "offset": 0,
        "slot": "2",
        "type": "t_contract(ILabubuRecoupment)10705"
      },
      {
        "astId": 9007,
        "contract": "contracts/SkyLabubu.sol:SkyLabubu",
        "label": "oracle",
        "offset": 0,
        "slot": "3",
        "type": "t_contract(ILabubuOracle)10685"
      },
      {
        "astId": 9010,
        "contract": "contracts/SkyLabubu.sol:SkyLabubu",
        "label": "registerV2",
        "offset": 0,
        "slot": "4",
        "type": "t_contract(IRegisterV2)11502"
      },
      {
        "astId": 9012,
        "contract": "contracts/SkyLabubu.sol:SkyLabubu",
        "label": "deflationAddress",
        "offset": 0,
        "slot": "5",
        "type": "t_address"
      },
      {
        "astId": 9014,
        "contract": "contracts/SkyLabubu.sol:SkyLabubu",
        "label": "sellFeeAddress",
        "offset": 0,
        "slot": "6",
        "type": "t_address"
      },
      {
        "astId": 9016,
        "contract": "contracts/SkyLabubu.sol:SkyLabubu",
        "label": "depositFeeAddress",
        "offset": 0,
        "slot": "7",
        "type": "t_address"
      },
      {
        "astId": 9018,
        "contract": "contracts/SkyLabubu.sol:SkyLabubu",
        "label": "pancakePair",
        "offset": 0,
        "slot": "8",
        "type": "t_address"
      },
      {
        "astId": 9022,
        "contract": "contracts/SkyLabubu.sol:SkyLabubu",
        "label": "accountSales",
        "offset": 0,
        "slot": "9",
        "type": "t_mapping(t_address,t_uint256)"
      },
      {
        "astId": 9026,
        "contract": "contracts/SkyLabubu.sol:SkyLabubu",
        "label": "addLiquidityUnlockTime",
        "offset": 0,
        "slot": "10",
        "type": "t_mapping(t_address,t_uint256)"
      },
      {
        "astId": 9030,
        "contract": "contracts/SkyLabubu.sol:SkyLabubu",
        "label": "accountLpAmount",
        "offset": 0,
        "slot": "11",
        "type": "t_mapping(t_address,t_uint256)"
      },
      {
        "astId": 9033,
        "contract": "contracts/SkyLabubu.sol:SkyLabubu",
        "label": "removeLpBurnRate",
        "offset": 0,
        "slot": "12",
        "type": "t_array(t_uint16)dyn_storage"
      },
      {
        "astId": 9037,
        "contract": "contracts/SkyLabubu.sol:SkyLabubu",
        "label": "dailyBurnRate",
        "offset": 0,
        "slot": "13",
        "type": "t_array(t_uint16)3_storage"
      },
      {
        "astId": 9041,
        "contract": "contracts/SkyLabubu.sol:SkyLabubu",
        "label": "dailyBurned",
        "offset": 0,
        "slot": "14",
        "type": "t_mapping(t_uint256,t_bool)"
      },
      {
        "astId": 9043,
        "contract": "contracts/SkyLabubu.sol:SkyLabubu",
        "label": "burnAndMintSwitch",
        "offset": 0,
        "slot": "15",
        "type": "t_bool"
      },
      {
        "astId": 9045,
        "contract": "contracts/SkyLabubu.sol:SkyLabubu",
        "label": "removeLpSwitch",
        "offset": 1,
        "slot": "15",
        "type": "t_bool"
      }
    ],
    "types": {
      "t_address": {
        "encoding": "inplace",
        "label": "address",
        "numberOfBytes": "20"
      },
      "t_array(t_uint16)3_storage": {
        "base": "t_uint16",
        "encoding": "inplace",
        "label": "uint16[3]",
        "numberOfBytes": "32"
      },
      "t_array(t_uint16)dyn_storage": {
        "base": "t_uint16",
        "encoding": "dynamic_array",
        "label": "uint16[]",
        "numberOfBytes": "32"
      },
      "t_bool": {
        "encoding": "inplace",
        "label": "bool",
        "numberOfBytes": "1"
      },
      "t_contract(ILabubuNFT)10664": {
        "encoding": "inplace",
        "label": "contract ILabubuNFT",
        "numberOfBytes": "20"
      },
      "t_contract(ILabubuOracle)10685": {
        "encoding": "inplace",
        "label": "contract ILabubuOracle",
        "numberOfBytes": "20"
      },
      "t_contract(ILabubuRecoupment)10705": {
        "encoding": "inplace",
        "label": "contract ILabubuRecoupment",
        "numberOfBytes": "20"
      },
      "t_contract(IRegisterV2)11502": {
        "encoding": "inplace",
        "label": "contract IRegisterV2",
        "numberOfBytes": "20"
      },
      "t_mapping(t_address,t_uint256)": {
        "encoding": "mapping",
        "key": "t_address",
        "label": "mapping(address => uint256)",
        "numberOfBytes": "32",
        "value": "t_uint256"
      },
      "t_mapping(t_uint256,t_bool)": {
        "encoding": "mapping",
        "key": "t_uint256",
        "label": "mapping(uint256 => bool)",
        "numberOfBytes": "32",
        "value": "t_bool"
      },
      "t_uint16": {
        "encoding": "inplace",
        "label": "uint16",
        "numberOfBytes": "2"
      },
      "t_uint256": {
        "encoding": "inplace",
        "label": "uint256",
        "numberOfBytes": "32"
      }
    }
  }
}