{
  "address": "0x2a3028a0364c1cb0534E0980A03F0588CDa42399",
  "abi": [
    {
      "inputs": [],
      "stateMutability": "nonpayable",
      "type": "constructor"
    },
    {
      "inputs": [
        {
          "internalType": "address",
          "name": "target",
          "type": "address"
        }
      ],
      "name": "AddressEmptyCode",
      "type": "error"
    },
    {
      "inputs": [
        {
          "internalType": "address",
          "name": "implementation",
          "type": "address"
        }
      ],
      "name": "ERC1967InvalidImplementation",
      "type": "error"
    },
    {
      "inputs": [],
      "name": "ERC1967NonPayable",
      "type": "error"
    },
    {
      "inputs": [],
      "name": "FailedCall",
      "type": "error"
    },
    {
      "inputs": [],
      "name": "InvalidInitialization",
      "type": "error"
    },
    {
      "inputs": [],
      "name": "NotInitializing",
      "type": "error"
    },
    {
      "inputs": [],
      "name": "UUPSUnauthorizedCallContext",
      "type": "error"
    },
    {
      "inputs": [
        {
          "internalType": "bytes32",
          "name": "slot",
          "type": "bytes32"
        }
      ],
      "name": "UUPSUnsupportedProxiableUUID",
      "type": "error"
    },
    {
      "anonymous": false,
      "inputs": [
        {
          "indexed": false,
          "internalType": "address",
          "name": "account",
          "type": "address"
        },
        {
          "indexed": false,
          "internalType": "uint256",
          "name": "labubuAmount",
          "type": "uint256"
        },
        {
          "indexed": false,
          "internalType": "uint256",
          "name": "usdtAmount",
          "type": "uint256"
        },
        {
          "indexed": false,
          "internalType": "uint256",
          "name": "transferPtg",
          "type": "uint256"
        }
      ],
      "name": "Claimed",
      "type": "event"
    },
    {
      "anonymous": false,
      "inputs": [
        {
          "indexed": false,
          "internalType": "uint256",
          "name": "amount",
          "type": "uint256"
        }
      ],
      "name": "DepositReward",
      "type": "event"
    },
    {
      "anonymous": false,
      "inputs": [
        {
          "indexed": true,
          "internalType": "address",
          "name": "from",
          "type": "address"
        },
        {
          "indexed": true,
          "internalType": "address",
          "name": "to",
          "type": "address"
        },
        {
          "indexed": true,
          "internalType": "uint8",
          "name": "level",
          "type": "uint8"
        },
        {
          "indexed": false,
          "internalType": "uint256",
          "name": "tp",
          "type": "uint256"
        },
        {
          "indexed": false,
          "internalType": "uint256",
          "name": "tokenAmount",
          "type": "uint256"
        },
        {
          "indexed": false,
          "internalType": "uint256",
          "name": "usdtValue",
          "type": "uint256"
        }
      ],
      "name": "DistributeReferralReward",
      "type": "event"
    },
    {
      "anonymous": false,
      "inputs": [
        {
          "indexed": false,
          "internalType": "uint64",
          "name": "version",
          "type": "uint64"
        }
      ],
      "name": "Initialized",
      "type": "event"
    },
    {
      "anonymous": false,
      "inputs": [
        {
          "indexed": false,
          "internalType": "address",
          "name": "account",
          "type": "address"
        },
        {
          "indexed": false,
          "internalType": "uint256",
          "name": "share",
          "type": "uint256"
        }
      ],
      "name": "PayeeSet",
      "type": "event"
    },
    {
      "anonymous": false,
      "inputs": [
        {
          "indexed": false,
          "internalType": "address",
          "name": "account",
          "type": "address"
        },
        {
          "indexed": false,
          "internalType": "uint256",
          "name": "amount",
          "type": "uint256"
        }
      ],
      "name": "Released",
      "type": "event"
    },
    {
      "anonymous": false,
      "inputs": [
        {
          "indexed": false,
          "internalType": "uint256",
          "name": "amount",
          "type": "uint256"
        },
        {
          "indexed": false,
          "internalType": "address",
          "name": "token",
          "type": "address"
        }
      ],
      "name": "SendReward",
      "type": "event"
    },
    {
      "anonymous": false,
      "inputs": [
        {
          "indexed": true,
          "internalType": "address",
          "name": "implementation",
          "type": "address"
        }
      ],
      "name": "Upgraded",
      "type": "event"
    },
    {
      "inputs": [],
      "name": "BASE_PERCENT",
      "outputs": [
        {
          "internalType": "uint16",
          "name": "",
          "type": "uint16"
        }
      ],
      "stateMutability": "view",
      "type": "function"
    },
    {
      "inputs": [],
      "name": "UPGRADE_INTERFACE_VERSION",
      "outputs": [
        {
          "internalType": "string",
          "name": "",
          "type": "string"
        }
      ],
      "stateMutability": "view",
      "type": "function"
    },
    {
      "inputs": [
        {
          "internalType": "address",
          "name": "account",
          "type": "address"
        }
      ],
      "name": "availableReward",
      "outputs": [
        {
          "internalType": "uint256",
          "name": "",
          "type": "uint256"
        }
      ],
      "stateMutability": "view",
      "type": "function"
    },
    {
      "inputs": [
        {
          "internalType": "address",
          "name": "account",
          "type": "address"
        }
      ],
      "name": "claim",
      "outputs": [],
      "stateMutability": "nonpayable",
      "type": "function"
    },
    {
      "inputs": [
        {
          "internalType": "address",
          "name": "account",
          "type": "address"
        }
      ],
      "name": "distributeReferralReward",
      "outputs": [],
      "stateMutability": "payable",
      "type": "function"
    },
    {
      "inputs": [
        {
          "internalType": "address",
          "name": "account",
          "type": "address"
        }
      ],
      "name": "getLeftQuota",
      "outputs": [
        {
          "internalType": "uint256",
          "name": "",
          "type": "uint256"
        }
      ],
      "stateMutability": "view",
      "type": "function"
    },
    {
      "inputs": [
        {
          "internalType": "address",
          "name": "_marketAddress",
          "type": "address"
        },
        {
          "internalType": "contract IManager",
          "name": "_manager",
          "type": "address"
        },
        {
          "internalType": "contract IRegisterV2",
          "name": "_registerV2",
          "type": "address"
        },
        {
          "internalType": "contract ILabubuOracle",
          "name": "_oracle",
          "type": "address"
        },
        {
          "internalType": "address",
          "name": "_labubu",
          "type": "address"
        }
      ],
      "name": "initialize",
      "outputs": [],
      "stateMutability": "nonpayable",
      "type": "function"
    },
    {
      "inputs": [
        {
          "internalType": "uint256",
          "name": "",
          "type": "uint256"
        }
      ],
      "name": "invitationAwardRates",
      "outputs": [
        {
          "internalType": "uint16",
          "name": "",
          "type": "uint16"
        }
      ],
      "stateMutability": "view",
      "type": "function"
    },
    {
      "inputs": [],
      "name": "labubu",
      "outputs": [
        {
          "internalType": "address",
          "name": "",
          "type": "address"
        }
      ],
      "stateMutability": "view",
      "type": "function"
    },
    {
      "inputs": [],
      "name": "manager",
      "outputs": [
        {
          "internalType": "contract IManager",
          "name": "",
          "type": "address"
        }
      ],
      "stateMutability": "view",
      "type": "function"
    },
    {
      "inputs": [],
      "name": "marketAddress",
      "outputs": [
        {
          "internalType": "address",
          "name": "",
          "type": "address"
        }
      ],
      "stateMutability": "view",
      "type": "function"
    },
    {
      "inputs": [],
      "name": "oracle",
      "outputs": [
        {
          "internalType": "contract ILabubuOracle",
          "name": "",
          "type": "address"
        }
      ],
      "stateMutability": "view",
      "type": "function"
    },
    {
      "inputs": [
        {
          "internalType": "address",
          "name": "",
          "type": "address"
        }
      ],
      "name": "payees",
      "outputs": [
        {
          "internalType": "uint256",
          "name": "share",
          "type": "uint256"
        },
        {
          "internalType": "uint256",
          "name": "debt",
          "type": "uint256"
        },
        {
          "internalType": "uint256",
          "name": "claimed",
          "type": "uint256"
        },
        {
          "internalType": "uint256",
          "name": "available",
          "type": "uint256"
        }
      ],
      "stateMutability": "view",
      "type": "function"
    },
    {
      "inputs": [
        {
          "internalType": "address",
          "name": "account",
          "type": "address"
        }
      ],
      "name": "pendingReward",
      "outputs": [
        {
          "internalType": "uint256",
          "name": "",
          "type": "uint256"
        }
      ],
      "stateMutability": "view",
      "type": "function"
    },
    {
      "inputs": [],
      "name": "proxiableUUID",
      "outputs": [
        {
          "internalType": "bytes32",
          "name": "",
          "type": "bytes32"
        }
      ],
      "stateMutability": "view",
      "type": "function"
    },
    {
      "inputs": [],
      "name": "quotaTimes",
      "outputs": [
        {
          "internalType": "uint256",
          "name": "",
          "type": "uint256"
        }
      ],
      "stateMutability": "view",
      "type": "function"
    },
    {
      "inputs": [
        {
          "internalType": "address",
          "name": "",
          "type": "address"
        }
      ],
      "name": "recoupments",
      "outputs": [
        {
          "internalType": "uint256",
          "name": "deposit",
          "type": "uint256"
        },
        {
          "internalType": "uint256",
          "name": "quota",
          "type": "uint256"
        },
        {
          "internalType": "uint256",
          "name": "claimed",
          "type": "uint256"
        }
      ],
      "stateMutability": "view",
      "type": "function"
    },
    {
      "inputs": [],
      "name": "registerV2",
      "outputs": [
        {
          "internalType": "contract IRegisterV2",
          "name": "",
          "type": "address"
        }
      ],
      "stateMutability": "view",
      "type": "function"
    },
    {
      "inputs": [
        {
          "internalType": "address",
          "name": "account",
          "type": "address"
        }
      ],
      "name": "release",
      "outputs": [],
      "stateMutability": "nonpayable",
      "type": "function"
    },
    {
      "inputs": [
        {
          "internalType": "uint256",
          "name": "reward",
          "type": "uint256"
        }
      ],
      "name": "sendReward",
      "outputs": [],
      "stateMutability": "nonpayable",
      "type": "function"
    },
    {
      "inputs": [
        {
          "internalType": "address",
          "name": "account",
          "type": "address"
        },
        {
          "internalType": "uint256",
          "name": "available",
          "type": "uint256"
        }
      ],
      "name": "setAvailableTest",
      "outputs": [],
      "stateMutability": "nonpayable",
      "type": "function"
    },
    {
      "inputs": [
        {
          "internalType": "contract ILabubuOracle",
          "name": "_oracle",
          "type": "address"
        }
      ],
      "name": "setOracle",
      "outputs": [],
      "stateMutability": "nonpayable",
      "type": "function"
    },
    {
      "inputs": [
        {
          "internalType": "address",
          "name": "account",
          "type": "address"
        },
        {
          "internalType": "uint256",
          "name": "shares",
          "type": "uint256"
        }
      ],
      "name": "setPayee",
      "outputs": [],
      "stateMutability": "nonpayable",
      "type": "function"
    },
    {
      "inputs": [
        {
          "internalType": "address",
          "name": "account",
          "type": "address"
        },
        {
          "internalType": "uint256",
          "name": "quota",
          "type": "uint256"
        }
      ],
      "name": "setQuota",
      "outputs": [],
      "stateMutability": "nonpayable",
      "type": "function"
    },
    {
      "inputs": [],
      "name": "statistic",
      "outputs": [
        {
          "internalType": "uint256",
          "name": "total",
          "type": "uint256"
        },
        {
          "internalType": "uint256",
          "name": "perDebt",
          "type": "uint256"
        }
      ],
      "stateMutability": "view",
      "type": "function"
    },
    {
      "inputs": [
        {
          "internalType": "address",
          "name": "newImplementation",
          "type": "address"
        },
        {
          "internalType": "bytes",
          "name": "data",
          "type": "bytes"
        }
      ],
      "name": "upgradeToAndCall",
      "outputs": [],
      "stateMutability": "payable",
      "type": "function"
    },
    {
      "stateMutability": "payable",
      "type": "receive"
    }
  ],
  "transactionHash": "0x493b332acddea1e1ebe9895562ed72a087898409ef684ba0511a452364d1c966",
  "args": [],
  "numDeployments": 1,
  "solcInputHash": "a964358d3171b274d4223f97a09ae130",
  "bytecode": "0x60a06040523060805234801561001457600080fd5b5061001d610022565b6100d4565b7ff0c57e16840df040f15088dc2f81fe391c3923bec73e23a9662efc9c229c6a00805468010000000000000000900460ff16156100725760405163f92ee8a960e01b815260040160405180910390fd5b80546001600160401b03908116146100d15780546001600160401b0319166001600160401b0390811782556040519081527fc7f505b2f371ae2175ee4913f4499e1f2633a7b5936321eed1cdaeb6115181d29060200160405180910390a15b50565b608051612479620000fe60003960008181611a4a01528181611a730152611c1201526124796000f3fe6080604052600436106101855760003560e01c806352d1902d116100d1578063b15bc6241161008a578063f2e1b58811610064578063f2e1b58814610506578063f40f0f5214610526578063fc2643a014610546578063ff00eb9a1461056657600080fd5b8063b15bc6241461046f578063c78b6dea1461048f578063cebbb79f146104af57600080fd5b806352d1902d1461039357806362f3765e146103a85780637adbf973146103d15780637dc0d1d0146103f15780639562364114610411578063ad3cb1cc1461043157600080fd5b80631cb74eca1161013e57806332c235611161011857806332c235611461031a5780633c5fc71114610330578063481c6a75146103605780634f1ef2861461038057600080fd5b80631cb74eca146102785780631e83409a14610298578063310441fa146102b857600080fd5b806303ce33551461019a578063066fd899146101ba57806313f5c246146101ed5780631459457a146102255780631916558714610245578063199013681461026557600080fd5b366101955761019333610586565b005b600080fd5b3480156101a657600080fd5b506101936101b5366004611fbf565b610836565b3480156101c657600080fd5b506101da6101d5366004611feb565b6108b3565b6040519081526020015b60405180910390f35b3480156101f957600080fd5b5060015461020d906001600160a01b031681565b6040516001600160a01b0390911681526020016101e4565b34801561023157600080fd5b50610193610240366004612008565b6108ea565b34801561025157600080fd5b50610193610260366004611feb565b610c53565b610193610273366004611feb565b610c5f565b34801561028457600080fd5b5060035461020d906001600160a01b031681565b3480156102a457600080fd5b506101936102b3366004611feb565b610586565b3480156102c457600080fd5b506102fa6102d3366004611feb565b60086020526000908152604090208054600182015460028301546003909301549192909184565b6040805194855260208501939093529183015260608201526080016101e4565b34801561032657600080fd5b506101da60065481565b34801561033c57600080fd5b50600954600a5461034b919082565b604080519283526020830191909152016101e4565b34801561036c57600080fd5b5060005461020d906001600160a01b031681565b61019361038e3660046120c0565b610ffd565b34801561039f57600080fd5b506101da61101c565b3480156103b457600080fd5b506103be6107d081565b60405161ffff90911681526020016101e4565b3480156103dd57600080fd5b506101936103ec366004611feb565b611039565b3480156103fd57600080fd5b5060025461020d906001600160a01b031681565b34801561041d57600080fd5b5060045461020d906001600160a01b031681565b34801561043d57600080fd5b50610462604051806040016040528060058152602001640352e302e360dc1b81525081565b6040516101e4919061218c565b34801561047b57600080fd5b506103be61048a3660046121bf565b6110ba565b34801561049b57600080fd5b506101936104aa3660046121bf565b6110f2565b3480156104bb57600080fd5b506104eb6104ca366004611feb565b60056020526000908152604090208054600182015460029092015490919083565b604080519384526020840192909252908201526060016101e4565b34801561051257600080fd5b50610193610521366004611fbf565b611176565b34801561053257600080fd5b506101da610541366004611feb565b6111db565b34801561055257600080fd5b50610193610561366004611fbf565b611257565b34801561057257600080fd5b506101da610581366004611feb565b61142b565b6001600160a01b0381166000908152600860205260408120600381015490916105ae846111db565b905080156105cb57600a5460018401556105c881836121ee565b91505b816000036105d95750505050565b60008360030181905550818360020160008282546105f791906121ee565b9091555061060990508483600861148a565b506000905080600a61061c856002612201565b610626919061222e565b60035460405163b3913ea560e01b81526001600160a01b038981166004830152600a60248301529293506000928392169063b3913ea590604401600060405180830381865afa15801561067d573d6000803e3d6000fd5b505050506040513d6000823e601f3d908101601f191682016040526106a591908101906122ce565b9150915060005b818160ff161015610797576000838260ff16815181106106ce576106ce612315565b6020026020010151905060006106e8828460ff1688611695565b90508015610782576000806106ff8484600a61148a565b909250905061070f85600161232b565b60ff16846001600160a01b03168e6001600160a01b03167f195afdfdb7422f6d7d725e1f49dfdd6f73af3c2d7958b88fd1ce35301f6235166001868660405161076b939291909283526020830191909152604082015260600190565b60405180910390a461077d828a6121ee565b985050505b5050808061078f90612344565b9150506106ac565b5060006107a48585612363565b9050801561082b576001546004805460405163a9059cbb60e01b81526001600160a01b0391821692810192909252602482018490529091169063a9059cbb906044016020604051808303816000875af1158015610805573d6000803e3d6000fd5b505050506040513d601f19601f820116820180604052508101906108299190612376565b505b505050505050505050565b6000546040516001620f6cad60e31b031981523360048201526001600160a01b039091169063ff849a989060240160006040518083038186803b15801561087c57600080fd5b505afa158015610890573d6000803e3d6000fd5b5050506001600160a01b0390921660009081526005602052604090206001015550565b60006108be826111db565b6001600160a01b0383166000908152600860205260409020600301546108e491906121ee565b92915050565b60006108f461179d565b805490915060ff600160401b820416159067ffffffffffffffff1660008115801561091c5750825b905060008267ffffffffffffffff1660011480156109395750303b155b905081158015610947575080155b156109655760405163f92ee8a960e01b815260040160405180910390fd5b845467ffffffffffffffff19166001178555831561098f57845460ff60401b1916600160401b1785555b6109976117c6565b886000806101000a8154816001600160a01b0302191690836001600160a01b0316021790555087600360006101000a8154816001600160a01b0302191690836001600160a01b0316021790555086600260006101000a8154816001600160a01b0302191690836001600160a01b0316021790555085600160006101000a8154816001600160a01b0302191690836001600160a01b03160217905550600360068190555089600460006101000a8154816001600160a01b0302191690836001600160a01b0316021790555060076101f490806001815401808255809150506001900390600052602060002090601091828204019190066002029091909190916101000a81548161ffff021916908361ffff160217905550600761019090806001815401808255809150506001900390600052602060002090601091828204019190066002029091909190916101000a81548161ffff021916908361ffff160217905550600761012c90806001815401808255809150506001900390600052602060002090601091828204019190066002029091909190916101000a81548161ffff021916908361ffff160217905550600760c890806001815401808255809150506001900390600052602060002090601091828204019190066002029091909190916101000a81548161ffff021916908361ffff1602179055506000600490505b600a8160ff161015610c015760078054600180820183556000929092527fa66cc928b5edb82af9bd49922954155ab7b0942694bea4ce44661d9a8736c6886010820401805461ffff600f9093166002026101000a9283021916606490920291909117905501610b97565b50831561082957845460ff60401b19168555604051600181527fc7f505b2f371ae2175ee4913f4499e1f2633a7b5936321eed1cdaeb6115181d29060200160405180910390a150505050505050505050565b610c5c816117d0565b50565b600054604051632474521560e21b81527f5251d6875aa2760fdf6c4e9dc418c6e5b858700ff41e1856abce9c6034464cb160048201523360248201526001600160a01b03909116906391d1485490604401602060405180830381865afa158015610ccd573d6000803e3d6000fd5b505050506040513d601f19601f82011682018060405250810190610cf19190612376565b610d2c5760405162461bcd60e51b8152602060048201526007602482015266216c616275627560c81b60448201526064015b60405180910390fd5b600254604080516308760b0d60e01b8152905134926000926001600160a01b03909116916308760b0d916004808201926020929091908290030181865afa158015610d7b573d6000803e3d6000fd5b505050506040513d601f19601f82011682018060405250810190610d9f9190612398565b905064e8d4a5100081610db3846005612201565b610dbd9190612201565b610dc7919061222e565b6001600160a01b03841660009081526005602052604081208054909190610def9084906121ee565b909155505060065464e8d4a51000908290610e0b856005612201565b610e159190612201565b610e1f9190612201565b610e29919061222e565b6001600160a01b03841660009081526005602052604081206001018054909190610e549084906121ee565b909155505060035460405163b3913ea560e01b81526001600160a01b038581166004830152600a6024830152600092839283929091169063b3913ea590604401600060405180830381865afa158015610eb1573d6000803e3d6000fd5b505050506040513d6000823e601f3d908101601f19168201604052610ed991908101906122ce565b9150915060005b818160ff161015610fc9576000838260ff1681518110610f0257610f02612315565b602002602001015190506000610f1c828460ff168a611695565b90508015610fb457600080610f31848461185c565b9092509050610f4185600161232b565b60ff16846001600160a01b03168c6001600160a01b03167f195afdfdb7422f6d7d725e1f49dfdd6f73af3c2d7958b88fd1ce35301f62351660008686604051610f9d939291909283526020830191909152604082015260600190565b60405180910390a4610faf82896121ee565b975050505b50508080610fc190612344565b915050610ee0565b506000610fd68487612363565b90508015610ff457600454610ff4906001600160a01b031682611987565b50505050505050565b611005611a3f565b61100e82611ae4565b6110188282611b4a565b5050565b6000611026611c07565b5060008051602061242483398151915290565b6000546040516001620f6cad60e31b031981523360048201526001600160a01b039091169063ff849a989060240160006040518083038186803b15801561107f57600080fd5b505afa158015611093573d6000803e3d6000fd5b5050600280546001600160a01b0319166001600160a01b0394909416939093179092555050565b600781815481106110ca57600080fd5b9060005260206000209060109182820401919006600202915054906101000a900461ffff1681565b6110fb81611c50565b6001546040516323b872dd60e01b8152336004820152306024820152604481018390526001600160a01b03909116906323b872dd906064016020604051808303816000875af1158015611152573d6000803e3d6000fd5b505050506040513d601f19601f820116820180604052508101906110189190612376565b46617a69146111af5760405162461bcd60e51b8152602060048201526005602482015264085d195cdd60da1b6044820152606401610d23565b6001600160a01b0390911660009081526008602052604090206003810191909155600a54600190910155565b6001600160a01b03811660009081526008602090815260408083208151608081018352815480825260018301549482018590526002830154938201939093526003909101546060820152600a54909264e8d4a51000929161123c9190612363565b6112469190612201565b611250919061222e565b9392505050565b600054604051632474521560e21b81527f5251d6875aa2760fdf6c4e9dc418c6e5b858700ff41e1856abce9c6034464cb160048201523360248201526001600160a01b03909116906391d1485490604401602060405180830381865afa1580156112c5573d6000803e3d6000fd5b505050506040513d601f19601f820116820180604052508101906112e99190612376565b61131f5760405162461bcd60e51b8152602060048201526007602482015266216c616275627560c81b6044820152606401610d23565b611328826117d0565b6001600160a01b038216600090815260086020526040902080548211156113945780546000906113589084612363565b9050806009600001600082825461136f91906121ee565b90915550508154819083906000906113889084906121ee565b909155506113db915050565b80546000906113a4908490612363565b905080600960000160008282546113bb9190612363565b90915550508154819083906000906113d4908490612363565b9091555050505b600a546001820155604080516001600160a01b0385168152602081018490527f09baed3d4c12655cd5f7c13e514a1a96ecfff03a5b76b457554be23ccb62e86191015b60405180910390a1505050565b6001600160a01b038116600090815260056020908152604080832081516060810183528154815260018201549381018490526002909101549181018290529111611476576000611250565b806040015181602001516112509190612363565b60008060006114988661142b565b9050806000036114af57600080925092505061168d565b6002546040805163397d78a160e11b815290516000926001600160a01b0316916372faf1429160048083019260209291908290030181865afa1580156114f9573d6000803e3d6000fd5b505050506040513d601f19601f8201168201806040525081019061151d9190612398565b9050600064e8d4a510006115318884612201565b61153b919061222e565b90508281111561156557816115558464e8d4a51000612201565b61155f919061222e565b96508290505b8615611685576001600160a01b038816600090815260056020526040812060020180548392906115969084906121ee565b90915550506001546001600160a01b031663a9059cbb89600a6115b98a8c612201565b6115c3919061222e565b6040516001600160e01b031960e085901b1681526001600160a01b03909216600483015260248201526044016020604051808303816000875af115801561160e573d6000803e3d6000fd5b505050506040513d601f19601f820116820180604052508101906116329190612376565b50604080516001600160a01b038a16815260208101899052908101829052606081018790527f9cdcf2f7714cca3508c7f0110b04a90a80a3a8dd0e35de99689db74d28c5383e9060800160405180910390a15b869450925050505b935093915050565b600080600784815481106116ab576116ab612315565b600091825260208220601082040154600f9091166002026101000a900461ffff1691506107d06116db8386612201565b6116e5919061222e565b9050806000036116fa57600092505050611250565b6001600160a01b038616600090815260086020526040812054900361172457600092505050611250565b60008560000361173657506001611784565b8560010361175057611749876003611c8e565b9050611784565b8560020361176357611749876005611c8e565b8560030361177657611749876007611c8e565b61178187600a611c8e565b90505b80611790576000611792565b815b979650505050505050565b6000807ff0c57e16840df040f15088dc2f81fe391c3923bec73e23a9662efc9c229c6a006108e4565b6117ce611d97565b565b60006117db826111db565b90508015611018576001600160a01b0382166000908152600860205260408120600a546001820155600381018054919284926118189084906121ee565b9091555050604080516001600160a01b0385168152602081018490527fb21fb52d5749b80f3182f8c6992236b5e5576681880914484d7f4c9b062e619e910161141e565b600080600061186a8561142b565b905080600003611881576000809250925050611980565b600254604080516308760b0d60e01b815290516000926001600160a01b0316916308760b0d9160048083019260209291908290030181865afa1580156118cb573d6000803e3d6000fd5b505050506040513d601f19601f820116820180604052508101906118ef9190612398565b9050600064e8d4a510006119038784612201565b61190d919061222e565b90508281111561193757816119278464e8d4a51000612201565b611931919061222e565b95508290505b8515611978576001600160a01b038716600090815260056020526040812060020180548392906119689084906121ee565b9091555061197890508787611987565b859450925050505b9250929050565b604080516000808252602082019092526001600160a01b0384169083906040516119b191906123b1565b60006040518083038185875af1925050503d80600081146119ee576040519150601f19603f3d011682016040523d82523d6000602084013e6119f3565b606091505b5050905080611a3a5760405162461bcd60e51b815260206004820152601360248201527211551217d514905394d1915497d19052531151606a1b6044820152606401610d23565b505050565b306001600160a01b037f0000000000000000000000000000000000000000000000000000000000000000161480611ac657507f00000000000000000000000000000000000000000000000000000000000000006001600160a01b0316611aba600080516020612424833981519152546001600160a01b031690565b6001600160a01b031614155b156117ce5760405163703e46dd60e11b815260040160405180910390fd5b60005460405163064f638960e31b81526001600160a01b0383811660048301523360248301529091169063327b1c489060440160006040518083038186803b158015611b2f57600080fd5b505afa158015611b43573d6000803e3d6000fd5b5050505050565b816001600160a01b03166352d1902d6040518163ffffffff1660e01b8152600401602060405180830381865afa925050508015611ba4575060408051601f3d908101601f19168201909252611ba191810190612398565b60015b611bcc57604051634c9c8ce360e01b81526001600160a01b0383166004820152602401610d23565b6000805160206124248339815191528114611bfd57604051632a87526960e21b815260048101829052602401610d23565b611a3a8383611dbc565b306001600160a01b037f000000000000000000000000000000000000000000000000000000000000000016146117ce5760405163703e46dd60e11b815260040160405180910390fd5b600081118015611c61575060095415155b15610c5c5760095464e8d4a51000820281611c7e57611c7e612218565b600a805492909104909101905550565b6003546040516341a0894d60e01b81526001600160a01b03848116600483015260009283928392909116906341a0894d90602401600060405180830381865afa158015611cdf573d6000803e3d6000fd5b505050506040513d6000823e601f3d908101601f19168201604052611d0791908101906123cd565b905060005b81518160ff161015611d8b576000828260ff1681518110611d2f57611d2f612315565b6020908102919091018101516001600160a01b0381166000908152600890925260409091205490915015611d6b5783611d678161240a565b9450505b858410611d785750611d8b565b5080611d8381612344565b915050611d0c565b50509091111592915050565b611d9f611e12565b6117ce57604051631afcd79f60e31b815260040160405180910390fd5b611dc582611e2c565b6040516001600160a01b038316907fbc7cd75a20ee27fd9adebab32041f755214dbc6bffa90cc0225b39da2e5c2d3b90600090a2805115611e0a57611a3a8282611e91565b611018611f07565b6000611e1c61179d565b54600160401b900460ff16919050565b806001600160a01b03163b600003611e6257604051634c9c8ce360e01b81526001600160a01b0382166004820152602401610d23565b60008051602061242483398151915280546001600160a01b0319166001600160a01b0392909216919091179055565b6060600080846001600160a01b031684604051611eae91906123b1565b600060405180830381855af49150503d8060008114611ee9576040519150601f19603f3d011682016040523d82523d6000602084013e611eee565b606091505b5091509150611efe858383611f26565b95945050505050565b34156117ce5760405163b398979f60e01b815260040160405180910390fd5b606082611f3b57611f3682611f82565b611250565b8151158015611f5257506001600160a01b0384163b155b15611f7b57604051639996b31560e01b81526001600160a01b0385166004820152602401610d23565b5080611250565b805115611f9157805160208201fd5b60405163d6bda27560e01b815260040160405180910390fd5b6001600160a01b0381168114610c5c57600080fd5b60008060408385031215611fd257600080fd5b8235611fdd81611faa565b946020939093013593505050565b600060208284031215611ffd57600080fd5b813561125081611faa565b600080600080600060a0868803121561202057600080fd5b853561202b81611faa565b9450602086013561203b81611faa565b9350604086013561204b81611faa565b9250606086013561205b81611faa565b9150608086013561206b81611faa565b809150509295509295909350565b634e487b7160e01b600052604160045260246000fd5b604051601f8201601f1916810167ffffffffffffffff811182821017156120b8576120b8612079565b604052919050565b600080604083850312156120d357600080fd5b82356120de81611faa565b915060208381013567ffffffffffffffff808211156120fc57600080fd5b818601915086601f83011261211057600080fd5b81358181111561212257612122612079565b612134601f8201601f1916850161208f565b9150808252878482850101111561214a57600080fd5b80848401858401376000848284010152508093505050509250929050565b60005b8381101561218357818101518382015260200161216b565b50506000910152565b60208152600082518060208401526121ab816040850160208701612168565b601f01601f19169190910160400192915050565b6000602082840312156121d157600080fd5b5035919050565b634e487b7160e01b600052601160045260246000fd5b808201808211156108e4576108e46121d8565b80820281158282048414176108e4576108e46121d8565b634e487b7160e01b600052601260045260246000fd5b60008261224b57634e487b7160e01b600052601260045260246000fd5b500490565b600082601f83011261226157600080fd5b8151602067ffffffffffffffff82111561227d5761227d612079565b8160051b61228c82820161208f565b92835284810182019282810190878511156122a657600080fd5b83870192505b848310156117925782516122bf81611faa565b825291830191908301906122ac565b600080604083850312156122e157600080fd5b825167ffffffffffffffff8111156122f857600080fd5b61230485828601612250565b925050602083015190509250929050565b634e487b7160e01b600052603260045260246000fd5b60ff81811683821601908111156108e4576108e46121d8565b600060ff821660ff810361235a5761235a6121d8565b60010192915050565b818103818111156108e4576108e46121d8565b60006020828403121561238857600080fd5b8151801515811461125057600080fd5b6000602082840312156123aa57600080fd5b5051919050565b600082516123c3818460208701612168565b9190910192915050565b6000602082840312156123df57600080fd5b815167ffffffffffffffff8111156123f657600080fd5b61240284828501612250565b949350505050565b60006001820161241c5761241c6121d8565b506001019056fe360894a13ba1a3210667c828492db98dca3e2076cc3735a920a3ca505d382bbca2646970667358221220bb83a8bf4a82cc052fd4277708bc49f0271d6497b59c14530a03fe49710f8fc464736f6c63430008160033",
  "devdoc": {
    "errors": {
      "AddressEmptyCode(address)": [
        {
          "details": "There's no code at `target` (it is not a contract)."
        }
      ],
      "ERC1967InvalidImplementation(address)": [
        {
          "details": "The `implementation` of the proxy is invalid."
        }
      ],
      "ERC1967NonPayable()": [
        {
          "details": "An upgrade function sees `msg.value > 0` that may be lost."
        }
      ],
      "FailedCall()": [
        {
          "details": "A call to an address target failed. The target may have reverted."
        }
      ],
      "InvalidInitialization()": [
        {
          "details": "The contract is already initialized."
        }
      ],
      "NotInitializing()": [
        {
          "details": "The contract is not initializing."
        }
      ],
      "UUPSUnauthorizedCallContext()": [
        {
          "details": "The call is from an unauthorized context."
        }
      ],
      "UUPSUnsupportedProxiableUUID(bytes32)": [
        {
          "details": "The storage `slot` is unsupported as a UUID."
        }
      ]
    },
    "events": {
      "Initialized(uint64)": {
        "details": "Triggered when the contract has been initialized or reinitialized."
      },
      "Upgraded(address)": {
        "details": "Emitted when the implementation is upgraded."
      }
    },
    "kind": "dev",
    "methods": {
      "constructor": {
        "custom:oz-upgrades-unsafe-allow": "constructor"
      },
      "proxiableUUID()": {
        "details": "Implementation of the ERC-1822 {proxiableUUID} function. This returns the storage slot used by the implementation. It is used to validate the implementation's compatibility when performing an upgrade. IMPORTANT: A proxy pointing at a proxiable contract should not be considered proxiable itself, because this risks bricking a proxy that upgrades to it, by delegating to itself until out of gas. Thus it is critical that this function revert if invoked through a proxy. This is guaranteed by the `notDelegated` modifier."
      },
      "upgradeToAndCall(address,bytes)": {
        "custom:oz-upgrades-unsafe-allow-reachable": "delegatecall",
        "details": "Upgrade the implementation of the proxy to `newImplementation`, and subsequently execute the function call encoded in `data`. Calls {_authorizeUpgrade}. Emits an {Upgraded} event."
      }
    },
    "version": 1
  },
  "userdoc": {
    "kind": "user",
    "methods": {},
    "version": 1
  },
  "storageLayout": {
    "storage": [
      {
        "astId": 3058,
        "contract": "contracts/LabubuRecoupment.sol:LabubuRecoupment",
        "label": "manager",
        "offset": 0,
        "slot": "0",
        "type": "t_contract(IManager)4357"
      },
      {
        "astId": 3060,
        "contract": "contracts/LabubuRecoupment.sol:LabubuRecoupment",
        "label": "labubu",
        "offset": 0,
        "slot": "1",
        "type": "t_address"
      },
      {
        "astId": 3063,
        "contract": "contracts/LabubuRecoupment.sol:LabubuRecoupment",
        "label": "oracle",
        "offset": 0,
        "slot": "2",
        "type": "t_contract(ILabubuOracle)4303"
      },
      {
        "astId": 3066,
        "contract": "contracts/LabubuRecoupment.sol:LabubuRecoupment",
        "label": "registerV2",
        "offset": 0,
        "slot": "3",
        "type": "t_contract(IRegisterV2)4401"
      },
      {
        "astId": 3068,
        "contract": "contracts/LabubuRecoupment.sol:LabubuRecoupment",
        "label": "marketAddress",
        "offset": 0,
        "slot": "4",
        "type": "t_address"
      },
      {
        "astId": 3073,
        "contract": "contracts/LabubuRecoupment.sol:LabubuRecoupment",
        "label": "recoupments",
        "offset": 0,
        "slot": "5",
        "type": "t_mapping(t_address,t_struct(Recoupment)3105_storage)"
      },
      {
        "astId": 3075,
        "contract": "contracts/LabubuRecoupment.sol:LabubuRecoupment",
        "label": "quotaTimes",
        "offset": 0,
        "slot": "6",
        "type": "t_uint256"
      },
      {
        "astId": 3081,
        "contract": "contracts/LabubuRecoupment.sol:LabubuRecoupment",
        "label": "invitationAwardRates",
        "offset": 0,
        "slot": "7",
        "type": "t_array(t_uint16)dyn_storage"
      },
      {
        "astId": 3086,
        "contract": "contracts/LabubuRecoupment.sol:LabubuRecoupment",
        "label": "payees",
        "offset": 0,
        "slot": "8",
        "type": "t_mapping(t_address,t_struct(Payee)3098_storage)"
      },
      {
        "astId": 3089,
        "contract": "contracts/LabubuRecoupment.sol:LabubuRecoupment",
        "label": "statistic",
        "offset": 0,
        "slot": "9",
        "type": "t_struct(Statistic)3110_storage"
      }
    ],
    "types": {
      "t_address": {
        "encoding": "inplace",
        "label": "address",
        "numberOfBytes": "20"
      },
      "t_array(t_uint16)dyn_storage": {
        "base": "t_uint16",
        "encoding": "dynamic_array",
        "label": "uint16[]",
        "numberOfBytes": "32"
      },
      "t_contract(ILabubuOracle)4303": {
        "encoding": "inplace",
        "label": "contract ILabubuOracle",
        "numberOfBytes": "20"
      },
      "t_contract(IManager)4357": {
        "encoding": "inplace",
        "label": "contract IManager",
        "numberOfBytes": "20"
      },
      "t_contract(IRegisterV2)4401": {
        "encoding": "inplace",
        "label": "contract IRegisterV2",
        "numberOfBytes": "20"
      },
      "t_mapping(t_address,t_struct(Payee)3098_storage)": {
        "encoding": "mapping",
        "key": "t_address",
        "label": "mapping(address => struct LabubuRecoupment.Payee)",
        "numberOfBytes": "32",
        "value": "t_struct(Payee)3098_storage"
      },
      "t_mapping(t_address,t_struct(Recoupment)3105_storage)": {
        "encoding": "mapping",
        "key": "t_address",
        "label": "mapping(address => struct LabubuRecoupment.Recoupment)",
        "numberOfBytes": "32",
        "value": "t_struct(Recoupment)3105_storage"
      },
      "t_struct(Payee)3098_storage": {
        "encoding": "inplace",
        "label": "struct LabubuRecoupment.Payee",
        "members": [
          {
            "astId": 3091,
            "contract": "contracts/LabubuRecoupment.sol:LabubuRecoupment",
            "label": "share",
            "offset": 0,
            "slot": "0",
            "type": "t_uint256"
          },
          {
            "astId": 3093,
            "contract": "contracts/LabubuRecoupment.sol:LabubuRecoupment",
            "label": "debt",
            "offset": 0,
            "slot": "1",
            "type": "t_uint256"
          },
          {
            "astId": 3095,
            "contract": "contracts/LabubuRecoupment.sol:LabubuRecoupment",
            "label": "claimed",
            "offset": 0,
            "slot": "2",
            "type": "t_uint256"
          },
          {
            "astId": 3097,
            "contract": "contracts/LabubuRecoupment.sol:LabubuRecoupment",
            "label": "available",
            "offset": 0,
            "slot": "3",
            "type": "t_uint256"
          }
        ],
        "numberOfBytes": "128"
      },
      "t_struct(Recoupment)3105_storage": {
        "encoding": "inplace",
        "label": "struct LabubuRecoupment.Recoupment",
        "members": [
          {
            "astId": 3100,
            "contract": "contracts/LabubuRecoupment.sol:LabubuRecoupment",
            "label": "deposit",
            "offset": 0,
            "slot": "0",
            "type": "t_uint256"
          },
          {
            "astId": 3102,
            "contract": "contracts/LabubuRecoupment.sol:LabubuRecoupment",
            "label": "quota",
            "offset": 0,
            "slot": "1",
            "type": "t_uint256"
          },
          {
            "astId": 3104,
            "contract": "contracts/LabubuRecoupment.sol:LabubuRecoupment",
            "label": "claimed",
            "offset": 0,
            "slot": "2",
            "type": "t_uint256"
          }
        ],
        "numberOfBytes": "96"
      },
      "t_struct(Statistic)3110_storage": {
        "encoding": "inplace",
        "label": "struct LabubuRecoupment.Statistic",
        "members": [
          {
            "astId": 3107,
            "contract": "contracts/LabubuRecoupment.sol:LabubuRecoupment",
            "label": "total",
            "offset": 0,
            "slot": "0",
            "type": "t_uint256"
          },
          {
            "astId": 3109,
            "contract": "contracts/LabubuRecoupment.sol:LabubuRecoupment",
            "label": "perDebt",
            "offset": 0,
            "slot": "1",
            "type": "t_uint256"
          }
        ],
        "numberOfBytes": "64"
      },
      "t_uint16": {
        "encoding": "inplace",
        "label": "uint16",
        "numberOfBytes": "2"
      },
      "t_uint256": {
        "encoding": "inplace",
        "label": "uint256",
        "numberOfBytes": "32"
      }
    }
  }
}