{
  "address": "0x0d98a369ffAe46CAa95964336E337c5f032Ca482",
  "abi": [
    {
      "inputs": [],
      "stateMutability": "nonpayable",
      "type": "constructor"
    },
    {
      "inputs": [
        {
          "internalType": "address",
          "name": "target",
          "type": "address"
        }
      ],
      "name": "AddressEmptyCode",
      "type": "error"
    },
    {
      "inputs": [
        {
          "internalType": "address",
          "name": "implementation",
          "type": "address"
        }
      ],
      "name": "ERC1967InvalidImplementation",
      "type": "error"
    },
    {
      "inputs": [],
      "name": "ERC1967NonPayable",
      "type": "error"
    },
    {
      "inputs": [],
      "name": "FailedCall",
      "type": "error"
    },
    {
      "inputs": [],
      "name": "InvalidInitialization",
      "type": "error"
    },
    {
      "inputs": [],
      "name": "NotInitializing",
      "type": "error"
    },
    {
      "inputs": [],
      "name": "UUPSUnauthorizedCallContext",
      "type": "error"
    },
    {
      "inputs": [
        {
          "internalType": "bytes32",
          "name": "slot",
          "type": "bytes32"
        }
      ],
      "name": "UUPSUnsupportedProxiableUUID",
      "type": "error"
    },
    {
      "anonymous": false,
      "inputs": [
        {
          "indexed": false,
          "internalType": "uint64",
          "name": "version",
          "type": "uint64"
        }
      ],
      "name": "Initialized",
      "type": "event"
    },
    {
      "anonymous": false,
      "inputs": [
        {
          "indexed": true,
          "internalType": "address",
          "name": "implementation",
          "type": "address"
        }
      ],
      "name": "Upgraded",
      "type": "event"
    },
    {
      "inputs": [],
      "name": "UPGRADE_INTERFACE_VERSION",
      "outputs": [
        {
          "internalType": "string",
          "name": "",
          "type": "string"
        }
      ],
      "stateMutability": "view",
      "type": "function"
    },
    {
      "inputs": [],
      "name": "getBnbPrice",
      "outputs": [
        {
          "internalType": "uint256",
          "name": "price",
          "type": "uint256"
        }
      ],
      "stateMutability": "view",
      "type": "function"
    },
    {
      "inputs": [],
      "name": "getDecline",
      "outputs": [
        {
          "internalType": "uint256",
          "name": "",
          "type": "uint256"
        }
      ],
      "stateMutability": "view",
      "type": "function"
    },
    {
      "inputs": [],
      "name": "getLabubuPrice",
      "outputs": [
        {
          "internalType": "uint256",
          "name": "price",
          "type": "uint256"
        }
      ],
      "stateMutability": "view",
      "type": "function"
    },
    {
      "inputs": [],
      "name": "getOpenPrice",
      "outputs": [
        {
          "internalType": "uint256",
          "name": "",
          "type": "uint256"
        },
        {
          "internalType": "uint256",
          "name": "",
          "type": "uint256"
        },
        {
          "internalType": "bool",
          "name": "",
          "type": "bool"
        }
      ],
      "stateMutability": "view",
      "type": "function"
    },
    {
      "inputs": [
        {
          "internalType": "contract IManager",
          "name": "_manager",
          "type": "address"
        },
        {
          "internalType": "contract IPancakePair",
          "name": "_pair",
          "type": "address"
        },
        {
          "internalType": "address",
          "name": "_labubu",
          "type": "address"
        }
      ],
      "name": "initialize",
      "outputs": [],
      "stateMutability": "nonpayable",
      "type": "function"
    },
    {
      "inputs": [],
      "name": "labubu",
      "outputs": [
        {
          "internalType": "address",
          "name": "",
          "type": "address"
        }
      ],
      "stateMutability": "view",
      "type": "function"
    },
    {
      "inputs": [
        {
          "internalType": "uint256",
          "name": "",
          "type": "uint256"
        }
      ],
      "name": "labubuOpenPrice",
      "outputs": [
        {
          "internalType": "uint256",
          "name": "",
          "type": "uint256"
        }
      ],
      "stateMutability": "view",
      "type": "function"
    },
    {
      "inputs": [],
      "name": "manager",
      "outputs": [
        {
          "internalType": "contract IManager",
          "name": "",
          "type": "address"
        }
      ],
      "stateMutability": "view",
      "type": "function"
    },
    {
      "inputs": [],
      "name": "pair",
      "outputs": [
        {
          "internalType": "contract IPancakePair",
          "name": "",
          "type": "address"
        }
      ],
      "stateMutability": "view",
      "type": "function"
    },
    {
      "inputs": [],
      "name": "proxiableUUID",
      "outputs": [
        {
          "internalType": "bytes32",
          "name": "",
          "type": "bytes32"
        }
      ],
      "stateMutability": "view",
      "type": "function"
    },
    {
      "inputs": [
        {
          "internalType": "uint256",
          "name": "price",
          "type": "uint256"
        }
      ],
      "name": "setLabubuPriceForTest",
      "outputs": [],
      "stateMutability": "nonpayable",
      "type": "function"
    },
    {
      "inputs": [],
      "name": "setOpenPrice",
      "outputs": [
        {
          "internalType": "uint256",
          "name": "",
          "type": "uint256"
        },
        {
          "internalType": "uint256",
          "name": "",
          "type": "uint256"
        }
      ],
      "stateMutability": "nonpayable",
      "type": "function"
    },
    {
      "inputs": [
        {
          "internalType": "uint256",
          "name": "price",
          "type": "uint256"
        }
      ],
      "name": "setOpenPriceByAdmin",
      "outputs": [],
      "stateMutability": "nonpayable",
      "type": "function"
    },
    {
      "inputs": [
        {
          "internalType": "address",
          "name": "newImplementation",
          "type": "address"
        },
        {
          "internalType": "bytes",
          "name": "data",
          "type": "bytes"
        }
      ],
      "name": "upgradeToAndCall",
      "outputs": [],
      "stateMutability": "payable",
      "type": "function"
    }
  ],
  "transactionHash": "0x21547ec650a14fd4049887cb6d36a33c59d54a971439bd8fbf5d6d348bb32f42",
  "args": [],
  "numDeployments": 1,
  "solcInputHash": "7553a6975e1a4efe644521793562b6bf",
  "bytecode": "0x60a06040523060805234801561001457600080fd5b5061001d610022565b6100d4565b7ff0c57e16840df040f15088dc2f81fe391c3923bec73e23a9662efc9c229c6a00805468010000000000000000900460ff16156100725760405163f92ee8a960e01b815260040160405180910390fd5b80546001600160401b03908116146100d15780546001600160401b0319166001600160401b0390811782556040519081527fc7f505b2f371ae2175ee4913f4499e1f2633a7b5936321eed1cdaeb6115181d29060200160405180910390a15b50565b6080516110746100fd60003960008181610897015281816108c00152610a6b01526110746000f3fe6080604052600436106100e85760003560e01c806352d1902d1161008a57806379f807cf1161005957806379f807cf14610258578063a8aa1b311461028a578063ad3cb1cc146102aa578063c0c53b8b146102e857600080fd5b806352d1902d146101f95780636e7139e81461020e5780637128a3f31461022e57806372faf1421461024357600080fd5b8063346748e0116100c6578063346748e01461016f5780633b6fcd7414610199578063481c6a75146101c65780634f1ef286146101e657600080fd5b806308760b0d146100ed57806313f5c2461461011557806326156ad11461014d575b600080fd5b3480156100f957600080fd5b50610102610308565b6040519081526020015b60405180910390f35b34801561012157600080fd5b50600254610135906001600160a01b031681565b6040516001600160a01b03909116815260200161010c565b34801561015957600080fd5b5061016d610168366004610cf2565b6103c7565b005b34801561017b57600080fd5b506101846103d9565b6040805192835260208301919091520161010c565b3480156101a557600080fd5b506101026101b4366004610cf2565b60036020526000908152604090205481565b3480156101d257600080fd5b50600054610135906001600160a01b031681565b61016d6101f4366004610d36565b610438565b34801561020557600080fd5b50610102610457565b34801561021a57600080fd5b5061016d610229366004610cf2565b610474565b34801561023a57600080fd5b506101026104f8565b34801561024f57600080fd5b5061010261058a565b34801561026457600080fd5b5061026d6106fa565b60408051938452602084019290925215159082015260600161010c565b34801561029657600080fd5b50600154610135906001600160a01b031681565b3480156102b657600080fd5b506102db604051806040016040528060058152602001640352e302e360dc1b81525081565b60405161010c9190610e1e565b3480156102f457600080fd5b5061016d610303366004610e51565b610752565b60004660381461031e575066038d7ea4c6800090565b6000807316b9a82891338f9ba80e2d6970fdda79d1eb0dae6001600160a01b0316630902f1ac6040518163ffffffff1660e01b8152600401606060405180830381865afa158015610373573d6000803e3d6000fd5b505050506040513d601f19601f820116820180604052508101906103979190610eb8565b509092509050806103ad8364e8d4a51000610f13565b6103b79190610f54565b6001600160701b03169250505090565b46617a69036103d65760048190555b50565b600080806103ea6201518042610f7a565b905060006103f661058a565b6000838152600360205260408120549192500361041f5760008281526003602052604090208190555b5060008181526003602052604090205490939092509050565b61044061088c565b61044982610933565b6104538282610999565b5050565b6000610461610a60565b5060008051602061101f83398151915290565b6000546040516001620f6cad60e31b031981523360048201526001600160a01b039091169063ff849a989060240160006040518083038186803b1580156104ba57600080fd5b505afa1580156104ce573d6000803e3d6000fd5b50505050600062015180426104e39190610f7a565b60009081526003602052604090209190915550565b6000806105086201518042610f7a565b60008181526003602052604081205491925081900361052a5760009250505090565b600061053461058a565b9050818110610547576000935050505090565b6000826105548382610f8e565b61056090612710610fa1565b61056a9190610f7a565b9050610577606482610fb8565b6105819082610f8e565b94505050505090565b600060045460001461059d575060045490565b600080600160009054906101000a90046001600160a01b03166001600160a01b0316630902f1ac6040518163ffffffff1660e01b8152600401606060405180830381865afa1580156105f3573d6000803e3d6000fd5b505050506040513d601f19601f820116820180604052508101906106179190610eb8565b5060025460015460408051630dfe168160e01b815290519496509294506001600160a01b0391821693911691630dfe16819160048083019260209291908290030181865afa15801561066d573d6000803e3d6000fd5b505050506040513d601f19601f820116820180604052508101906106919190610fcc565b6001600160a01b0316036106d557816001600160701b03166106b1610308565b6106c4906001600160701b038416610fa1565b6106ce9190610f7a565b9250505090565b806001600160701b03166106e7610308565b6106c4906001600160701b038516610fa1565b600080808061070c6201518042610f7a565b60008181526003602052604081205491925090151590816107345761072f61058a565b610744565b6000838152600360205260409020545b929692955090935090915050565b600061075c610aa9565b805490915060ff600160401b820416159067ffffffffffffffff166000811580156107845750825b905060008267ffffffffffffffff1660011480156107a15750303b155b9050811580156107af575080155b156107cd5760405163f92ee8a960e01b815260040160405180910390fd5b845467ffffffffffffffff1916600117855583156107f757845460ff60401b1916600160401b1785555b6107ff610ad4565b600080546001600160a01b03808b166001600160a01b031992831617909255600180548a84169083161790556002805492891692909116919091179055831561088257845460ff60401b19168555604051600181527fc7f505b2f371ae2175ee4913f4499e1f2633a7b5936321eed1cdaeb6115181d29060200160405180910390a15b5050505050505050565b306001600160a01b037f000000000000000000000000000000000000000000000000000000000000000016148061091357507f00000000000000000000000000000000000000000000000000000000000000006001600160a01b031661090760008051602061101f833981519152546001600160a01b031690565b6001600160a01b031614155b156109315760405163703e46dd60e11b815260040160405180910390fd5b565b60005460405163064f638960e31b81526001600160a01b0383811660048301523360248301529091169063327b1c489060440160006040518083038186803b15801561097e57600080fd5b505afa158015610992573d6000803e3d6000fd5b5050505050565b816001600160a01b03166352d1902d6040518163ffffffff1660e01b8152600401602060405180830381865afa9250505080156109f3575060408051601f3d908101601f191682019092526109f091810190610fe9565b60015b610a2057604051634c9c8ce360e01b81526001600160a01b03831660048201526024015b60405180910390fd5b60008051602061101f8339815191528114610a5157604051632a87526960e21b815260048101829052602401610a17565b610a5b8383610adc565b505050565b306001600160a01b037f000000000000000000000000000000000000000000000000000000000000000016146109315760405163703e46dd60e11b815260040160405180910390fd5b6000807ff0c57e16840df040f15088dc2f81fe391c3923bec73e23a9662efc9c229c6a005b92915050565b610931610b32565b610ae582610b57565b6040516001600160a01b038316907fbc7cd75a20ee27fd9adebab32041f755214dbc6bffa90cc0225b39da2e5c2d3b90600090a2805115610b2a57610a5b8282610bbc565b610453610c32565b610b3a610c51565b61093157604051631afcd79f60e31b815260040160405180910390fd5b806001600160a01b03163b600003610b8d57604051634c9c8ce360e01b81526001600160a01b0382166004820152602401610a17565b60008051602061101f83398151915280546001600160a01b0319166001600160a01b0392909216919091179055565b6060600080846001600160a01b031684604051610bd99190611002565b600060405180830381855af49150503d8060008114610c14576040519150601f19603f3d011682016040523d82523d6000602084013e610c19565b606091505b5091509150610c29858383610c6b565b95945050505050565b34156109315760405163b398979f60e01b815260040160405180910390fd5b6000610c5b610aa9565b54600160401b900460ff16919050565b606082610c8057610c7b82610cca565b610cc3565b8151158015610c9757506001600160a01b0384163b155b15610cc057604051639996b31560e01b81526001600160a01b0385166004820152602401610a17565b50805b9392505050565b805115610cd957805160208201fd5b60405163d6bda27560e01b815260040160405180910390fd5b600060208284031215610d0457600080fd5b5035919050565b6001600160a01b03811681146103d657600080fd5b634e487b7160e01b600052604160045260246000fd5b60008060408385031215610d4957600080fd5b8235610d5481610d0b565b9150602083013567ffffffffffffffff80821115610d7157600080fd5b818501915085601f830112610d8557600080fd5b813581811115610d9757610d97610d20565b604051601f8201601f19908116603f01168101908382118183101715610dbf57610dbf610d20565b81604052828152886020848701011115610dd857600080fd5b8260208601602083013760006020848301015280955050505050509250929050565b60005b83811015610e15578181015183820152602001610dfd565b50506000910152565b6020815260008251806020840152610e3d816040850160208701610dfa565b601f01601f19169190910160400192915050565b600080600060608486031215610e6657600080fd5b8335610e7181610d0b565b92506020840135610e8181610d0b565b91506040840135610e9181610d0b565b809150509250925092565b80516001600160701b0381168114610eb357600080fd5b919050565b600080600060608486031215610ecd57600080fd5b610ed684610e9c565b9250610ee460208501610e9c565b9150604084015163ffffffff81168114610e9157600080fd5b634e487b7160e01b600052601160045260246000fd5b6001600160701b03818116838216028082169190828114610f3657610f36610efd565b505092915050565b634e487b7160e01b600052601260045260246000fd5b60006001600160701b0380841680610f6e57610f6e610f3e565b92169190910492915050565b600082610f8957610f89610f3e565b500490565b81810381811115610ace57610ace610efd565b8082028115828204841417610ace57610ace610efd565b600082610fc757610fc7610f3e565b500690565b600060208284031215610fde57600080fd5b8151610cc381610d0b565b600060208284031215610ffb57600080fd5b5051919050565b60008251611014818460208701610dfa565b919091019291505056fe360894a13ba1a3210667c828492db98dca3e2076cc3735a920a3ca505d382bbca264697066735822122059983d16636b153218fb74e3bc026b4731e081ce11d827998fcb3abee88ca36a64736f6c63430008160033",
  "devdoc": {
    "errors": {
      "AddressEmptyCode(address)": [
        {
          "details": "There's no code at `target` (it is not a contract)."
        }
      ],
      "ERC1967InvalidImplementation(address)": [
        {
          "details": "The `implementation` of the proxy is invalid."
        }
      ],
      "ERC1967NonPayable()": [
        {
          "details": "An upgrade function sees `msg.value > 0` that may be lost."
        }
      ],
      "FailedCall()": [
        {
          "details": "A call to an address target failed. The target may have reverted."
        }
      ],
      "InvalidInitialization()": [
        {
          "details": "The contract is already initialized."
        }
      ],
      "NotInitializing()": [
        {
          "details": "The contract is not initializing."
        }
      ],
      "UUPSUnauthorizedCallContext()": [
        {
          "details": "The call is from an unauthorized context."
        }
      ],
      "UUPSUnsupportedProxiableUUID(bytes32)": [
        {
          "details": "The storage `slot` is unsupported as a UUID."
        }
      ]
    },
    "events": {
      "Initialized(uint64)": {
        "details": "Triggered when the contract has been initialized or reinitialized."
      },
      "Upgraded(address)": {
        "details": "Emitted when the implementation is upgraded."
      }
    },
    "kind": "dev",
    "methods": {
      "constructor": {
        "custom:oz-upgrades-unsafe-allow": "constructor"
      },
      "proxiableUUID()": {
        "details": "Implementation of the ERC-1822 {proxiableUUID} function. This returns the storage slot used by the implementation. It is used to validate the implementation's compatibility when performing an upgrade. IMPORTANT: A proxy pointing at a proxiable contract should not be considered proxiable itself, because this risks bricking a proxy that upgrades to it, by delegating to itself until out of gas. Thus it is critical that this function revert if invoked through a proxy. This is guaranteed by the `notDelegated` modifier."
      },
      "upgradeToAndCall(address,bytes)": {
        "custom:oz-upgrades-unsafe-allow-reachable": "delegatecall",
        "details": "Upgrade the implementation of the proxy to `newImplementation`, and subsequently execute the function call encoded in `data`. Calls {_authorizeUpgrade}. Emits an {Upgraded} event."
      }
    },
    "version": 1
  },
  "userdoc": {
    "kind": "user",
    "methods": {},
    "version": 1
  },
  "storageLayout": {
    "storage": [
      {
        "astId": 3051,
        "contract": "contracts/LabubuOracle.sol:LabubuOracle",
        "label": "manager",
        "offset": 0,
        "slot": "0",
        "type": "t_contract(IManager)4702"
      },
      {
        "astId": 3054,
        "contract": "contracts/LabubuOracle.sol:LabubuOracle",
        "label": "pair",
        "offset": 0,
        "slot": "1",
        "type": "t_contract(IPancakePair)5401"
      },
      {
        "astId": 3056,
        "contract": "contracts/LabubuOracle.sol:LabubuOracle",
        "label": "labubu",
        "offset": 0,
        "slot": "2",
        "type": "t_address"
      },
      {
        "astId": 3060,
        "contract": "contracts/LabubuOracle.sol:LabubuOracle",
        "label": "labubuOpenPrice",
        "offset": 0,
        "slot": "3",
        "type": "t_mapping(t_uint256,t_uint256)"
      },
      {
        "astId": 3062,
        "contract": "contracts/LabubuOracle.sol:LabubuOracle",
        "label": "labubuTestPrice",
        "offset": 0,
        "slot": "4",
        "type": "t_uint256"
      }
    ],
    "types": {
      "t_address": {
        "encoding": "inplace",
        "label": "address",
        "numberOfBytes": "20"
      },
      "t_contract(IManager)4702": {
        "encoding": "inplace",
        "label": "contract IManager",
        "numberOfBytes": "20"
      },
      "t_contract(IPancakePair)5401": {
        "encoding": "inplace",
        "label": "contract IPancakePair",
        "numberOfBytes": "20"
      },
      "t_mapping(t_uint256,t_uint256)": {
        "encoding": "mapping",
        "key": "t_uint256",
        "label": "mapping(uint256 => uint256)",
        "numberOfBytes": "32",
        "value": "t_uint256"
      },
      "t_uint256": {
        "encoding": "inplace",
        "label": "uint256",
        "numberOfBytes": "32"
      }
    }
  }
}