{
  "address": "0x0a9318CDE90722CbB15749df1Bc25ebF3146a747",
  "abi": [
    {
      "inputs": [],
      "name": "AccessControlBadConfirmation",
      "type": "error"
    },
    {
      "inputs": [
        {
          "internalType": "address",
          "name": "account",
          "type": "address"
        },
        {
          "internalType": "bytes32",
          "name": "neededRole",
          "type": "bytes32"
        }
      ],
      "name": "AccessControlUnauthorizedAccount",
      "type": "error"
    },
    {
      "inputs": [
        {
          "internalType": "address",
          "name": "target",
          "type": "address"
        }
      ],
      "name": "AddressEmptyCode",
      "type": "error"
    },
    {
      "inputs": [
        {
          "internalType": "address",
          "name": "implementation",
          "type": "address"
        }
      ],
      "name": "ERC1967InvalidImplementation",
      "type": "error"
    },
    {
      "inputs": [],
      "name": "ERC1967NonPayable",
      "type": "error"
    },
    {
      "inputs": [],
      "name": "FailedCall",
      "type": "error"
    },
    {
      "inputs": [],
      "name": "InvalidInitialization",
      "type": "error"
    },
    {
      "inputs": [],
      "name": "NotInitializing",
      "type": "error"
    },
    {
      "inputs": [],
      "name": "UUPSUnauthorizedCallContext",
      "type": "error"
    },
    {
      "inputs": [
        {
          "internalType": "bytes32",
          "name": "slot",
          "type": "bytes32"
        }
      ],
      "name": "UUPSUnsupportedProxiableUUID",
      "type": "error"
    },
    {
      "anonymous": false,
      "inputs": [
        {
          "indexed": false,
          "internalType": "uint64",
          "name": "version",
          "type": "uint64"
        }
      ],
      "name": "Initialized",
      "type": "event"
    },
    {
      "anonymous": false,
      "inputs": [
        {
          "indexed": true,
          "internalType": "bytes32",
          "name": "role",
          "type": "bytes32"
        },
        {
          "indexed": true,
          "internalType": "bytes32",
          "name": "previousAdminRole",
          "type": "bytes32"
        },
        {
          "indexed": true,
          "internalType": "bytes32",
          "name": "newAdminRole",
          "type": "bytes32"
        }
      ],
      "name": "RoleAdminChanged",
      "type": "event"
    },
    {
      "anonymous": false,
      "inputs": [
        {
          "indexed": true,
          "internalType": "bytes32",
          "name": "role",
          "type": "bytes32"
        },
        {
          "indexed": true,
          "internalType": "address",
          "name": "account",
          "type": "address"
        },
        {
          "indexed": true,
          "internalType": "address",
          "name": "sender",
          "type": "address"
        }
      ],
      "name": "RoleGranted",
      "type": "event"
    },
    {
      "anonymous": false,
      "inputs": [
        {
          "indexed": true,
          "internalType": "bytes32",
          "name": "role",
          "type": "bytes32"
        },
        {
          "indexed": true,
          "internalType": "address",
          "name": "account",
          "type": "address"
        },
        {
          "indexed": true,
          "internalType": "address",
          "name": "sender",
          "type": "address"
        }
      ],
      "name": "RoleRevoked",
      "type": "event"
    },
    {
      "anonymous": false,
      "inputs": [
        {
          "indexed": true,
          "internalType": "address",
          "name": "implementation",
          "type": "address"
        }
      ],
      "name": "Upgraded",
      "type": "event"
    },
    {
      "inputs": [],
      "name": "DEFAULT_ADMIN_ROLE",
      "outputs": [
        {
          "internalType": "bytes32",
          "name": "",
          "type": "bytes32"
        }
      ],
      "stateMutability": "view",
      "type": "function"
    },
    {
      "inputs": [],
      "name": "UPGRADE_INTERFACE_VERSION",
      "outputs": [
        {
          "internalType": "string",
          "name": "",
          "type": "string"
        }
      ],
      "stateMutability": "view",
      "type": "function"
    },
    {
      "inputs": [
        {
          "internalType": "address",
          "name": "sender",
          "type": "address"
        }
      ],
      "name": "allowBitMiner",
      "outputs": [],
      "stateMutability": "view",
      "type": "function"
    },
    {
      "inputs": [
        {
          "internalType": "address",
          "name": "sender",
          "type": "address"
        }
      ],
      "name": "allowFoundation",
      "outputs": [],
      "stateMutability": "view",
      "type": "function"
    },
    {
      "inputs": [
        {
          "internalType": "address",
          "name": "sender",
          "type": "address"
        }
      ],
      "name": "allowMint",
      "outputs": [],
      "stateMutability": "view",
      "type": "function"
    },
    {
      "inputs": [
        {
          "internalType": "address",
          "name": "sender",
          "type": "address"
        }
      ],
      "name": "allowParam",
      "outputs": [],
      "stateMutability": "view",
      "type": "function"
    },
    {
      "inputs": [
        {
          "internalType": "address",
          "name": "newImplementation",
          "type": "address"
        },
        {
          "internalType": "address",
          "name": "sender",
          "type": "address"
        }
      ],
      "name": "allowUpgrade",
      "outputs": [],
      "stateMutability": "view",
      "type": "function"
    },
    {
      "inputs": [
        {
          "internalType": "string",
          "name": "name",
          "type": "string"
        }
      ],
      "name": "getKeccak256",
      "outputs": [
        {
          "internalType": "bytes32",
          "name": "",
          "type": "bytes32"
        }
      ],
      "stateMutability": "pure",
      "type": "function"
    },
    {
      "inputs": [
        {
          "internalType": "bytes32",
          "name": "role",
          "type": "bytes32"
        }
      ],
      "name": "getRoleAdmin",
      "outputs": [
        {
          "internalType": "bytes32",
          "name": "",
          "type": "bytes32"
        }
      ],
      "stateMutability": "view",
      "type": "function"
    },
    {
      "inputs": [
        {
          "internalType": "bytes32",
          "name": "role",
          "type": "bytes32"
        },
        {
          "internalType": "uint256",
          "name": "index",
          "type": "uint256"
        }
      ],
      "name": "getRoleMember",
      "outputs": [
        {
          "internalType": "address",
          "name": "",
          "type": "address"
        }
      ],
      "stateMutability": "view",
      "type": "function"
    },
    {
      "inputs": [
        {
          "internalType": "bytes32",
          "name": "role",
          "type": "bytes32"
        }
      ],
      "name": "getRoleMemberCount",
      "outputs": [
        {
          "internalType": "uint256",
          "name": "",
          "type": "uint256"
        }
      ],
      "stateMutability": "view",
      "type": "function"
    },
    {
      "inputs": [
        {
          "internalType": "bytes32",
          "name": "role",
          "type": "bytes32"
        }
      ],
      "name": "getRoleMembers",
      "outputs": [
        {
          "internalType": "address[]",
          "name": "",
          "type": "address[]"
        }
      ],
      "stateMutability": "view",
      "type": "function"
    },
    {
      "inputs": [
        {
          "internalType": "bytes32",
          "name": "role",
          "type": "bytes32"
        },
        {
          "internalType": "address",
          "name": "account",
          "type": "address"
        }
      ],
      "name": "grantRole",
      "outputs": [],
      "stateMutability": "nonpayable",
      "type": "function"
    },
    {
      "inputs": [
        {
          "internalType": "address",
          "name": "sender",
          "type": "address"
        }
      ],
      "name": "hasFreeRole",
      "outputs": [
        {
          "internalType": "bool",
          "name": "",
          "type": "bool"
        }
      ],
      "stateMutability": "view",
      "type": "function"
    },
    {
      "inputs": [
        {
          "internalType": "bytes32",
          "name": "role",
          "type": "bytes32"
        },
        {
          "internalType": "address",
          "name": "account",
          "type": "address"
        }
      ],
      "name": "hasRole",
      "outputs": [
        {
          "internalType": "bool",
          "name": "",
          "type": "bool"
        }
      ],
      "stateMutability": "view",
      "type": "function"
    },
    {
      "inputs": [],
      "name": "initialize",
      "outputs": [],
      "stateMutability": "nonpayable",
      "type": "function"
    },
    {
      "inputs": [],
      "name": "proxiableUUID",
      "outputs": [
        {
          "internalType": "bytes32",
          "name": "",
          "type": "bytes32"
        }
      ],
      "stateMutability": "view",
      "type": "function"
    },
    {
      "inputs": [
        {
          "internalType": "bytes32",
          "name": "role",
          "type": "bytes32"
        },
        {
          "internalType": "address",
          "name": "callerConfirmation",
          "type": "address"
        }
      ],
      "name": "renounceRole",
      "outputs": [],
      "stateMutability": "nonpayable",
      "type": "function"
    },
    {
      "inputs": [
        {
          "internalType": "bytes32",
          "name": "role",
          "type": "bytes32"
        },
        {
          "internalType": "address",
          "name": "account",
          "type": "address"
        }
      ],
      "name": "revokeRole",
      "outputs": [],
      "stateMutability": "nonpayable",
      "type": "function"
    },
    {
      "inputs": [
        {
          "internalType": "bytes4",
          "name": "interfaceId",
          "type": "bytes4"
        }
      ],
      "name": "supportsInterface",
      "outputs": [
        {
          "internalType": "bool",
          "name": "",
          "type": "bool"
        }
      ],
      "stateMutability": "view",
      "type": "function"
    },
    {
      "inputs": [
        {
          "internalType": "address",
          "name": "newImplementation",
          "type": "address"
        },
        {
          "internalType": "bytes",
          "name": "data",
          "type": "bytes"
        }
      ],
      "name": "upgradeToAndCall",
      "outputs": [],
      "stateMutability": "payable",
      "type": "function"
    }
  ],
  "transactionHash": "0x6472970bcf6b5519c3a7d5167aced7034f428ae00aaf42a7529abcee5286c832",
  "args": [],
  "numDeployments": 2,
  "solcInputHash": "9bca73a8a22b58ab5e9a941c512a6922",
  "bytecode": "0x60a06040523060805234801561001457600080fd5b506080516115fb61003e60003960008181610adf01528181610b080152610c4d01526115fb6000f3fe6080604052600436106101295760003560e01c8063640cff98116100ab578063a3246ad31161006f578063a3246ad31461031d578063ad3cb1cc1461034a578063bf433ea614610388578063ca15c873146103a8578063d547741f146103c8578063ff849a98146103e857600080fd5b8063640cff981461027b5780638129fc1c1461029b5780639010d07c146102b057806391d14854146102e8578063a217fddf1461030857600080fd5b806336568abe116100f257806336568abe146101f35780633c6ee0d4146102135780634f1ef2861461023357806352d1902d14610246578063612e94351461025b57600080fd5b8062f86ac71461012e57806301ffc9a714610161578063248a9ca3146101915780632f2ff15d146101b1578063327b1c48146101d3575b600080fd5b34801561013a57600080fd5b5061014e6101493660046112a2565b610408565b6040519081526020015b60405180910390f35b34801561016d57600080fd5b5061018161017c3660046112eb565b610438565b6040519015158152602001610158565b34801561019d57600080fd5b5061014e6101ac366004611315565b610463565b3480156101bd57600080fd5b506101d16101cc36600461134a565b610485565b005b3480156101df57600080fd5b506101d16101ee366004611376565b6104a7565b3480156101ff57600080fd5b506101d161020e36600461134a565b61058e565b34801561021f57600080fd5b5061018161022e3660046113a0565b6105c6565b6101d16102413660046113bb565b6105f2565b34801561025257600080fd5b5061014e61060d565b34801561026757600080fd5b506101d16102763660046113a0565b61062a565b34801561028757600080fd5b506101d16102963660046113a0565b61068b565b3480156102a757600080fd5b506101d16106b5565b3480156102bc57600080fd5b506102d06102cb36600461141d565b61086f565b6040516001600160a01b039091168152602001610158565b3480156102f457600080fd5b5061018161030336600461134a565b61089e565b34801561031457600080fd5b5061014e600081565b34801561032957600080fd5b5061033d610338366004611315565b6108d6565b604051610158919061143f565b34801561035657600080fd5b5061037b604051806040016040528060058152602001640352e302e360dc1b81525081565b60405161015891906114b0565b34801561039457600080fd5b506101d16103a33660046113a0565b610908565b3480156103b457600080fd5b5061014e6103c3366004611315565b610932565b3480156103d457600080fd5b506101d16103e336600461134a565b610958565b3480156103f457600080fd5b506101d16104033660046113a0565b610974565b60008160405160200161041b91906114e3565b604051602081830303815290604052805190602001209050919050565b60006001600160e01b03198216635a05180f60e01b148061045d575061045d8261099e565b92915050565b60009081526000805160206115a6833981519152602052604090206001015490565b61048e82610463565b610497816109d3565b6104a183836109dd565b50505050565b6104d17fbb0e9981f3e0d8e82b96d842d9255c9c0326f67ccc118d7edc5365c9372ae9be8261089e565b61050a5760405162461bcd60e51b815260206004820152600560248201526421726f6c6560d81b60448201526064015b60405180910390fd5b6040805160048152602481019091526020810180516001600160e01b03166352d1902d60e01b1790526000805160206115868339815191529061054e908490610a22565b805190602001201461058a5760405162461bcd60e51b8152602060048201526005602482015264085555525160da1b6044820152606401610501565b5050565b6001600160a01b03811633146105b75760405163334bd91960e11b815260040160405180910390fd5b6105c18282610a98565b505050565b600061045d7f4d5814656ab8bb75753e7152c3f06382e112c82b3a83bb5cffd5c8b7bd8dc44d8361089e565b6105fa610ad4565b61060382610b7b565b61058a8282610b85565b6000610617610c42565b5060008051602061158683398151915290565b6106547fc753f871e11bf7341bb1461a5a46b306d5fff4f4b6dc07dfebf9ec81c497461d8261089e565b6106885760405162461bcd60e51b815260206004820152600560248201526421726f6c6560d81b6044820152606401610501565b50565b6106547ffdf81848136595c31bb5f76217767372bc4bf906663038eb38381131ea27ecba8261089e565b60006106bf610c8b565b805490915060ff600160401b820416159067ffffffffffffffff166000811580156106e75750825b905060008267ffffffffffffffff1660011480156107045750303b155b905081158015610712575080155b156107305760405163f92ee8a960e01b815260040160405180910390fd5b845467ffffffffffffffff19166001178555831561075a57845460ff60401b1916600160401b1785555b610762610cb4565b61076a610cb4565b6107756000336109dd565b506107a07fbb0e9981f3e0d8e82b96d842d9255c9c0326f67ccc118d7edc5365c9372ae9be336109dd565b506107cb7f3da98603b97a5eace5cf30dd35d7b6fa20c7ff063e690da242da665e55d49403336109dd565b506107f67f42c574c7286eda4a697031a50021e14becf19cc00ff83d93a7547d3809b37f72336109dd565b506108217ffdf81848136595c31bb5f76217767372bc4bf906663038eb38381131ea27ecba336109dd565b50831561086857845460ff60401b19168555604051600181527fc7f505b2f371ae2175ee4913f4499e1f2633a7b5936321eed1cdaeb6115181d29060200160405180910390a15b5050505050565b60008281526000805160206115668339815191526020819052604082206108969084610cbc565b949350505050565b60009182526000805160206115a6833981519152602090815260408084206001600160a01b0393909316845291905290205460ff1690565b6000818152600080516020611566833981519152602081905260409091206060919061090190610cc8565b9392505050565b6106547f3da98603b97a5eace5cf30dd35d7b6fa20c7ff063e690da242da665e55d494038261089e565b600081815260008051602061156683398151915260208190526040822061090190610cd5565b61096182610463565b61096a816109d3565b6104a18383610a98565b6106547f42c574c7286eda4a697031a50021e14becf19cc00ff83d93a7547d3809b37f728261089e565b60006001600160e01b03198216637965db0b60e01b148061045d57506301ffc9a760e01b6001600160e01b031983161461045d565b6106888133610cdf565b6000600080516020611566833981519152816109f98585610d18565b90508015610896576000858152602083905260409020610a199085610dbd565b50949350505050565b6060600080846001600160a01b031684604051610a3f91906114e3565b600060405180830381855afa9150503d8060008114610a7a576040519150601f19603f3d011682016040523d82523d6000602084013e610a7f565b606091505b5091509150610a8f858383610dd2565b95945050505050565b600060008051602061156683398151915281610ab48585610e2e565b90508015610896576000858152602083905260409020610a199085610eaa565b306001600160a01b037f0000000000000000000000000000000000000000000000000000000000000000161480610b5b57507f00000000000000000000000000000000000000000000000000000000000000006001600160a01b0316610b4f600080516020611586833981519152546001600160a01b031690565b6001600160a01b031614155b15610b795760405163703e46dd60e11b815260040160405180910390fd5b565b61068881336104a7565b816001600160a01b03166352d1902d6040518163ffffffff1660e01b8152600401602060405180830381865afa925050508015610bdf575060408051601f3d908101601f19168201909252610bdc918101906114ff565b60015b610c0757604051634c9c8ce360e01b81526001600160a01b0383166004820152602401610501565b6000805160206115868339815191528114610c3857604051632a87526960e21b815260048101829052602401610501565b6105c18383610ebf565b306001600160a01b037f00000000000000000000000000000000000000000000000000000000000000001614610b795760405163703e46dd60e11b815260040160405180910390fd5b6000807ff0c57e16840df040f15088dc2f81fe391c3923bec73e23a9662efc9c229c6a0061045d565b610b79610f15565b60006109018383610f3a565b6060600061090183610f64565b600061045d825490565b610ce9828261089e565b61058a5760405163e2517d3f60e01b81526001600160a01b038216600482015260248101839052604401610501565b60006000805160206115a6833981519152610d33848461089e565b610db3576000848152602082815260408083206001600160a01b03871684529091529020805460ff19166001179055610d693390565b6001600160a01b0316836001600160a01b0316857f2f8788117e7eff1d82e926ec794901d17c78024a50270940304540a733656f0d60405160405180910390a4600191505061045d565b600091505061045d565b6000610901836001600160a01b038416610fc0565b606082610de757610de28261100f565b610901565b8151158015610dfe57506001600160a01b0384163b155b15610e2757604051639996b31560e01b81526001600160a01b0385166004820152602401610501565b5092915050565b60006000805160206115a6833981519152610e49848461089e565b15610db3576000848152602082815260408083206001600160a01b0387168085529252808320805460ff1916905551339287917ff6391f5c32d9c69d2a47ea670b442974b53935d1edc7fd64eb21e047a839171b9190a4600191505061045d565b6000610901836001600160a01b038416611037565b610ec882611120565b6040516001600160a01b038316907fbc7cd75a20ee27fd9adebab32041f755214dbc6bffa90cc0225b39da2e5c2d3b90600090a2805115610f0d576105c18282611185565b61058a6111dd565b610f1d6111fc565b610b7957604051631afcd79f60e31b815260040160405180910390fd5b6000826000018281548110610f5157610f51611518565b9060005260206000200154905092915050565b606081600001805480602002602001604051908101604052809291908181526020018280548015610fb457602002820191906000526020600020905b815481526020019060010190808311610fa0575b50505050509050919050565b60008181526001830160205260408120546110075750815460018181018455600084815260208082209093018490558454848252828601909352604090209190915561045d565b50600061045d565b80511561101e57805160208201fd5b60405163d6bda27560e01b815260040160405180910390fd5b60008181526001830160205260408120548015610db357600061105b60018361152e565b855490915060009061106f9060019061152e565b90508082146110d457600086600001828154811061108f5761108f611518565b90600052602060002001549050808760000184815481106110b2576110b2611518565b6000918252602080832090910192909255918252600188019052604090208390555b85548690806110e5576110e561154f565b60019003818190600052602060002001600090559055856001016000868152602001908152602001600020600090556001935050505061045d565b806001600160a01b03163b60000361115657604051634c9c8ce360e01b81526001600160a01b0382166004820152602401610501565b60008051602061158683398151915280546001600160a01b0319166001600160a01b0392909216919091179055565b6060600080846001600160a01b0316846040516111a291906114e3565b600060405180830381855af49150503d8060008114610a7a576040519150601f19603f3d011682016040523d82523d6000602084013e610a7f565b3415610b795760405163b398979f60e01b815260040160405180910390fd5b6000611206610c8b565b54600160401b900460ff16919050565b634e487b7160e01b600052604160045260246000fd5b600067ffffffffffffffff8084111561124757611247611216565b604051601f8501601f19908116603f0116810190828211818310171561126f5761126f611216565b8160405280935085815286868601111561128857600080fd5b858560208301376000602087830101525050509392505050565b6000602082840312156112b457600080fd5b813567ffffffffffffffff8111156112cb57600080fd5b8201601f810184136112dc57600080fd5b6108968482356020840161122c565b6000602082840312156112fd57600080fd5b81356001600160e01b03198116811461090157600080fd5b60006020828403121561132757600080fd5b5035919050565b80356001600160a01b038116811461134557600080fd5b919050565b6000806040838503121561135d57600080fd5b8235915061136d6020840161132e565b90509250929050565b6000806040838503121561138957600080fd5b6113928361132e565b915061136d6020840161132e565b6000602082840312156113b257600080fd5b6109018261132e565b600080604083850312156113ce57600080fd5b6113d78361132e565b9150602083013567ffffffffffffffff8111156113f357600080fd5b8301601f8101851361140457600080fd5b6114138582356020840161122c565b9150509250929050565b6000806040838503121561143057600080fd5b50508035926020909101359150565b6020808252825182820181905260009190848201906040850190845b818110156114805783516001600160a01b03168352928401929184019160010161145b565b50909695505050505050565b60005b838110156114a757818101518382015260200161148f565b50506000910152565b60208152600082518060208401526114cf81604085016020870161148c565b601f01601f19169190910160400192915050565b600082516114f581846020870161148c565b9190910192915050565b60006020828403121561151157600080fd5b5051919050565b634e487b7160e01b600052603260045260246000fd5b8181038181111561045d57634e487b7160e01b600052601160045260246000fd5b634e487b7160e01b600052603160045260246000fdfec1f6fe24621ce81ec5827caf0253cadb74709b061630e6b55e82371705932000360894a13ba1a3210667c828492db98dca3e2076cc3735a920a3ca505d382bbc02dd7bc7dec4dceedda775e58dd541e08a116c6c53815c0bd028192f7b626800a264697066735822122056a74c250e67a0dd8670a11cf985c1aa454b108051572b149d070fd98cf60b8164736f6c63430008160033",
  "devdoc": {
    "errors": {
      "AccessControlBadConfirmation()": [
        {
          "details": "The caller of a function is not the expected one. NOTE: Don't confuse with {AccessControlUnauthorizedAccount}."
        }
      ],
      "AccessControlUnauthorizedAccount(address,bytes32)": [
        {
          "details": "The `account` is missing a role."
        }
      ],
      "AddressEmptyCode(address)": [
        {
          "details": "There's no code at `target` (it is not a contract)."
        }
      ],
      "ERC1967InvalidImplementation(address)": [
        {
          "details": "The `implementation` of the proxy is invalid."
        }
      ],
      "ERC1967NonPayable()": [
        {
          "details": "An upgrade function sees `msg.value > 0` that may be lost."
        }
      ],
      "FailedCall()": [
        {
          "details": "A call to an address target failed. The target may have reverted."
        }
      ],
      "InvalidInitialization()": [
        {
          "details": "The contract is already initialized."
        }
      ],
      "NotInitializing()": [
        {
          "details": "The contract is not initializing."
        }
      ],
      "UUPSUnauthorizedCallContext()": [
        {
          "details": "The call is from an unauthorized context."
        }
      ],
      "UUPSUnsupportedProxiableUUID(bytes32)": [
        {
          "details": "The storage `slot` is unsupported as a UUID."
        }
      ]
    },
    "events": {
      "Initialized(uint64)": {
        "details": "Triggered when the contract has been initialized or reinitialized."
      },
      "RoleAdminChanged(bytes32,bytes32,bytes32)": {
        "details": "Emitted when `newAdminRole` is set as ``role``'s admin role, replacing `previousAdminRole` `DEFAULT_ADMIN_ROLE` is the starting admin for all roles, despite {RoleAdminChanged} not being emitted to signal this."
      },
      "RoleGranted(bytes32,address,address)": {
        "details": "Emitted when `account` is granted `role`. `sender` is the account that originated the contract call. This account bears the admin role (for the granted role). Expected in cases where the role was granted using the internal {AccessControl-_grantRole}."
      },
      "RoleRevoked(bytes32,address,address)": {
        "details": "Emitted when `account` is revoked `role`. `sender` is the account that originated the contract call:   - if using `revokeRole`, it is the admin role bearer   - if using `renounceRole`, it is the role bearer (i.e. `account`)"
      },
      "Upgraded(address)": {
        "details": "Emitted when the implementation is upgraded."
      }
    },
    "kind": "dev",
    "methods": {
      "getRoleAdmin(bytes32)": {
        "details": "Returns the admin role that controls `role`. See {grantRole} and {revokeRole}. To change a role's admin, use {_setRoleAdmin}."
      },
      "getRoleMember(bytes32,uint256)": {
        "details": "Returns one of the accounts that have `role`. `index` must be a value between 0 and {getRoleMemberCount}, non-inclusive. Role bearers are not sorted in any particular way, and their ordering may change at any point. WARNING: When using {getRoleMember} and {getRoleMemberCount}, make sure you perform all queries on the same block. See the following https://forum.openzeppelin.com/t/iterating-over-elements-on-enumerableset-in-openzeppelin-contracts/2296[forum post] for more information."
      },
      "getRoleMemberCount(bytes32)": {
        "details": "Returns the number of accounts that have `role`. Can be used together with {getRoleMember} to enumerate all bearers of a role."
      },
      "getRoleMembers(bytes32)": {
        "details": "Return all accounts that have `role` WARNING: This operation will copy the entire storage to memory, which can be quite expensive. This is designed to mostly be used by view accessors that are queried without any gas fees. Developers should keep in mind that this function has an unbounded cost, and using it as part of a state-changing function may render the function uncallable if the set grows to a point where copying to memory consumes too much gas to fit in a block."
      },
      "grantRole(bytes32,address)": {
        "details": "Grants `role` to `account`. If `account` had not been already granted `role`, emits a {RoleGranted} event. Requirements: - the caller must have ``role``'s admin role. May emit a {RoleGranted} event."
      },
      "hasRole(bytes32,address)": {
        "details": "Returns `true` if `account` has been granted `role`."
      },
      "proxiableUUID()": {
        "details": "Implementation of the ERC-1822 {proxiableUUID} function. This returns the storage slot used by the implementation. It is used to validate the implementation's compatibility when performing an upgrade. IMPORTANT: A proxy pointing at a proxiable contract should not be considered proxiable itself, because this risks bricking a proxy that upgrades to it, by delegating to itself until out of gas. Thus it is critical that this function revert if invoked through a proxy. This is guaranteed by the `notDelegated` modifier."
      },
      "renounceRole(bytes32,address)": {
        "details": "Revokes `role` from the calling account. Roles are often managed via {grantRole} and {revokeRole}: this function's purpose is to provide a mechanism for accounts to lose their privileges if they are compromised (such as when a trusted device is misplaced). If the calling account had been revoked `role`, emits a {RoleRevoked} event. Requirements: - the caller must be `callerConfirmation`. May emit a {RoleRevoked} event."
      },
      "revokeRole(bytes32,address)": {
        "details": "Revokes `role` from `account`. If `account` had been granted `role`, emits a {RoleRevoked} event. Requirements: - the caller must have ``role``'s admin role. May emit a {RoleRevoked} event."
      },
      "supportsInterface(bytes4)": {
        "details": "Returns true if this contract implements the interface defined by `interfaceId`. See the corresponding https://eips.ethereum.org/EIPS/eip-165#how-interfaces-are-identified[ERC section] to learn more about how these ids are created. This function call must use less than 30 000 gas."
      },
      "upgradeToAndCall(address,bytes)": {
        "custom:oz-upgrades-unsafe-allow-reachable": "delegatecall",
        "details": "Upgrade the implementation of the proxy to `newImplementation`, and subsequently execute the function call encoded in `data`. Calls {_authorizeUpgrade}. Emits an {Upgraded} event."
      }
    },
    "version": 1
  },
  "userdoc": {
    "kind": "user",
    "methods": {},
    "version": 1
  },
  "storageLayout": {
    "storage": [],
    "types": null
  }
}