{
  "address": "0x9A2aF67DdAe79A783B03EB11001dB619500CE5E2",
  "abi": [
    {
      "inputs": [
        {
          "internalType": "address",
          "name": "target",
          "type": "address"
        }
      ],
      "name": "AddressEmptyCode",
      "type": "error"
    },
    {
      "inputs": [
        {
          "internalType": "address",
          "name": "implementation",
          "type": "address"
        }
      ],
      "name": "ERC1967InvalidImplementation",
      "type": "error"
    },
    {
      "inputs": [],
      "name": "ERC1967NonPayable",
      "type": "error"
    },
    {
      "inputs": [],
      "name": "FailedCall",
      "type": "error"
    },
    {
      "inputs": [],
      "name": "InvalidInitialization",
      "type": "error"
    },
    {
      "inputs": [],
      "name": "NotInitializing",
      "type": "error"
    },
    {
      "inputs": [],
      "name": "UUPSUnauthorizedCallContext",
      "type": "error"
    },
    {
      "inputs": [
        {
          "internalType": "bytes32",
          "name": "slot",
          "type": "bytes32"
        }
      ],
      "name": "UUPSUnsupportedProxiableUUID",
      "type": "error"
    },
    {
      "anonymous": false,
      "inputs": [
        {
          "indexed": false,
          "internalType": "uint64",
          "name": "version",
          "type": "uint64"
        }
      ],
      "name": "Initialized",
      "type": "event"
    },
    {
      "anonymous": false,
      "inputs": [
        {
          "indexed": false,
          "internalType": "address",
          "name": "referral",
          "type": "address"
        },
        {
          "indexed": false,
          "internalType": "address",
          "name": "referrer",
          "type": "address"
        }
      ],
      "name": "Registered",
      "type": "event"
    },
    {
      "anonymous": false,
      "inputs": [
        {
          "indexed": true,
          "internalType": "address",
          "name": "implementation",
          "type": "address"
        }
      ],
      "name": "Upgraded",
      "type": "event"
    },
    {
      "inputs": [],
      "name": "ROOT_USER",
      "outputs": [
        {
          "internalType": "address",
          "name": "",
          "type": "address"
        }
      ],
      "stateMutability": "view",
      "type": "function"
    },
    {
      "inputs": [],
      "name": "UPGRADE_INTERFACE_VERSION",
      "outputs": [
        {
          "internalType": "string",
          "name": "",
          "type": "string"
        }
      ],
      "stateMutability": "view",
      "type": "function"
    },
    {
      "inputs": [
        {
          "internalType": "address",
          "name": "user",
          "type": "address"
        }
      ],
      "name": "getReferrals",
      "outputs": [
        {
          "internalType": "address[]",
          "name": "",
          "type": "address[]"
        }
      ],
      "stateMutability": "view",
      "type": "function"
    },
    {
      "inputs": [
        {
          "internalType": "address",
          "name": "user",
          "type": "address"
        },
        {
          "internalType": "uint256",
          "name": "count",
          "type": "uint256"
        }
      ],
      "name": "getReferrers",
      "outputs": [
        {
          "internalType": "address[]",
          "name": "_referrers",
          "type": "address[]"
        },
        {
          "internalType": "uint256",
          "name": "realCount",
          "type": "uint256"
        }
      ],
      "stateMutability": "view",
      "type": "function"
    },
    {
      "inputs": [
        {
          "internalType": "address",
          "name": "user",
          "type": "address"
        }
      ],
      "name": "getUnderReferralCount",
      "outputs": [
        {
          "internalType": "uint256",
          "name": "count",
          "type": "uint256"
        }
      ],
      "stateMutability": "view",
      "type": "function"
    },
    {
      "inputs": [
        {
          "internalType": "contract IManager",
          "name": "_manager",
          "type": "address"
        }
      ],
      "name": "initialize",
      "outputs": [],
      "stateMutability": "nonpayable",
      "type": "function"
    },
    {
      "inputs": [],
      "name": "manager",
      "outputs": [
        {
          "internalType": "contract IManager",
          "name": "",
          "type": "address"
        }
      ],
      "stateMutability": "view",
      "type": "function"
    },
    {
      "inputs": [],
      "name": "proxiableUUID",
      "outputs": [
        {
          "internalType": "bytes32",
          "name": "",
          "type": "bytes32"
        }
      ],
      "stateMutability": "view",
      "type": "function"
    },
    {
      "inputs": [
        {
          "internalType": "address",
          "name": "",
          "type": "address"
        },
        {
          "internalType": "uint256",
          "name": "",
          "type": "uint256"
        }
      ],
      "name": "referrals",
      "outputs": [
        {
          "internalType": "address",
          "name": "",
          "type": "address"
        }
      ],
      "stateMutability": "view",
      "type": "function"
    },
    {
      "inputs": [
        {
          "internalType": "address",
          "name": "",
          "type": "address"
        }
      ],
      "name": "referrers",
      "outputs": [
        {
          "internalType": "address",
          "name": "",
          "type": "address"
        }
      ],
      "stateMutability": "view",
      "type": "function"
    },
    {
      "inputs": [
        {
          "internalType": "address",
          "name": "referral",
          "type": "address"
        },
        {
          "internalType": "address",
          "name": "referrer",
          "type": "address"
        }
      ],
      "name": "register",
      "outputs": [],
      "stateMutability": "nonpayable",
      "type": "function"
    },
    {
      "inputs": [
        {
          "internalType": "address",
          "name": "user",
          "type": "address"
        }
      ],
      "name": "registered",
      "outputs": [
        {
          "internalType": "bool",
          "name": "",
          "type": "bool"
        }
      ],
      "stateMutability": "view",
      "type": "function"
    },
    {
      "inputs": [
        {
          "internalType": "address",
          "name": "referral",
          "type": "address"
        },
        {
          "internalType": "address",
          "name": "referrer",
          "type": "address"
        }
      ],
      "name": "setReferrer",
      "outputs": [],
      "stateMutability": "nonpayable",
      "type": "function"
    },
    {
      "inputs": [
        {
          "internalType": "address",
          "name": "newImplementation",
          "type": "address"
        },
        {
          "internalType": "bytes",
          "name": "data",
          "type": "bytes"
        }
      ],
      "name": "upgradeToAndCall",
      "outputs": [],
      "stateMutability": "payable",
      "type": "function"
    }
  ],
  "transactionHash": "0x2a5d83c62e1a567460dd632f63924954ba26f65b30798ab7d1120b3003ab650b",
  "args": [],
  "numDeployments": 1,
  "solcInputHash": "e6a697e0e67b2c124aea1877a32c094f",
  "bytecode": "0x60a06040523060805234801561001457600080fd5b5060805161110761003e6000396000818161087d015281816108a60152610a4c01526111076000f3fe6080604052600436106100dd5760003560e01c8063aa6773541161007f578063b3913ea511610059578063b3913ea51461027d578063bbddaca3146102ab578063c4d66de8146102cb578063e697b5d8146102eb57600080fd5b8063aa677354146101ef578063ad3cb1cc1461020f578063b2dd5c071461024d57600080fd5b80634a3b68cc116100bb5780634a3b68cc146101615780634f1ef2861461019757806352d1902d146101ac57806376abc354146101cf57600080fd5b80631edf4e8b146100e257806341a0894d14610114578063481c6a7514610141575b600080fd5b3480156100ee57600080fd5b506100f7600181565b6040516001600160a01b0390911681526020015b60405180910390f35b34801561012057600080fd5b5061013461012f366004610dd5565b61030b565b60405161010b9190610e37565b34801561014d57600080fd5b506002546100f7906001600160a01b031681565b34801561016d57600080fd5b506100f761017c366004610dd5565b6000602081905290815260409020546001600160a01b031681565b6101aa6101a5366004610e60565b610381565b005b3480156101b857600080fd5b506101c16103a0565b60405190815260200161010b565b3480156101db57600080fd5b506101c16101ea366004610dd5565b6103bd565b3480156101fb57600080fd5b506101aa61020a366004610f24565b61045b565b34801561021b57600080fd5b50610240604051806040016040528060058152602001640352e302e360dc1b81525081565b60405161010b9190610f81565b34801561025957600080fd5b5061026d610268366004610dd5565b610579565b604051901515815260200161010b565b34801561028957600080fd5b5061029d610298366004610fb4565b6105b2565b60405161010b929190610fe0565b3480156102b757600080fd5b506101aa6102c6366004610f24565b6106bc565b3480156102d757600080fd5b506101aa6102e6366004610dd5565b610724565b3480156102f757600080fd5b506100f7610306366004610fb4565b61083a565b6001600160a01b03811660009081526001602090815260409182902080548351818402810184019094528084526060939283018282801561037557602002820191906000526020600020905b81546001600160a01b03168152600190910190602001808311610357575b50505050509050919050565b610389610872565b61039282610919565b61039c828261097f565b5050565b60006103aa610a41565b506000805160206110b283398151915290565b6001600160a01b038116600090815260016020526040812054905b6001600160a01b038316600090815260016020526040902054811015610455576001600160a01b0383166000908152600160205260409020805461044191908390811061042757610427611002565b6000918252602090912001546001600160a01b03166103bd565b61044b908361102e565b91506001016103d8565b50919050565b600254604051632474521560e21b81527f5251d6875aa2760fdf6c4e9dc418c6e5b858700ff41e1856abce9c6034464cb160048201523360248201526001600160a01b03909116906391d1485490604401602060405180830381865afa1580156104c9573d6000803e3d6000fd5b505050506040513d601f19601f820116820180604052508101906104ed9190611041565b6105285760405162461bcd60e51b8152602060048201526007602482015266216c616275627560c81b60448201526064015b60405180910390fd5b6105328282610a8a565b604080516001600160a01b038085168252831660208201527f0a31ee9d46a828884b81003c8498156ea6aa15b9b54bdd0ef0b533d9eba57e55910160405180910390a15050565b60006001600160a01b038216600114806105ac57506001600160a01b038281166000908152602081905260409020541615155b92915050565b606060008267ffffffffffffffff8111156105cf576105cf610e4a565b6040519080825280602002602001820160405280156105f8578160200160208202803683370190505b50915060005b838110156106b4576001600160a01b03808616600090815260208190526040902054845191169084908390811061063757610637611002565b60200260200101906001600160a01b031690816001600160a01b03168152505082818151811061066957610669611002565b6020026020010151945060016001600160a01b0316856001600160a01b0316148061069b57506001600160a01b038516155b6106b457816106a981611063565b9250506001016105fe565b509250929050565b6002546040516001620f6cad60e31b031981523360048201526001600160a01b039091169063ff849a989060240160006040518083038186803b15801561070257600080fd5b505afa158015610716573d6000803e3d6000fd5b505050506105328282610a8a565b600061072e610b76565b805490915060ff600160401b820416159067ffffffffffffffff166000811580156107565750825b905060008267ffffffffffffffff1660011480156107735750303b155b905081158015610781575080155b1561079f5760405163f92ee8a960e01b815260040160405180910390fd5b845467ffffffffffffffff1916600117855583156107c957845460ff60401b1916600160401b1785555b6107d1610b9f565b600280546001600160a01b0319166001600160a01b038816179055831561083257845460ff60401b19168555604051600181527fc7f505b2f371ae2175ee4913f4499e1f2633a7b5936321eed1cdaeb6115181d29060200160405180910390a15b505050505050565b6001602052816000526040600020818154811061085657600080fd5b6000918252602090912001546001600160a01b03169150829050565b306001600160a01b037f00000000000000000000000000000000000000000000000000000000000000001614806108f957507f00000000000000000000000000000000000000000000000000000000000000006001600160a01b03166108ed6000805160206110b2833981519152546001600160a01b031690565b6001600160a01b031614155b156109175760405163703e46dd60e11b815260040160405180910390fd5b565b60025460405163064f638960e31b81526001600160a01b0383811660048301523360248301529091169063327b1c489060440160006040518083038186803b15801561096457600080fd5b505afa158015610978573d6000803e3d6000fd5b5050505050565b816001600160a01b03166352d1902d6040518163ffffffff1660e01b8152600401602060405180830381865afa9250505080156109d9575060408051601f3d908101601f191682019092526109d69181019061107c565b60015b610a0157604051634c9c8ce360e01b81526001600160a01b038316600482015260240161051f565b6000805160206110b28339815191528114610a3257604051632a87526960e21b81526004810182905260240161051f565b610a3c8383610ba7565b505050565b306001600160a01b037f000000000000000000000000000000000000000000000000000000000000000016146109175760405163703e46dd60e11b815260040160405180910390fd5b610a9382610579565b15610acd5760405162461bcd60e51b815260206004820152600a6024820152691c9959da5cdd195c995960b21b604482015260640161051f565b610ad681610579565b610b225760405162461bcd60e51b815260206004820152601960248201527f726566657272657220646f6573206e6f74206578697374656400000000000000604482015260640161051f565b6001600160a01b039182166000818152602081815260408083208054969095166001600160a01b03199687168117909555938252600180825293822080549485018155825290209091018054909216179055565b6000807ff0c57e16840df040f15088dc2f81fe391c3923bec73e23a9662efc9c229c6a006105ac565b610917610bfd565b610bb082610c22565b6040516001600160a01b038316907fbc7cd75a20ee27fd9adebab32041f755214dbc6bffa90cc0225b39da2e5c2d3b90600090a2805115610bf557610a3c8282610c87565b61039c610cfd565b610c05610d1c565b61091757604051631afcd79f60e31b815260040160405180910390fd5b806001600160a01b03163b600003610c5857604051634c9c8ce360e01b81526001600160a01b038216600482015260240161051f565b6000805160206110b283398151915280546001600160a01b0319166001600160a01b0392909216919091179055565b6060600080846001600160a01b031684604051610ca49190611095565b600060405180830381855af49150503d8060008114610cdf576040519150601f19603f3d011682016040523d82523d6000602084013e610ce4565b606091505b5091509150610cf4858383610d36565b95945050505050565b34156109175760405163b398979f60e01b815260040160405180910390fd5b6000610d26610b76565b54600160401b900460ff16919050565b606082610d4b57610d4682610d95565b610d8e565b8151158015610d6257506001600160a01b0384163b155b15610d8b57604051639996b31560e01b81526001600160a01b038516600482015260240161051f565b50805b9392505050565b805115610da457805160208201fd5b60405163d6bda27560e01b815260040160405180910390fd5b50565b6001600160a01b0381168114610dbd57600080fd5b600060208284031215610de757600080fd5b8135610d8e81610dc0565b60008151808452602080850194506020840160005b83811015610e2c5781516001600160a01b031687529582019590820190600101610e07565b509495945050505050565b602081526000610d8e6020830184610df2565b634e487b7160e01b600052604160045260246000fd5b60008060408385031215610e7357600080fd5b8235610e7e81610dc0565b9150602083013567ffffffffffffffff80821115610e9b57600080fd5b818501915085601f830112610eaf57600080fd5b813581811115610ec157610ec1610e4a565b604051601f8201601f19908116603f01168101908382118183101715610ee957610ee9610e4a565b81604052828152886020848701011115610f0257600080fd5b8260208601602083013760006020848301015280955050505050509250929050565b60008060408385031215610f3757600080fd5b8235610f4281610dc0565b91506020830135610f5281610dc0565b809150509250929050565b60005b83811015610f78578181015183820152602001610f60565b50506000910152565b6020815260008251806020840152610fa0816040850160208701610f5d565b601f01601f19169190910160400192915050565b60008060408385031215610fc757600080fd5b8235610fd281610dc0565b946020939093013593505050565b604081526000610ff36040830185610df2565b90508260208301529392505050565b634e487b7160e01b600052603260045260246000fd5b634e487b7160e01b600052601160045260246000fd5b808201808211156105ac576105ac611018565b60006020828403121561105357600080fd5b81518015158114610d8e57600080fd5b60006001820161107557611075611018565b5060010190565b60006020828403121561108e57600080fd5b5051919050565b600082516110a7818460208701610f5d565b919091019291505056fe360894a13ba1a3210667c828492db98dca3e2076cc3735a920a3ca505d382bbca2646970667358221220961f428da8f1b7243d44690bee8a29f8031fdb1a195618442537ad5fa4c9b59764736f6c63430008160033",
  "devdoc": {
    "errors": {
      "AddressEmptyCode(address)": [
        {
          "details": "There's no code at `target` (it is not a contract)."
        }
      ],
      "ERC1967InvalidImplementation(address)": [
        {
          "details": "The `implementation` of the proxy is invalid."
        }
      ],
      "ERC1967NonPayable()": [
        {
          "details": "An upgrade function sees `msg.value > 0` that may be lost."
        }
      ],
      "FailedCall()": [
        {
          "details": "A call to an address target failed. The target may have reverted."
        }
      ],
      "InvalidInitialization()": [
        {
          "details": "The contract is already initialized."
        }
      ],
      "NotInitializing()": [
        {
          "details": "The contract is not initializing."
        }
      ],
      "UUPSUnauthorizedCallContext()": [
        {
          "details": "The call is from an unauthorized context."
        }
      ],
      "UUPSUnsupportedProxiableUUID(bytes32)": [
        {
          "details": "The storage `slot` is unsupported as a UUID."
        }
      ]
    },
    "events": {
      "Initialized(uint64)": {
        "details": "Triggered when the contract has been initialized or reinitialized."
      },
      "Upgraded(address)": {
        "details": "Emitted when the implementation is upgraded."
      }
    },
    "kind": "dev",
    "methods": {
      "proxiableUUID()": {
        "details": "Implementation of the ERC-1822 {proxiableUUID} function. This returns the storage slot used by the implementation. It is used to validate the implementation's compatibility when performing an upgrade. IMPORTANT: A proxy pointing at a proxiable contract should not be considered proxiable itself, because this risks bricking a proxy that upgrades to it, by delegating to itself until out of gas. Thus it is critical that this function revert if invoked through a proxy. This is guaranteed by the `notDelegated` modifier."
      },
      "upgradeToAndCall(address,bytes)": {
        "custom:oz-upgrades-unsafe-allow-reachable": "delegatecall",
        "details": "Upgrade the implementation of the proxy to `newImplementation`, and subsequently execute the function call encoded in `data`. Calls {_authorizeUpgrade}. Emits an {Upgraded} event."
      }
    },
    "version": 1
  },
  "userdoc": {
    "kind": "user",
    "methods": {},
    "version": 1
  },
  "storageLayout": {
    "storage": [
      {
        "astId": 8372,
        "contract": "contracts/RegisterV2.sol:RegisterV2",
        "label": "referrers",
        "offset": 0,
        "slot": "0",
        "type": "t_mapping(t_address,t_address)"
      },
      {
        "astId": 8377,
        "contract": "contracts/RegisterV2.sol:RegisterV2",
        "label": "referrals",
        "offset": 0,
        "slot": "1",
        "type": "t_mapping(t_address,t_array(t_address)dyn_storage)"
      },
      {
        "astId": 5546,
        "contract": "contracts/RegisterV2.sol:RegisterV2",
        "label": "manager",
        "offset": 0,
        "slot": "2",
        "type": "t_contract(IManager)7572"
      }
    ],
    "types": {
      "t_address": {
        "encoding": "inplace",
        "label": "address",
        "numberOfBytes": "20"
      },
      "t_array(t_address)dyn_storage": {
        "base": "t_address",
        "encoding": "dynamic_array",
        "label": "address[]",
        "numberOfBytes": "32"
      },
      "t_contract(IManager)7572": {
        "encoding": "inplace",
        "label": "contract IManager",
        "numberOfBytes": "20"
      },
      "t_mapping(t_address,t_address)": {
        "encoding": "mapping",
        "key": "t_address",
        "label": "mapping(address => address)",
        "numberOfBytes": "32",
        "value": "t_address"
      },
      "t_mapping(t_address,t_array(t_address)dyn_storage)": {
        "encoding": "mapping",
        "key": "t_address",
        "label": "mapping(address => address[])",
        "numberOfBytes": "32",
        "value": "t_array(t_address)dyn_storage"
      }
    }
  }
}