{
  "address": "0x22420Ed8dF7f91F270979492bEC3A7A3c7068e15",
  "abi": [
    {
      "inputs": [
        {
          "internalType": "address",
          "name": "_wBNB",
          "type": "address"
        },
        {
          "internalType": "address",
          "name": "_router",
          "type": "address"
        }
      ],
      "stateMutability": "nonpayable",
      "type": "constructor"
    },
    {
      "inputs": [],
      "name": "AccessControlBadConfirmation",
      "type": "error"
    },
    {
      "inputs": [
        {
          "internalType": "address",
          "name": "account",
          "type": "address"
        },
        {
          "internalType": "bytes32",
          "name": "neededRole",
          "type": "bytes32"
        }
      ],
      "name": "AccessControlUnauthorizedAccount",
      "type": "error"
    },
    {
      "inputs": [
        {
          "internalType": "address",
          "name": "target",
          "type": "address"
        }
      ],
      "name": "AddressEmptyCode",
      "type": "error"
    },
    {
      "inputs": [
        {
          "internalType": "address",
          "name": "implementation",
          "type": "address"
        }
      ],
      "name": "ERC1967InvalidImplementation",
      "type": "error"
    },
    {
      "inputs": [],
      "name": "ERC1967NonPayable",
      "type": "error"
    },
    {
      "inputs": [
        {
          "internalType": "address",
          "name": "spender",
          "type": "address"
        },
        {
          "internalType": "uint256",
          "name": "allowance",
          "type": "uint256"
        },
        {
          "internalType": "uint256",
          "name": "needed",
          "type": "uint256"
        }
      ],
      "name": "ERC20InsufficientAllowance",
      "type": "error"
    },
    {
      "inputs": [
        {
          "internalType": "address",
          "name": "sender",
          "type": "address"
        },
        {
          "internalType": "uint256",
          "name": "balance",
          "type": "uint256"
        },
        {
          "internalType": "uint256",
          "name": "needed",
          "type": "uint256"
        }
      ],
      "name": "ERC20InsufficientBalance",
      "type": "error"
    },
    {
      "inputs": [
        {
          "internalType": "address",
          "name": "approver",
          "type": "address"
        }
      ],
      "name": "ERC20InvalidApprover",
      "type": "error"
    },
    {
      "inputs": [
        {
          "internalType": "address",
          "name": "receiver",
          "type": "address"
        }
      ],
      "name": "ERC20InvalidReceiver",
      "type": "error"
    },
    {
      "inputs": [
        {
          "internalType": "address",
          "name": "sender",
          "type": "address"
        }
      ],
      "name": "ERC20InvalidSender",
      "type": "error"
    },
    {
      "inputs": [
        {
          "internalType": "address",
          "name": "spender",
          "type": "address"
        }
      ],
      "name": "ERC20InvalidSpender",
      "type": "error"
    },
    {
      "inputs": [],
      "name": "FailedCall",
      "type": "error"
    },
    {
      "inputs": [],
      "name": "InvalidInitialization",
      "type": "error"
    },
    {
      "inputs": [],
      "name": "NotInitializing",
      "type": "error"
    },
    {
      "inputs": [],
      "name": "UUPSUnauthorizedCallContext",
      "type": "error"
    },
    {
      "inputs": [
        {
          "internalType": "bytes32",
          "name": "slot",
          "type": "bytes32"
        }
      ],
      "name": "UUPSUnsupportedProxiableUUID",
      "type": "error"
    },
    {
      "anonymous": false,
      "inputs": [
        {
          "indexed": true,
          "internalType": "address",
          "name": "owner",
          "type": "address"
        },
        {
          "indexed": true,
          "internalType": "address",
          "name": "spender",
          "type": "address"
        },
        {
          "indexed": false,
          "internalType": "uint256",
          "name": "value",
          "type": "uint256"
        }
      ],
      "name": "Approval",
      "type": "event"
    },
    {
      "anonymous": false,
      "inputs": [
        {
          "indexed": true,
          "internalType": "address",
          "name": "from",
          "type": "address"
        },
        {
          "indexed": false,
          "internalType": "uint256",
          "name": "usdtValue",
          "type": "uint256"
        },
        {
          "indexed": false,
          "internalType": "uint256",
          "name": "bnbValue",
          "type": "uint256"
        }
      ],
      "name": "Deposit",
      "type": "event"
    },
    {
      "anonymous": false,
      "inputs": [
        {
          "indexed": false,
          "internalType": "uint64",
          "name": "version",
          "type": "uint64"
        }
      ],
      "name": "Initialized",
      "type": "event"
    },
    {
      "anonymous": false,
      "inputs": [
        {
          "indexed": true,
          "internalType": "address",
          "name": "user",
          "type": "address"
        },
        {
          "indexed": false,
          "internalType": "uint256",
          "name": "labubuPrice",
          "type": "uint256"
        },
        {
          "indexed": false,
          "internalType": "uint256",
          "name": "backAmount",
          "type": "uint256"
        },
        {
          "indexed": false,
          "internalType": "uint256",
          "name": "burnAmount",
          "type": "uint256"
        }
      ],
      "name": "LpRedeemed",
      "type": "event"
    },
    {
      "anonymous": false,
      "inputs": [
        {
          "indexed": true,
          "internalType": "bytes32",
          "name": "role",
          "type": "bytes32"
        },
        {
          "indexed": true,
          "internalType": "bytes32",
          "name": "previousAdminRole",
          "type": "bytes32"
        },
        {
          "indexed": true,
          "internalType": "bytes32",
          "name": "newAdminRole",
          "type": "bytes32"
        }
      ],
      "name": "RoleAdminChanged",
      "type": "event"
    },
    {
      "anonymous": false,
      "inputs": [
        {
          "indexed": true,
          "internalType": "bytes32",
          "name": "role",
          "type": "bytes32"
        },
        {
          "indexed": true,
          "internalType": "address",
          "name": "account",
          "type": "address"
        },
        {
          "indexed": true,
          "internalType": "address",
          "name": "sender",
          "type": "address"
        }
      ],
      "name": "RoleGranted",
      "type": "event"
    },
    {
      "anonymous": false,
      "inputs": [
        {
          "indexed": true,
          "internalType": "bytes32",
          "name": "role",
          "type": "bytes32"
        },
        {
          "indexed": true,
          "internalType": "address",
          "name": "account",
          "type": "address"
        },
        {
          "indexed": true,
          "internalType": "address",
          "name": "sender",
          "type": "address"
        }
      ],
      "name": "RoleRevoked",
      "type": "event"
    },
    {
      "anonymous": false,
      "inputs": [
        {
          "indexed": true,
          "internalType": "address",
          "name": "from",
          "type": "address"
        },
        {
          "indexed": true,
          "internalType": "address",
          "name": "to",
          "type": "address"
        },
        {
          "indexed": false,
          "internalType": "uint256",
          "name": "value",
          "type": "uint256"
        }
      ],
      "name": "Transfer",
      "type": "event"
    },
    {
      "anonymous": false,
      "inputs": [
        {
          "indexed": true,
          "internalType": "uint256",
          "name": "liquidityPairBalance",
          "type": "uint256"
        },
        {
          "indexed": true,
          "internalType": "uint256",
          "name": "burnAmount",
          "type": "uint256"
        },
        {
          "indexed": true,
          "internalType": "uint256",
          "name": "holdLPAwardAmount",
          "type": "uint256"
        }
      ],
      "name": "TriggerDailyBurnAndMint",
      "type": "event"
    },
    {
      "anonymous": false,
      "inputs": [
        {
          "indexed": true,
          "internalType": "address",
          "name": "implementation",
          "type": "address"
        }
      ],
      "name": "Upgraded",
      "type": "event"
    },
    {
      "anonymous": false,
      "inputs": [
        {
          "indexed": true,
          "internalType": "address",
          "name": "token",
          "type": "address"
        },
        {
          "indexed": true,
          "internalType": "address",
          "name": "receiver",
          "type": "address"
        },
        {
          "indexed": true,
          "internalType": "uint256",
          "name": "amount",
          "type": "uint256"
        }
      ],
      "name": "WithdrawalToken",
      "type": "event"
    },
    {
      "inputs": [],
      "name": "BASE_PERCENT",
      "outputs": [
        {
          "internalType": "uint256",
          "name": "",
          "type": "uint256"
        }
      ],
      "stateMutability": "view",
      "type": "function"
    },
    {
      "inputs": [],
      "name": "BLACK_ADDRESS",
      "outputs": [
        {
          "internalType": "address",
          "name": "",
          "type": "address"
        }
      ],
      "stateMutability": "view",
      "type": "function"
    },
    {
      "inputs": [],
      "name": "BUY_MIDDLEWARE",
      "outputs": [
        {
          "internalType": "address",
          "name": "",
          "type": "address"
        }
      ],
      "stateMutability": "view",
      "type": "function"
    },
    {
      "inputs": [],
      "name": "DEFAULT_ADMIN_ROLE",
      "outputs": [
        {
          "internalType": "bytes32",
          "name": "",
          "type": "bytes32"
        }
      ],
      "stateMutability": "view",
      "type": "function"
    },
    {
      "inputs": [],
      "name": "MARKET_INCENTIVES",
      "outputs": [
        {
          "internalType": "uint256",
          "name": "",
          "type": "uint256"
        }
      ],
      "stateMutability": "view",
      "type": "function"
    },
    {
      "inputs": [],
      "name": "MIN_AMOUNT",
      "outputs": [
        {
          "internalType": "uint256",
          "name": "",
          "type": "uint256"
        }
      ],
      "stateMutability": "view",
      "type": "function"
    },
    {
      "inputs": [],
      "name": "SELL_MIDDLEWARE",
      "outputs": [
        {
          "internalType": "address",
          "name": "",
          "type": "address"
        }
      ],
      "stateMutability": "view",
      "type": "function"
    },
    {
      "inputs": [],
      "name": "UPGRADE_INTERFACE_VERSION",
      "outputs": [
        {
          "internalType": "string",
          "name": "",
          "type": "string"
        }
      ],
      "stateMutability": "view",
      "type": "function"
    },
    {
      "inputs": [
        {
          "internalType": "address",
          "name": "",
          "type": "address"
        }
      ],
      "name": "accountLpAmount",
      "outputs": [
        {
          "internalType": "uint256",
          "name": "",
          "type": "uint256"
        }
      ],
      "stateMutability": "view",
      "type": "function"
    },
    {
      "inputs": [
        {
          "internalType": "address",
          "name": "",
          "type": "address"
        }
      ],
      "name": "accountSales",
      "outputs": [
        {
          "internalType": "uint256",
          "name": "",
          "type": "uint256"
        }
      ],
      "stateMutability": "view",
      "type": "function"
    },
    {
      "inputs": [
        {
          "internalType": "address",
          "name": "",
          "type": "address"
        }
      ],
      "name": "addLiquidityUnlockTime",
      "outputs": [
        {
          "internalType": "uint256",
          "name": "",
          "type": "uint256"
        }
      ],
      "stateMutability": "view",
      "type": "function"
    },
    {
      "inputs": [
        {
          "internalType": "address",
          "name": "owner",
          "type": "address"
        },
        {
          "internalType": "address",
          "name": "spender",
          "type": "address"
        }
      ],
      "name": "allowance",
      "outputs": [
        {
          "internalType": "uint256",
          "name": "",
          "type": "uint256"
        }
      ],
      "stateMutability": "view",
      "type": "function"
    },
    {
      "inputs": [
        {
          "internalType": "address",
          "name": "spender",
          "type": "address"
        },
        {
          "internalType": "uint256",
          "name": "value",
          "type": "uint256"
        }
      ],
      "name": "approve",
      "outputs": [
        {
          "internalType": "bool",
          "name": "",
          "type": "bool"
        }
      ],
      "stateMutability": "nonpayable",
      "type": "function"
    },
    {
      "inputs": [
        {
          "internalType": "address",
          "name": "account",
          "type": "address"
        }
      ],
      "name": "balanceOf",
      "outputs": [
        {
          "internalType": "uint256",
          "name": "",
          "type": "uint256"
        }
      ],
      "stateMutability": "view",
      "type": "function"
    },
    {
      "inputs": [],
      "name": "bnbTokenAddress",
      "outputs": [
        {
          "internalType": "address",
          "name": "",
          "type": "address"
        }
      ],
      "stateMutability": "view",
      "type": "function"
    },
    {
      "inputs": [],
      "name": "burnAndMintSwitch",
      "outputs": [
        {
          "internalType": "bool",
          "name": "",
          "type": "bool"
        }
      ],
      "stateMutability": "view",
      "type": "function"
    },
    {
      "inputs": [
        {
          "internalType": "uint256",
          "name": "lububuAmount",
          "type": "uint256"
        }
      ],
      "name": "calLiquidityByLububu",
      "outputs": [
        {
          "internalType": "uint256",
          "name": "",
          "type": "uint256"
        }
      ],
      "stateMutability": "view",
      "type": "function"
    },
    {
      "inputs": [
        {
          "internalType": "uint256",
          "name": "",
          "type": "uint256"
        }
      ],
      "name": "dailyBurnRate",
      "outputs": [
        {
          "internalType": "uint16",
          "name": "",
          "type": "uint16"
        }
      ],
      "stateMutability": "view",
      "type": "function"
    },
    {
      "inputs": [
        {
          "internalType": "uint256",
          "name": "",
          "type": "uint256"
        }
      ],
      "name": "dailyBurned",
      "outputs": [
        {
          "internalType": "bool",
          "name": "",
          "type": "bool"
        }
      ],
      "stateMutability": "view",
      "type": "function"
    },
    {
      "inputs": [],
      "name": "decimals",
      "outputs": [
        {
          "internalType": "uint8",
          "name": "",
          "type": "uint8"
        }
      ],
      "stateMutability": "view",
      "type": "function"
    },
    {
      "inputs": [],
      "name": "deflationAddress",
      "outputs": [
        {
          "internalType": "address",
          "name": "",
          "type": "address"
        }
      ],
      "stateMutability": "view",
      "type": "function"
    },
    {
      "inputs": [],
      "name": "deposit",
      "outputs": [
        {
          "internalType": "uint256",
          "name": "",
          "type": "uint256"
        }
      ],
      "stateMutability": "payable",
      "type": "function"
    },
    {
      "inputs": [],
      "name": "depositFeeAddress",
      "outputs": [
        {
          "internalType": "address",
          "name": "",
          "type": "address"
        }
      ],
      "stateMutability": "view",
      "type": "function"
    },
    {
      "inputs": [
        {
          "internalType": "bytes32",
          "name": "role",
          "type": "bytes32"
        }
      ],
      "name": "getRoleAdmin",
      "outputs": [
        {
          "internalType": "bytes32",
          "name": "",
          "type": "bytes32"
        }
      ],
      "stateMutability": "view",
      "type": "function"
    },
    {
      "inputs": [
        {
          "internalType": "bytes32",
          "name": "role",
          "type": "bytes32"
        },
        {
          "internalType": "uint256",
          "name": "index",
          "type": "uint256"
        }
      ],
      "name": "getRoleMember",
      "outputs": [
        {
          "internalType": "address",
          "name": "",
          "type": "address"
        }
      ],
      "stateMutability": "view",
      "type": "function"
    },
    {
      "inputs": [
        {
          "internalType": "bytes32",
          "name": "role",
          "type": "bytes32"
        }
      ],
      "name": "getRoleMemberCount",
      "outputs": [
        {
          "internalType": "uint256",
          "name": "",
          "type": "uint256"
        }
      ],
      "stateMutability": "view",
      "type": "function"
    },
    {
      "inputs": [
        {
          "internalType": "bytes32",
          "name": "role",
          "type": "bytes32"
        }
      ],
      "name": "getRoleMembers",
      "outputs": [
        {
          "internalType": "address[]",
          "name": "",
          "type": "address[]"
        }
      ],
      "stateMutability": "view",
      "type": "function"
    },
    {
      "inputs": [
        {
          "internalType": "address",
          "name": "from",
          "type": "address"
        },
        {
          "internalType": "address",
          "name": "to",
          "type": "address"
        }
      ],
      "name": "getTransferType",
      "outputs": [
        {
          "internalType": "enum SkyLabubu.TransferType",
          "name": "",
          "type": "uint8"
        }
      ],
      "stateMutability": "view",
      "type": "function"
    },
    {
      "inputs": [
        {
          "internalType": "bytes32",
          "name": "role",
          "type": "bytes32"
        },
        {
          "internalType": "address",
          "name": "account",
          "type": "address"
        }
      ],
      "name": "grantRole",
      "outputs": [],
      "stateMutability": "nonpayable",
      "type": "function"
    },
    {
      "inputs": [
        {
          "internalType": "bytes32",
          "name": "role",
          "type": "bytes32"
        },
        {
          "internalType": "address",
          "name": "account",
          "type": "address"
        }
      ],
      "name": "hasRole",
      "outputs": [
        {
          "internalType": "bool",
          "name": "",
          "type": "bool"
        }
      ],
      "stateMutability": "view",
      "type": "function"
    },
    {
      "inputs": [
        {
          "internalType": "address",
          "name": "_minter",
          "type": "address"
        },
        {
          "internalType": "address",
          "name": "_sellFeeAddress",
          "type": "address"
        },
        {
          "internalType": "address",
          "name": "_deflationAddress",
          "type": "address"
        },
        {
          "internalType": "address",
          "name": "_depositFeeAddress",
          "type": "address"
        },
        {
          "internalType": "contract ILabubuNFT",
          "name": "_nft",
          "type": "address"
        },
        {
          "internalType": "contract IRegisterV2",
          "name": "_registerV2",
          "type": "address"
        }
      ],
      "name": "initialize",
      "outputs": [],
      "stateMutability": "nonpayable",
      "type": "function"
    },
    {
      "inputs": [
        {
          "internalType": "address",
          "name": "account",
          "type": "address"
        }
      ],
      "name": "isBlacklisted",
      "outputs": [
        {
          "internalType": "bool",
          "name": "",
          "type": "bool"
        }
      ],
      "stateMutability": "view",
      "type": "function"
    },
    {
      "inputs": [
        {
          "internalType": "address",
          "name": "account",
          "type": "address"
        }
      ],
      "name": "isTaxExempt",
      "outputs": [
        {
          "internalType": "bool",
          "name": "",
          "type": "bool"
        }
      ],
      "stateMutability": "view",
      "type": "function"
    },
    {
      "inputs": [],
      "name": "maxAmount",
      "outputs": [
        {
          "internalType": "uint256",
          "name": "",
          "type": "uint256"
        }
      ],
      "stateMutability": "view",
      "type": "function"
    },
    {
      "inputs": [],
      "name": "name",
      "outputs": [
        {
          "internalType": "string",
          "name": "",
          "type": "string"
        }
      ],
      "stateMutability": "view",
      "type": "function"
    },
    {
      "inputs": [],
      "name": "nft",
      "outputs": [
        {
          "internalType": "contract ILabubuNFT",
          "name": "",
          "type": "address"
        }
      ],
      "stateMutability": "view",
      "type": "function"
    },
    {
      "inputs": [],
      "name": "oracle",
      "outputs": [
        {
          "internalType": "contract ILabubuOracle",
          "name": "",
          "type": "address"
        }
      ],
      "stateMutability": "view",
      "type": "function"
    },
    {
      "inputs": [],
      "name": "pancakePair",
      "outputs": [
        {
          "internalType": "address",
          "name": "",
          "type": "address"
        }
      ],
      "stateMutability": "view",
      "type": "function"
    },
    {
      "inputs": [],
      "name": "pancakeV2Router",
      "outputs": [
        {
          "internalType": "address",
          "name": "",
          "type": "address"
        }
      ],
      "stateMutability": "view",
      "type": "function"
    },
    {
      "inputs": [],
      "name": "proxiableUUID",
      "outputs": [
        {
          "internalType": "bytes32",
          "name": "",
          "type": "bytes32"
        }
      ],
      "stateMutability": "view",
      "type": "function"
    },
    {
      "inputs": [],
      "name": "recoupment",
      "outputs": [
        {
          "internalType": "contract ILabubuRecoupment",
          "name": "",
          "type": "address"
        }
      ],
      "stateMutability": "view",
      "type": "function"
    },
    {
      "inputs": [],
      "name": "registerV2",
      "outputs": [
        {
          "internalType": "contract IRegisterV2",
          "name": "",
          "type": "address"
        }
      ],
      "stateMutability": "view",
      "type": "function"
    },
    {
      "inputs": [
        {
          "internalType": "uint256",
          "name": "",
          "type": "uint256"
        }
      ],
      "name": "removeLpBurnRate",
      "outputs": [
        {
          "internalType": "uint16",
          "name": "",
          "type": "uint16"
        }
      ],
      "stateMutability": "view",
      "type": "function"
    },
    {
      "inputs": [],
      "name": "removeLpSwitch",
      "outputs": [
        {
          "internalType": "bool",
          "name": "",
          "type": "bool"
        }
      ],
      "stateMutability": "view",
      "type": "function"
    },
    {
      "inputs": [
        {
          "internalType": "bytes32",
          "name": "role",
          "type": "bytes32"
        },
        {
          "internalType": "address",
          "name": "callerConfirmation",
          "type": "address"
        }
      ],
      "name": "renounceRole",
      "outputs": [],
      "stateMutability": "nonpayable",
      "type": "function"
    },
    {
      "inputs": [
        {
          "internalType": "bytes32",
          "name": "role",
          "type": "bytes32"
        },
        {
          "internalType": "address",
          "name": "account",
          "type": "address"
        }
      ],
      "name": "revokeRole",
      "outputs": [],
      "stateMutability": "nonpayable",
      "type": "function"
    },
    {
      "inputs": [],
      "name": "sellFeeAddress",
      "outputs": [
        {
          "internalType": "address",
          "name": "",
          "type": "address"
        }
      ],
      "stateMutability": "view",
      "type": "function"
    },
    {
      "inputs": [
        {
          "internalType": "bool",
          "name": "_switch",
          "type": "bool"
        }
      ],
      "name": "setBurnAndMintSwitch",
      "outputs": [],
      "stateMutability": "nonpayable",
      "type": "function"
    },
    {
      "inputs": [
        {
          "internalType": "uint16[3]",
          "name": "_burn",
          "type": "uint16[3]"
        }
      ],
      "name": "setDailBurnRate",
      "outputs": [],
      "stateMutability": "nonpayable",
      "type": "function"
    },
    {
      "inputs": [
        {
          "internalType": "address",
          "name": "_deflationAddress",
          "type": "address"
        }
      ],
      "name": "setDeflationAddress",
      "outputs": [],
      "stateMutability": "nonpayable",
      "type": "function"
    },
    {
      "inputs": [
        {
          "internalType": "uint256",
          "name": "amount",
          "type": "uint256"
        }
      ],
      "name": "setMaxAmount",
      "outputs": [],
      "stateMutability": "nonpayable",
      "type": "function"
    },
    {
      "inputs": [
        {
          "internalType": "contract ILabubuNFT",
          "name": "_nft",
          "type": "address"
        }
      ],
      "name": "setMintNFTAddress",
      "outputs": [],
      "stateMutability": "nonpayable",
      "type": "function"
    },
    {
      "inputs": [
        {
          "internalType": "contract ILabubuOracle",
          "name": "_oracle",
          "type": "address"
        }
      ],
      "name": "setOracle",
      "outputs": [],
      "stateMutability": "nonpayable",
      "type": "function"
    },
    {
      "inputs": [
        {
          "internalType": "contract ILabubuRecoupment",
          "name": "_recoupment",
          "type": "address"
        }
      ],
      "name": "setRecoupment",
      "outputs": [],
      "stateMutability": "nonpayable",
      "type": "function"
    },
    {
      "inputs": [
        {
          "internalType": "uint16[]",
          "name": "_burn",
          "type": "uint16[]"
        }
      ],
      "name": "setRemoveLpBurnRate",
      "outputs": [],
      "stateMutability": "nonpayable",
      "type": "function"
    },
    {
      "inputs": [
        {
          "internalType": "bool",
          "name": "_switch",
          "type": "bool"
        }
      ],
      "name": "setRemoveLpSwitch",
      "outputs": [],
      "stateMutability": "nonpayable",
      "type": "function"
    },
    {
      "inputs": [
        {
          "internalType": "bytes4",
          "name": "interfaceId",
          "type": "bytes4"
        }
      ],
      "name": "supportsInterface",
      "outputs": [
        {
          "internalType": "bool",
          "name": "",
          "type": "bool"
        }
      ],
      "stateMutability": "view",
      "type": "function"
    },
    {
      "inputs": [],
      "name": "symbol",
      "outputs": [
        {
          "internalType": "string",
          "name": "",
          "type": "string"
        }
      ],
      "stateMutability": "view",
      "type": "function"
    },
    {
      "inputs": [],
      "name": "testView",
      "outputs": [
        {
          "internalType": "uint256",
          "name": "",
          "type": "uint256"
        }
      ],
      "stateMutability": "pure",
      "type": "function"
    },
    {
      "inputs": [],
      "name": "totalSupply",
      "outputs": [
        {
          "internalType": "uint256",
          "name": "",
          "type": "uint256"
        }
      ],
      "stateMutability": "view",
      "type": "function"
    },
    {
      "inputs": [
        {
          "internalType": "address",
          "name": "to",
          "type": "address"
        },
        {
          "internalType": "uint256",
          "name": "value",
          "type": "uint256"
        }
      ],
      "name": "transfer",
      "outputs": [
        {
          "internalType": "bool",
          "name": "",
          "type": "bool"
        }
      ],
      "stateMutability": "nonpayable",
      "type": "function"
    },
    {
      "inputs": [
        {
          "internalType": "address",
          "name": "from",
          "type": "address"
        },
        {
          "internalType": "address",
          "name": "to",
          "type": "address"
        },
        {
          "internalType": "uint256",
          "name": "value",
          "type": "uint256"
        }
      ],
      "name": "transferFrom",
      "outputs": [
        {
          "internalType": "bool",
          "name": "",
          "type": "bool"
        }
      ],
      "stateMutability": "nonpayable",
      "type": "function"
    },
    {
      "inputs": [],
      "name": "triggerDailyBurnAndMint",
      "outputs": [],
      "stateMutability": "nonpayable",
      "type": "function"
    },
    {
      "inputs": [
        {
          "internalType": "address",
          "name": "newImplementation",
          "type": "address"
        }
      ],
      "name": "upgradeTo",
      "outputs": [],
      "stateMutability": "nonpayable",
      "type": "function"
    },
    {
      "inputs": [
        {
          "internalType": "address",
          "name": "newImplementation",
          "type": "address"
        },
        {
          "internalType": "bytes",
          "name": "data",
          "type": "bytes"
        }
      ],
      "name": "upgradeToAndCall",
      "outputs": [],
      "stateMutability": "payable",
      "type": "function"
    },
    {
      "inputs": [
        {
          "internalType": "address",
          "name": "recipient",
          "type": "address"
        },
        {
          "internalType": "uint256",
          "name": "value",
          "type": "uint256"
        }
      ],
      "name": "withdrawEth",
      "outputs": [],
      "stateMutability": "nonpayable",
      "type": "function"
    },
    {
      "inputs": [
        {
          "internalType": "address",
          "name": "token",
          "type": "address"
        },
        {
          "internalType": "address",
          "name": "receiver",
          "type": "address"
        },
        {
          "internalType": "uint256",
          "name": "amount",
          "type": "uint256"
        }
      ],
      "name": "withdrawalToken",
      "outputs": [],
      "stateMutability": "nonpayable",
      "type": "function"
    },
    {
      "stateMutability": "payable",
      "type": "receive"
    }
  ],
  "transactionHash": "0x9e4b76041647df6e349453f34a7000c33660846f9498e16ca1eab0f0b8d37ec4",
  "args": [
    "0x40Da818ef20255c58992a5c78d9efb52A739ff49",
    "0x2a651E77b5e35eCb431F596DA872872602c0661B"
  ],
  "numDeployments": 5,
  "solcInputHash": "fe8652cd273dbe2b0025eb5c6a00871d",
  "bytecode": "0x60e0604052306080523480156200001557600080fd5b5060405162004e0238038062004e0283398101604081905262000038916200012b565b620000426200005a565b6001600160a01b0391821660a0521660c05262000163565b7ff0c57e16840df040f15088dc2f81fe391c3923bec73e23a9662efc9c229c6a00805468010000000000000000900460ff1615620000ab5760405163f92ee8a960e01b815260040160405180910390fd5b80546001600160401b03908116146200010b5780546001600160401b0319166001600160401b0390811782556040519081527fc7f505b2f371ae2175ee4913f4499e1f2633a7b5936321eed1cdaeb6115181d29060200160405180910390a15b50565b80516001600160a01b03811681146200012657600080fd5b919050565b600080604083850312156200013f57600080fd5b6200014a836200010e565b91506200015a602084016200010e565b90509250929050565b60805160a05160c051614bff620002036000396000818161052501528181611d8c01528181611eb501528181611ef301528181612736015281816128d9015261402f015260008181610b0a01528181610f920152818161180601528181611c2601528181611e1801528181611f23015281816126ab015281816129000152613fe5015260008181612ea001528181612ec901526130ca0152614bff6000f3fe6080604052600436106103e85760003560e01c806370a0823111610208578063a9059cbb11610118578063d547741f116100ab578063e02a1fd31161007a578063e02a1fd314610c2f578063e5c9442314610c4f578063e876952514610c6f578063f466323514610c89578063fe575a8714610c9f57600080fd5b8063d547741f14610bb3578063d6c2a84a14610bd3578063dd62ed3e14610bf3578063ddbcb5fa14610c1357600080fd5b8063c78d61b3116100e7578063c78d61b314610b4c578063ca15c87314610b6b578063cc2a9a5b14610b8b578063d0e30db014610bab57600080fd5b8063a9059cbb14610aa7578063ad3cb1cc14610ac7578063b3b640df14610af8578063b8c9d25c14610b2c57600080fd5b80639f5ae5c31161019b578063a31966f61161016a578063a31966f6146109fa578063a3246ad314610a1a578063a7ef23d714610a47578063a7fd2b3f14610a67578063a8f33d3714610a8757600080fd5b80639f5ae5c314610990578063a064a03a146109b0578063a16f0198146109d0578063a217fddf146109e557600080fd5b80639010d07c116101d75780639010d07c1461090e57806391d148541461092e57806395d89b411461094e57806399e587341461096357600080fd5b806370a082311461085e5780637adbf973146108a15780637dc0d1d0146108c157806383f53259146108e157600080fd5b806336568abe1161030357806352d1902d1161029657806362f3765e1161026557806362f3765e1461079e57806364a1fa2c146107b4578063651ad7d5146107e457806365b096dc146108045780636d2b739b1461083157600080fd5b806352d1902d146107335780635357575914610748578063592470cd146107685780635f48f3931461078857600080fd5b806347ccca02116102d257806347ccca02146106cc5780634dec9b57146106ec5780634f1ef286146107005780634fe47f701461071357600080fd5b806336568abe146106565780633659cfe6146106765780633c3cb51514610696578063403f6fc0146106b657600080fd5b80631b9a91a41161037b57806327af97ee1161034a57806327af97ee146105c75780632cddf04a146105e75780632f2ff15d1461061a578063313ce5671461063a57600080fd5b80631b9a91a4146105475780631cb74eca1461056757806323b872dd14610587578063248a9ca3146105a757600080fd5b806318160ddd116103b757806318160ddd146104935780631847cc20146104d157806319b9d574146104e65780631a4cd1b11461051357600080fd5b806301ffc9a7146103fc57806306fdde0314610431578063095ea7b31461045357806316c2be6b1461047357600080fd5b366103f7576103f5610cbf565b005b600080fd5b34801561040857600080fd5b5061041c610417366004614209565b61105e565b60405190151581526020015b60405180910390f35b34801561043d57600080fd5b50610446611089565b6040516104289190614257565b34801561045f57600080fd5b5061041c61046e36600461429f565b61114c565b34801561047f57600080fd5b5061041c61048e3660046142cb565b611164565b34801561049f57600080fd5b507f52c63247e1f47db19d5ce0460030c497f067ca4cebf71ba98eeadabe20bace02545b604051908152602001610428565b3480156104dd57600080fd5b506103f5611190565b3480156104f257600080fd5b506104fb600281565b6040516001600160a01b039091168152602001610428565b34801561051f57600080fd5b506104fb7f000000000000000000000000000000000000000000000000000000000000000081565b34801561055357600080fd5b506103f561056236600461429f565b61142f565b34801561057357600080fd5b506004546104fb906001600160a01b031681565b34801561059357600080fd5b5061041c6105a23660046142e8565b6114d1565b3480156105b357600080fd5b506104c36105c2366004614329565b6114f7565b3480156105d357600080fd5b506002546104fb906001600160a01b031681565b3480156105f357600080fd5b50610607610602366004614329565b611519565b60405161ffff9091168152602001610428565b34801561062657600080fd5b506103f5610635366004614342565b611547565b34801561064657600080fd5b5060405160128152602001610428565b34801561066257600080fd5b506103f5610671366004614342565b611569565b34801561068257600080fd5b506103f56106913660046142cb565b6115a1565b3480156106a257600080fd5b506103f56106b13660046142e8565b6115bd565b3480156106c257600080fd5b506104c3610fa081565b3480156106d857600080fd5b506001546104fb906001600160a01b031681565b3480156106f857600080fd5b5060036104c3565b6103f561070e366004614388565b611690565b34801561071f57600080fd5b506103f561072e366004614329565b6116af565b34801561073f57600080fd5b506104c36116cd565b34801561075457600080fd5b506103f561076336600461445a565b6116ea565b34801561077457600080fd5b506103f56107833660046142cb565b611716565b34801561079457600080fd5b506104c360005481565b3480156107aa57600080fd5b506104c361271081565b3480156107c057600080fd5b5061041c6107cf366004614329565b600e6020526000908152604090205460ff1681565b3480156107f057600080fd5b506103f56107ff36600461445a565b61175e565b34801561081057600080fd5b506104c361081f3660046142cb565b60096020526000908152604090205481565b34801561083d57600080fd5b5061085161084c366004614477565b611791565b60405161042891906144bb565b34801561086a57600080fd5b506104c36108793660046142cb565b6001600160a01b03166000908152600080516020614b4a833981519152602052604090205490565b3480156108ad57600080fd5b506103f56108bc3660046142cb565b61191f565b3480156108cd57600080fd5b506003546104fb906001600160a01b031681565b3480156108ed57600080fd5b506104c36108fc3660046142cb565b600a6020526000908152604090205481565b34801561091a57600080fd5b506104fb6109293660046144e3565b61195a565b34801561093a57600080fd5b5061041c610949366004614342565b611989565b34801561095a57600080fd5b506104466119c1565b34801561096f57600080fd5b506104c361097e3660046142cb565b600b6020526000908152604090205481565b34801561099c57600080fd5b506103f56109ab3660046142cb565b611a00565b3480156109bc57600080fd5b506103f56109cb366004614505565b611a3b565b3480156109dc57600080fd5b506104fb600181565b3480156109f157600080fd5b506104c3600081565b348015610a0657600080fd5b506005546104fb906001600160a01b031681565b348015610a2657600080fd5b50610a3a610a35366004614329565b611add565b6040516104289190614572565b348015610a5357600080fd5b506103f5610a623660046142cb565b611b08565b348015610a7357600080fd5b506007546104fb906001600160a01b031681565b348015610a9357600080fd5b506006546104fb906001600160a01b031681565b348015610ab357600080fd5b5061041c610ac236600461429f565b611b43565b348015610ad357600080fd5b50610446604051806040016040528060058152602001640352e302e360dc1b81525081565b348015610b0457600080fd5b506104fb7f000000000000000000000000000000000000000000000000000000000000000081565b348015610b3857600080fd5b506008546104fb906001600160a01b031681565b348015610b5857600080fd5b50600f5461041c90610100900460ff1681565b348015610b7757600080fd5b506104c3610b86366004614329565b611b51565b348015610b9757600080fd5b506103f5610ba6366004614585565b611b77565b6104c3610cbf565b348015610bbf57600080fd5b506103f5610bce366004614342565b612119565b348015610bdf57600080fd5b506103f5610bee366004614607565b612135565b348015610bff57600080fd5b506104c3610c0e366004614477565b6121d1565b348015610c1f57600080fd5b506104c367016345785d8a000081565b348015610c3b57600080fd5b50610607610c4a366004614329565b61221b565b348015610c5b57600080fd5b506104c3610c6a366004614329565b612253565b348015610c7b57600080fd5b50600f5461041c9060ff1681565b348015610c9557600080fd5b506104fb61dead81565b348015610cab57600080fd5b5061041c610cba3660046142cb565b61236b565b60015460405163387777d760e21b8152336004820152346024820181905260009290916001600160a01b039091169063e1dddf5c90604401600060405180830381600087803b158015610d1157600080fd5b505af1158015610d25573d6000803e3d6000fd5b5050505080670853a0d2313c000003610db1576001546040516340d097c360e01b81523360048201526001600160a01b03909116906340d097c390839060240160206040518083038185885af1158015610d83573d6000803e3d6000fd5b50505050506040513d601f19601f82011682018060405250810190610da8919061467c565b50600091505090565b67016345785d8a0000811080610dc8575060005481115b80610de457506000610de267016345785d8a0000836146ab565b115b15610e1f5760405162461bcd60e51b81526020600482015260066024820152652176616c756560d01b60448201526064015b60405180910390fd5b6004805460405163b2dd5c0760e01b815233928101929092526001600160a01b03169063b2dd5c0790602401602060405180830381865afa158015610e68573d6000803e3d6000fd5b505050506040513d601f19601f82011682018060405250810190610e8c91906146bf565b610ec65760405162461bcd60e51b815260206004820152600b60248201526a085c9959da5cdd195c995960aa1b6044820152606401610e16565b3360009081526009602052604081208054839290610ee59084906146f2565b90915550506000805433825260096020526040909120541115610f365760405162461bcd60e51b81526020600482015260096024820152681b585e105b5bdd5b9d60ba1b6044820152606401610e16565b336000818152600a60205260409020429055610f529082612397565b6000610f6c612710610f6684610fa061253e565b906125c0565b90506000610f7f6002610f668585612602565b90506000610f8e308330612644565b90507f00000000000000000000000000000000000000000000000000000000000000006001600160a01b031663d0e30db0836040518263ffffffff1660e01b81526004016000604051808303818588803b158015610feb57600080fd5b505af1158015610fff573d6000803e3d6000fd5b5050505050600061101183833361282c565b9050337f90890809c654f11d6e72a28fa60149770a0d11ec6c92319d6ceb2bb0a4ea1a1561103e87612a83565b60408051918252602082018990520160405180910390a295945050505050565b60006001600160e01b03198216635a05180f60e01b1480611083575061108382612b17565b92915050565b7f52c63247e1f47db19d5ce0460030c497f067ca4cebf71ba98eeadabe20bace038054606091600080516020614b4a833981519152916110c890614705565b80601f01602080910402602001604051908101604052809291908181526020018280546110f490614705565b80156111415780601f1061111657610100808354040283529160200191611141565b820191906000526020600020905b81548152906001019060200180831161112457829003601f168201915b505050505091505090565b60003361115a818585612b4c565b5060019392505050565b60006110837ff6bd60d666281445586442f3baa703c98c5b0fcab74fe9e61ffdb03e64be4c8883611989565b600f5460ff1661119c57565b60006111ab6201518042614739565b6111b8906201518061474d565b6000818152600e602052604090205490915060ff16156111d55750565b6000818152600e6020526040808220805460ff1916600117905560085490516370a0823160e01b81526001600160a01b03909116600482015230906370a0823190602401602060405180830381865afa158015611236573d6000803e3d6000fd5b505050506040513d601f19601f8201168201806040525081019061125a919061467c565b905080600003611268575050565b600d546000906112859061271090610f6690859061ffff1661253e565b905080156112a6576008546112a6906001600160a01b031661dead83612b59565b600d546000906112c99061271090610f6690869062010000900461ffff1661253e565b905080156112ee576008546005546112ee916001600160a01b03908116911683612b59565b600d546000906113139061271090610f66908790640100000000900461ffff1661253e565b9050801561139157600854611332906001600160a01b03163083612b59565b6002546040516363c5b6f560e11b8152600481018390526001600160a01b039091169063c78b6dea90602401600060405180830381600087803b15801561137857600080fd5b505af115801561138c573d6000803e3d6000fd5b505050505b8183857f64c67ac00a5faa5be134c7b634356b13ea9997cc8167f5de530559942a0e755c60405160405180910390a4600860009054906101000a90046001600160a01b03166001600160a01b031663fff6cae96040518163ffffffff1660e01b8152600401600060405180830381600087803b15801561141057600080fd5b505af1158015611424573d6000803e3d6000fd5b505050505050505050565b600080516020614baa83398151915261144781612c97565b8147101561148a5760405162461bcd60e51b815260206004820152601060248201526f24b739bab33334b1b4b2b73a1021272160811b6044820152606401610e16565b6114948383612ca1565b60405182906001600160a01b038516906000907f0886ee76c4fcfcfd7f757fe6ef518b77bc91156422cfdc27932ec8c3eb06126f908290a4505050565b6000336114df858285612d54565b6114ea858585612db5565b60019150505b9392505050565b6000908152600080516020614b8a833981519152602052604090206001015490565b600d816003811061152957600080fd5b60109182820401919006600202915054906101000a900461ffff1681565b611550826114f7565b61155981612c97565b6115638383612e14565b50505050565b6001600160a01b03811633146115925760405163334bd91960e11b815260040160405180910390fd5b61159c8282612e59565b505050565b6115ba8160405180602001604052806000815250611690565b50565b600080516020614baa8339815191526115d581612c97565b60405163a9059cbb60e01b81526001600160a01b0384811660048301526024820184905285169063a9059cbb906044016020604051808303816000875af1158015611624573d6000803e3d6000fd5b505050506040513d601f19601f8201168201806040525081019061164891906146bf565b5081836001600160a01b0316856001600160a01b03167f0886ee76c4fcfcfd7f757fe6ef518b77bc91156422cfdc27932ec8c3eb06126f60405160405180910390a450505050565b611698612e95565b6116a182612f3c565b6116ab8282613002565b5050565b600080516020614baa8339815191526116c781612c97565b50600055565b60006116d76130bf565b50600080516020614b6a83398151915290565b600080516020614baa83398151915261170281612c97565b50600f805460ff1916911515919091179055565b600080516020614baa83398151915261172e81612c97565b61173b3083600019612b4c565b50600280546001600160a01b0319166001600160a01b0392909216919091179055565b600080516020614baa83398151915261177681612c97565b50600f80549115156101000261ff0019909216919091179055565b60006000196001600160a01b038316016117ad57506002611083565b6008546001600160a01b03908116908316036117cb57506000611083565b6008546001600160a01b0390811690841603611917576008546040516370a0823160e01b81526001600160a01b0391821660048201526000917f000000000000000000000000000000000000000000000000000000000000000016906370a0823190602401602060405180830381865afa15801561184d573d6000803e3d6000fd5b505050506040513d601f19601f82011682018060405250810190611871919061467c565b90506000600860009054906101000a90046001600160a01b03166001600160a01b0316630902f1ac6040518163ffffffff1660e01b8152600401606060405180830381865afa1580156118c8573d6000803e3d6000fd5b505050506040513d601f19601f820116820180604052508101906118ec9190614796565b50506001600160701b031690508082101561190c57600192505050611083565b600392505050611083565b506004611083565b600080516020614baa83398151915261193781612c97565b50600380546001600160a01b0319166001600160a01b0392909216919091179055565b6000828152600080516020614b2a8339815191526020819052604082206119819084613108565b949350505050565b6000918252600080516020614b8a833981519152602090815260408084206001600160a01b0393909316845291905290205460ff1690565b7f52c63247e1f47db19d5ce0460030c497f067ca4cebf71ba98eeadabe20bace048054606091600080516020614b4a833981519152916110c890614705565b600080516020614baa833981519152611a1881612c97565b50600180546001600160a01b0319166001600160a01b0392909216919091179055565b600080516020614baa833981519152611a5381612c97565b611a6360608301604084016147e6565b611a7360408401602085016147e6565b611a8060208501856147e6565b611a8a919061480a565b611a94919061480a565b61ffff1660c814611ad05760405162461bcd60e51b8152600401610e16906020808252600490820152630213230360e41b604082015260600190565b61159c600d8360036140e4565b6000818152600080516020614b2a83398151915260208190526040909120606091906114f090613114565b600080516020614baa833981519152611b2081612c97565b50600580546001600160a01b0319166001600160a01b0392909216919091179055565b60003361115a818585612db5565b6000818152600080516020614b2a8339815191526020819052604082206114f090613121565b6000611b8161312b565b805490915060ff600160401b820416159067ffffffffffffffff16600081158015611ba95750825b905060008267ffffffffffffffff166001148015611bc65750303b155b905081158015611bd4575080155b15611bf25760405163f92ee8a960e01b815260040160405180910390fd5b845467ffffffffffffffff191660011785558315611c1c57845460ff60401b1916600160401b1785555b6001600160a01b037f0000000000000000000000000000000000000000000000000000000000000000163011611c7a5760405162461bcd60e51b81526020600482015260036024820152620859dd60ea1b6044820152606401610e16565b611c82613154565b611c8a613154565b611cd76040518060400160405280600a815260200169536b79204c616275627560b01b81525060405180604001604052806009815260200168536b794c616275627560b81b81525061315c565b611ce2600033612e14565b50611d0d7fbb0e9981f3e0d8e82b96d842d9255c9c0326f67ccc118d7edc5365c9372ae9be33612e14565b50611d26600080516020614baa83398151915233612e14565b50600180546001600160a01b03199081166001600160a01b038a8116919091179092556006805482168d84161790556005805482168c84161790556007805482168b8416179055600480549091168883161781556040805163c45a015560e01b815290517f00000000000000000000000000000000000000000000000000000000000000009093169263c45a0155928281019260209291908290030181865afa158015611dd7573d6000803e3d6000fd5b505050506040513d601f19601f82011682018060405250810190611dfb9190614825565b6040516364e329cb60e11b81523060048201526001600160a01b037f000000000000000000000000000000000000000000000000000000000000000081166024830152919091169063c9c65396906044016020604051808303816000875af1158015611e6b573d6000803e3d6000fd5b505050506040513d601f19601f82011682018060405250810190611e8f9190614825565b600880546001600160a01b0319166001600160a01b0392909216919091179055611edc307f0000000000000000000000000000000000000000000000000000000000000000600019612b4c565b60405163095ea7b360e01b81526001600160a01b037f00000000000000000000000000000000000000000000000000000000000000008116600483015260001960248301527f0000000000000000000000000000000000000000000000000000000000000000169063095ea7b3906044016020604051808303816000875af1158015611f6c573d6000803e3d6000fd5b505050506040513d601f19601f82011682018060405250810190611f9091906146bf565b50600c805460018181018355600083815260108084047fdf6966c971051c3d54ec59162606531493a51404a002842f56009d7e5cf4a8c790810180546002600f978816810261010090810a612328810261ffff918202199094169390931790935588548088018a5585810485018054918a168302850a611b5881029085021990921691909117905588548088018a5585810485018054918a168302850a611388810290850219909216919091179055885496870190985592850490910180549490951690950290940a610bb8810294021990911692909217905567016345785d8a000081556040805160608101825260648082526020820193909352908101919091526120a190600d90600361417e565b506120c68b6120b26012600a614926565b6120c1906430e4f9b40061474d565b61316e565b831561210c57845460ff60401b19168555604051600181527fc7f505b2f371ae2175ee4913f4499e1f2633a7b5936321eed1cdaeb6115181d29060200160405180910390a15b5050505050505050505050565b612122826114f7565b61212b81612c97565b6115638383612e59565b600080516020614baa83398151915261214d81612c97565b612159600c60006141d3565b60005b8281101561156357600c84848381811061217857612178614764565b905060200201602081019061218d91906147e6565b8154600180820184556000938452602090932060108204018054600f9092166002026101000a61ffff8181021990931693909216919091029190911790550161215c565b6001600160a01b0391821660009081527f52c63247e1f47db19d5ce0460030c497f067ca4cebf71ba98eeadabe20bace016020908152604080832093909416825291909152205490565b600c818154811061222b57600080fd5b9060005260206000209060109182820401919006600202915054906101000a900461ffff1681565b600080600860009054906101000a90046001600160a01b03166001600160a01b03166318160ddd6040518163ffffffff1660e01b8152600401602060405180830381865afa1580156122a9573d6000803e3d6000fd5b505050506040513d601f19601f820116820180604052508101906122cd919061467c565b90506000600860009054906101000a90046001600160a01b03166001600160a01b0316630902f1ac6040518163ffffffff1660e01b8152600401606060405180830381865afa158015612324573d6000803e3d6000fd5b505050506040513d601f19601f820116820180604052508101906123489190614796565b506001600160701b03169150819050612361838661474d565b6119819190614739565b60006110837f3424dc5ca6b3cf6dd87e69df719ea55d37c3b029e4042ebd09588944d252a00383611989565b6001546001600160a01b0316158015906123bb57506007546001600160a01b031615155b80156123d157506002546001600160a01b031615155b6124025760405162461bcd60e51b8152602060048201526002602482015261021360f41b6044820152606401610e16565b6000612416612710610f66846107d061253e565b600254604051630332026d60e31b81526001600160a01b03868116600483015292935091169063199013689083906024016000604051808303818588803b15801561246057600080fd5b505af1158015612474573d6000803e3d6000fd5b50505050506000612496612710610f666103e88661253e90919063ffffffff16565b9050600160009054906101000a90046001600160a01b03166001600160a01b0316631149a81a826040518263ffffffff1660e01b81526004016000604051808303818588803b1580156124e857600080fd5b505af11580156124fc573d6000803e3d6000fd5b5050505050600061251e612710610f666103e88761253e90919063ffffffff16565b600754909150612537906001600160a01b031682612ca1565b5050505050565b60008260000361255057506000611083565b600061255c838561474d565b9050826125698583614739565b146114f05760405162461bcd60e51b815260206004820152602160248201527f536166654d6174683a206d756c7469706c69636174696f6e206f766572666c6f6044820152607760f81b6064820152608401610e16565b60006114f083836040518060400160405280601a81526020017f536166654d6174683a206469766973696f6e206279207a65726f0000000000008152506131a4565b60006114f083836040518060400160405280601e81526020017f536166654d6174683a207375627472616374696f6e206f766572666c6f7700008152506131d2565b60008034116126885760405162461bcd60e51b815260206004820152601060248201526f053656e642045544820746f20737761760841b6044820152606401610e16565b6040805160028082526060820183526000926020830190803683370190505090507f0000000000000000000000000000000000000000000000000000000000000000816000815181106126dd576126dd614764565b60200260200101906001600160a01b031690816001600160a01b031681525050848160018151811061271157612711614764565b6001600160a01b03928316602091820292909201015260405163b6f9de9560e01b81527f00000000000000000000000000000000000000000000000000000000000000009091169063b6f9de959086906127779060009086906002904290600401614935565b6000604051808303818588803b15801561279057600080fd5b505af11580156127a4573d6000803e3d6000fd5b50506040516370a0823160e01b815260026004820152600093506001600160a01b03891692506370a082319150602401602060405180830381865afa1580156127f1573d6000803e3d6000fd5b505050506040513d601f19601f82011682018060405250810190612815919061467c565b905061282360028583612b59565b95945050505050565b600080841161287d5760405162461bcd60e51b815260206004820152601b60248201527f496e73756666696369656e7420746f6b656e412062616c616e636500000000006044820152606401610e16565b600083116128cd5760405162461bcd60e51b815260206004820152601b60248201527f496e73756666696369656e7420746f6b656e422062616c616e636500000000006044820152606401610e16565b60006001600160a01b037f00000000000000000000000000000000000000000000000000000000000000001663e8e337007f000000000000000000000000000000000000000000000000000000000000000030888886808a612931426102586146f2565b60405160e08a901b6001600160e01b03191681526001600160a01b039889166004820152968816602488015260448701959095526064860193909352608485019190915260a484015290921660c482015260e4810191909152610104016060604051808303816000875af11580156129ad573d6000803e3d6000fd5b505050506040513d601f19601f820116820180604052508101906129d1919061496a565b6001600160a01b0386166000908152600b6020526040812080549295508594509250906129ff9084906146f2565b90915550506002546001600160a01b038481166000818152600b6020526040908190205490516307e1321d60e51b81526004810192909252602482015291169063fc2643a090604401600060405180830381600087803b158015612a6257600080fd5b505af1158015612a76573d6000803e3d6000fd5b5092979650505050505050565b600064e8d4a5100082600360009054906101000a90046001600160a01b03166001600160a01b03166308760b0d6040518163ffffffff1660e01b8152600401602060405180830381865afa158015612adf573d6000803e3d6000fd5b505050506040513d601f19601f82011682018060405250810190612b03919061467c565b612b0d919061474d565b6110839190614739565b60006001600160e01b03198216637965db0b60e01b148061108357506301ffc9a760e01b6001600160e01b0319831614611083565b61159c8383836001613203565b600080516020614b4a8339815191526001600160a01b038416612b955781816002016000828254612b8a91906146f2565b90915550612c079050565b6001600160a01b03841660009081526020829052604090205482811015612be85760405163391434e360e21b81526001600160a01b03861660048201526024810182905260448101849052606401610e16565b6001600160a01b03851660009081526020839052604090209083900390555b6001600160a01b038316612c25576002810180548390039055612c44565b6001600160a01b03831660009081526020829052604090208054830190555b826001600160a01b0316846001600160a01b03167fddf252ad1be2c89b69c2b068fc378daa952ba7f163c4a11628f55a4df523b3ef84604051612c8991815260200190565b60405180910390a350505050565b6115ba81336132ea565b604080516000808252602082019092526001600160a01b038416908390604051612ccb9190614998565b60006040518083038185875af1925050503d8060008114612d08576040519150601f19603f3d011682016040523d82523d6000602084013e612d0d565b606091505b505090508061159c5760405162461bcd60e51b815260206004820152601360248201527211551217d514905394d1915497d19052531151606a1b6044820152606401610e16565b6000612d6084846121d1565b90506000198110156115635781811015612da657604051637dc7a0d960e11b81526001600160a01b03841660048201526024810182905260448101839052606401610e16565b61156384848484036000613203565b6001600160a01b038316612ddf57604051634b637e8f60e11b815260006004820152602401610e16565b6001600160a01b038216612e095760405163ec442f0560e01b815260006004820152602401610e16565b61159c838383613323565b6000600080516020614b2a83398151915281612e3085856138be565b90508015611981576000858152602083905260409020612e50908561396a565b50949350505050565b6000600080516020614b2a83398151915281612e75858561397f565b90508015611981576000858152602083905260409020612e5090856139fb565b306001600160a01b037f0000000000000000000000000000000000000000000000000000000000000000161480612f1c57507f00000000000000000000000000000000000000000000000000000000000000006001600160a01b0316612f10600080516020614b6a833981519152546001600160a01b031690565b6001600160a01b031614155b15612f3a5760405163703e46dd60e11b815260040160405180910390fd5b565b7fbb0e9981f3e0d8e82b96d842d9255c9c0326f67ccc118d7edc5365c9372ae9be612f6681612c97565b60408051600080516020614b6a83398151915260208201520160408051601f1981840301815282825280516020918201206004845260248401909252820180516001600160e01b03166352d1902d60e01b17905290612fc6908490613a10565b80519060200120146116ab5760405162461bcd60e51b8152602060048201526005602482015264085555525160da1b6044820152606401610e16565b816001600160a01b03166352d1902d6040518163ffffffff1660e01b8152600401602060405180830381865afa92505050801561305c575060408051601f3d908101601f191682019092526130599181019061467c565b60015b61308457604051634c9c8ce360e01b81526001600160a01b0383166004820152602401610e16565b600080516020614b6a83398151915281146130b557604051632a87526960e21b815260048101829052602401610e16565b61159c8383613a7d565b306001600160a01b037f00000000000000000000000000000000000000000000000000000000000000001614612f3a5760405163703e46dd60e11b815260040160405180910390fd5b60006114f08383613ad3565b606060006114f083613afd565b6000611083825490565b6000807ff0c57e16840df040f15088dc2f81fe391c3923bec73e23a9662efc9c229c6a00611083565b612f3a613b59565b613164613b59565b6116ab8282613b7e565b6001600160a01b0382166131985760405163ec442f0560e01b815260006004820152602401610e16565b6116ab60008383613323565b600081836131c55760405162461bcd60e51b8152600401610e169190614257565b5060006128238486614739565b600081848411156131f65760405162461bcd60e51b8152600401610e169190614257565b50600061282384866149b4565b600080516020614b4a8339815191526001600160a01b03851661323c5760405163e602df0560e01b815260006004820152602401610e16565b6001600160a01b03841661326657604051634a1406b160e11b815260006004820152602401610e16565b6001600160a01b0380861660009081526001830160209081526040808320938816835292905220839055811561253757836001600160a01b0316856001600160a01b03167f8c5be1e5ebec7d5bd14f71427d1e84f3dd0314c0f7b2291e5b200ac8c7c3b925856040516132db91815260200190565b60405180910390a35050505050565b6132f48282611989565b6116ab5760405163e2517d3f60e01b81526001600160a01b038216600482015260248101839052604401610e16565b61332c8361236b565b156133685760405162461bcd60e51b815260206004820152600c60248201526b08589b1858dadb1a5cdd195960a21b6044820152606401610e16565b80670de0b6b3a76400001480156133ec57506004805460405163b2dd5c0760e01b81526001600160a01b038681169382019390935291169063b2dd5c0790602401602060405180830381865afa1580156133c6573d6000803e3d6000fd5b505050506040513d601f19601f820116820180604052508101906133ea91906146bf565b155b1561345b5760048054604051632a99dcd560e21b81526001600160a01b0386811693820193909352848316602482015291169063aa67735490604401600060405180830381600087803b15801561344257600080fd5b505af1158015613456573d6000803e3d6000fd5b505050505b61346483611164565b80613473575061347382611164565b156134835761159c838383612b59565b600061348f8484611791565b905060038160048111156134a5576134a56144a5565b036134db5760405162461bcd60e51b8152600401610e16906020808252600490820152632162757960e01b604082015260600190565b60008160048111156134ef576134ef6144a5565b036135255760405162461bcd60e51b8152600401610e16906020808252600490820152630858591960e21b604082015260600190565b600f54610100900460ff1661357f576001816004811115613548576135486144a5565b0361357f5760405162461bcd60e51b81526020600482015260076024820152662152656d6f766560c81b6044820152606401610e16565b6001816004811115613593576135936144a5565b0361388b5760006135a383612253565b6001600160a01b0385166000908152600b60205260409020549091508111156136015760405162461bcd60e51b815260206004820152601060248201526f085859191959081b1c08185b5bdd5b9d60821b6044820152606401610e16565b6001600160a01b0384166000908152600b6020526040812080548392906136299084906149b4565b90915550506002546001600160a01b038581166000818152600b6020526040908190205490516307e1321d60e51b81526004810192909252602482015291169063fc2643a090604401600060405180830381600087803b15801561368c57600080fd5b505af11580156136a0573d6000803e3d6000fd5b5050506001600160a01b0385166000908152600a602052604081205491506136cb8262278d006146f2565b42101561371d57613716612710610f66600c6000815481106136ef576136ef614764565b600091825260209091206010820401548991600f166002026101000a900461ffff1661253e565b905061379f565b61372a82624f1a006146f2565b42101561374e57613716612710610f66600c6001815481106136ef576136ef614764565b61375b826276a7006146f2565b42101561377f57613716612710610f66600c6002815481106136ef576136ef614764565b61379c612710610f66600c6003815481106136ef576136ef614764565b90505b6137ac8761dead83612b59565b6137b68582612602565b94506137c3878787612b59565b856001600160a01b03167f33d76f9964b2e4d0479931f8179012829dac684bb00145bda1404e54975b51a0600360009054906101000a90046001600160a01b03166001600160a01b03166372faf1426040518163ffffffff1660e01b8152600401602060405180830381865afa158015613841573d6000803e3d6000fd5b505050506040513d601f19601f82011682018060405250810190613865919061467c565b6040805191825260208201899052810184905260600160405180910390a2505050611563565b600281600481111561389f5761389f6144a5565b036138b3576138ae8483613bcf565b611563565b611563848484612b59565b6000600080516020614b8a8339815191526138d98484611989565b613959576000848152602082815260408083206001600160a01b03871684529091529020805460ff1916600117905561390f3390565b6001600160a01b0316836001600160a01b0316857f2f8788117e7eff1d82e926ec794901d17c78024a50270940304540a733656f0d60405160405180910390a46001915050611083565b6000915050611083565b5092915050565b60006114f0836001600160a01b038416613cbd565b6000600080516020614b8a83398151915261399a8484611989565b15613959576000848152602082815260408083206001600160a01b0387168085529252808320805460ff1916905551339287917ff6391f5c32d9c69d2a47ea670b442974b53935d1edc7fd64eb21e047a839171b9190a46001915050611083565b60006114f0836001600160a01b038416613d0c565b6060600080846001600160a01b031684604051613a2d9190614998565b600060405180830381855afa9150503d8060008114613a68576040519150601f19603f3d011682016040523d82523d6000602084013e613a6d565b606091505b5091509150612823858383613df5565b613a8682613e51565b6040516001600160a01b038316907fbc7cd75a20ee27fd9adebab32041f755214dbc6bffa90cc0225b39da2e5c2d3b90600090a2805115613acb5761159c8282613eb6565b6116ab613f0e565b6000826000018281548110613aea57613aea614764565b9060005260206000200154905092915050565b606081600001805480602002602001604051908101604052809291908181526020018280548015613b4d57602002820191906000526020600020905b815481526020019060010190808311613b39575b50505050509050919050565b613b61613f2d565b612f3a57604051631afcd79f60e31b815260040160405180910390fd5b613b86613b59565b600080516020614b4a8339815191527f52c63247e1f47db19d5ce0460030c497f067ca4cebf71ba98eeadabe20bace03613bc08482614a17565b50600481016115638382614a17565b60035460408051637128a3f360e01b815290516000926001600160a01b031691637128a3f39160048083019260209291908290030181865afa158015613c19573d6000803e3d6000fd5b505050506040513d601f19601f82011682018060405250810190613c3d919061467c565b613c4890600261474d565b90506101f4811015613c5957506101f45b6127108110613c6757506127105b6000613c79612710610f66858561253e565b600654909150613c949085906001600160a01b031683612b59565b6000613ca08483612602565b9050801561253757613cb3853083612b59565b6125378186613f47565b6000818152600183016020526040812054613d0457508154600181810184556000848152602080822090930184905584548482528286019093526040902091909155611083565b506000611083565b60008181526001830160205260408120548015613959576000613d306001836149b4565b8554909150600090613d44906001906149b4565b9050808214613da9576000866000018281548110613d6457613d64614764565b9060005260206000200154905080876000018481548110613d8757613d87614764565b6000918252602080832090910192909255918252600188019052604090208390555b8554869080613dba57613dba614ad7565b600190038181906000526020600020016000905590558560010160008681526020019081526020016000206000905560019350505050611083565b606082613e0a57613e05826140bc565b6114f0565b8151158015613e2157506001600160a01b0384163b155b15613e4a57604051639996b31560e01b81526001600160a01b0385166004820152602401610e16565b50806114f0565b806001600160a01b03163b600003613e8757604051634c9c8ce360e01b81526001600160a01b0382166004820152602401610e16565b600080516020614b6a83398151915280546001600160a01b0319166001600160a01b0392909216919091179055565b6060600080846001600160a01b031684604051613ed39190614998565b600060405180830381855af49150503d8060008114613a68576040519150601f19603f3d011682016040523d82523d6000602084013e613a6d565b3415612f3a5760405163b398979f60e01b815260040160405180910390fd5b6000613f3761312b565b54600160401b900460ff16919050565b60008211613f8e5760405162461bcd60e51b8152602060048201526014602482015273125b9d985b1a59081a5b9c1d5d08185b5bdd5b9d60621b6044820152606401610e16565b6040805160028082526060820183526000926020830190803683370190505090503081600081518110613fc357613fc3614764565b60200260200101906001600160a01b031690816001600160a01b0316815250507f00000000000000000000000000000000000000000000000000000000000000008160018151811061401757614017614764565b6001600160a01b0392831660209182029290920101527f00000000000000000000000000000000000000000000000000000000000000001663791ac9478460008486614065426102586146f2565b6040518663ffffffff1660e01b8152600401614085959493929190614aed565b600060405180830381600087803b15801561409f57600080fd5b505af11580156140b3573d6000803e3d6000fd5b50505050505050565b8051156140cb57805160208201fd5b60405163d6bda27560e01b815260040160405180910390fd5b60018301918390821561416e5791602002820160005b8382111561413e57833561ffff1683826101000a81548161ffff021916908361ffff16021790555092602001926002016020816001010492830192600103026140fa565b801561416c5782816101000a81549061ffff021916905560020160208160010104928301926001030261413e565b505b5061417a9291506141f4565b5090565b60018301918390821561416e5791602002820160005b8382111561413e57835183826101000a81548161ffff021916908360ff1602179055509260200192600201602081600101049283019260010302614194565b50805460008255600f0160109004906000526020600020908101906115ba91905b5b8082111561417a57600081556001016141f5565b60006020828403121561421b57600080fd5b81356001600160e01b0319811681146114f057600080fd5b60005b8381101561424e578181015183820152602001614236565b50506000910152565b6020815260008251806020840152614276816040850160208701614233565b601f01601f19169190910160400192915050565b6001600160a01b03811681146115ba57600080fd5b600080604083850312156142b257600080fd5b82356142bd8161428a565b946020939093013593505050565b6000602082840312156142dd57600080fd5b81356114f08161428a565b6000806000606084860312156142fd57600080fd5b83356143088161428a565b925060208401356143188161428a565b929592945050506040919091013590565b60006020828403121561433b57600080fd5b5035919050565b6000806040838503121561435557600080fd5b8235915060208301356143678161428a565b809150509250929050565b634e487b7160e01b600052604160045260246000fd5b6000806040838503121561439b57600080fd5b82356143a68161428a565b9150602083013567ffffffffffffffff808211156143c357600080fd5b818501915085601f8301126143d757600080fd5b8135818111156143e9576143e9614372565b604051601f8201601f19908116603f0116810190838211818310171561441157614411614372565b8160405282815288602084870101111561442a57600080fd5b8260208601602083013760006020848301015280955050505050509250929050565b80151581146115ba57600080fd5b60006020828403121561446c57600080fd5b81356114f08161444c565b6000806040838503121561448a57600080fd5b82356144958161428a565b915060208301356143678161428a565b634e487b7160e01b600052602160045260246000fd5b60208101600583106144dd57634e487b7160e01b600052602160045260246000fd5b91905290565b600080604083850312156144f657600080fd5b50508035926020909101359150565b60006060828403121561451757600080fd5b8260608301111561452757600080fd5b50919050565b60008151808452602080850194506020840160005b838110156145675781516001600160a01b031687529582019590820190600101614542565b509495945050505050565b6020815260006114f0602083018461452d565b60008060008060008060c0878903121561459e57600080fd5b86356145a98161428a565b955060208701356145b98161428a565b945060408701356145c98161428a565b935060608701356145d98161428a565b925060808701356145e98161428a565b915060a08701356145f98161428a565b809150509295509295509295565b6000806020838503121561461a57600080fd5b823567ffffffffffffffff8082111561463257600080fd5b818501915085601f83011261464657600080fd5b81358181111561465557600080fd5b8660208260051b850101111561466a57600080fd5b60209290920196919550909350505050565b60006020828403121561468e57600080fd5b5051919050565b634e487b7160e01b600052601260045260246000fd5b6000826146ba576146ba614695565b500690565b6000602082840312156146d157600080fd5b81516114f08161444c565b634e487b7160e01b600052601160045260246000fd5b80820180821115611083576110836146dc565b600181811c9082168061471957607f821691505b60208210810361452757634e487b7160e01b600052602260045260246000fd5b60008261474857614748614695565b500490565b8082028115828204841417611083576110836146dc565b634e487b7160e01b600052603260045260246000fd5b80516001600160701b038116811461479157600080fd5b919050565b6000806000606084860312156147ab57600080fd5b6147b48461477a565b92506147c26020850161477a565b9150604084015163ffffffff811681146147db57600080fd5b809150509250925092565b6000602082840312156147f857600080fd5b813561ffff811681146114f057600080fd5b61ffff818116838216019080821115613963576139636146dc565b60006020828403121561483757600080fd5b81516114f08161428a565b600181815b8085111561487d578160001904821115614863576148636146dc565b8085161561487057918102915b93841c9390800290614847565b509250929050565b60008261489457506001611083565b816148a157506000611083565b81600181146148b757600281146148c1576148dd565b6001915050611083565b60ff8411156148d2576148d26146dc565b50506001821b611083565b5060208310610133831016604e8410600b8410161715614900575081810a611083565b61490a8383614842565b806000190482111561491e5761491e6146dc565b029392505050565b60006114f060ff841683614885565b84815260806020820152600061494e608083018661452d565b6001600160a01b03949094166040830152506060015292915050565b60008060006060848603121561497f57600080fd5b8351925060208401519150604084015190509250925092565b600082516149aa818460208701614233565b9190910192915050565b81810381811115611083576110836146dc565b601f82111561159c576000816000526020600020601f850160051c810160208610156149f05750805b601f850160051c820191505b81811015614a0f578281556001016149fc565b505050505050565b815167ffffffffffffffff811115614a3157614a31614372565b614a4581614a3f8454614705565b846149c7565b602080601f831160018114614a7a5760008415614a625750858301515b600019600386901b1c1916600185901b178555614a0f565b600085815260208120601f198616915b82811015614aa957888601518255948401946001909101908401614a8a565b5085821015614ac75787850151600019600388901b60f8161c191681555b5050505050600190811b01905550565b634e487b7160e01b600052603160045260246000fd5b85815284602082015260a060408201526000614b0c60a083018661452d565b6001600160a01b039490941660608301525060800152939250505056fec1f6fe24621ce81ec5827caf0253cadb74709b061630e6b55e8237170593200052c63247e1f47db19d5ce0460030c497f067ca4cebf71ba98eeadabe20bace00360894a13ba1a3210667c828492db98dca3e2076cc3735a920a3ca505d382bbc02dd7bc7dec4dceedda775e58dd541e08a116c6c53815c0bd028192f7b62680042c574c7286eda4a697031a50021e14becf19cc00ff83d93a7547d3809b37f72a2646970667358221220d4246da6c0681c5fc64dfdb93ece30bf40aba0f2cf55e5c5144a6141af9e314864736f6c63430008160033",
  "devdoc": {
    "errors": {
      "AccessControlBadConfirmation()": [
        {
          "details": "The caller of a function is not the expected one. NOTE: Don't confuse with {AccessControlUnauthorizedAccount}."
        }
      ],
      "AccessControlUnauthorizedAccount(address,bytes32)": [
        {
          "details": "The `account` is missing a role."
        }
      ],
      "AddressEmptyCode(address)": [
        {
          "details": "There's no code at `target` (it is not a contract)."
        }
      ],
      "ERC1967InvalidImplementation(address)": [
        {
          "details": "The `implementation` of the proxy is invalid."
        }
      ],
      "ERC1967NonPayable()": [
        {
          "details": "An upgrade function sees `msg.value > 0` that may be lost."
        }
      ],
      "ERC20InsufficientAllowance(address,uint256,uint256)": [
        {
          "details": "Indicates a failure with the `spender`s `allowance`. Used in transfers.",
          "params": {
            "allowance": "Amount of tokens a `spender` is allowed to operate with.",
            "needed": "Minimum amount required to perform a transfer.",
            "spender": "Address that may be allowed to operate on tokens without being their owner."
          }
        }
      ],
      "ERC20InsufficientBalance(address,uint256,uint256)": [
        {
          "details": "Indicates an error related to the current `balance` of a `sender`. Used in transfers.",
          "params": {
            "balance": "Current balance for the interacting account.",
            "needed": "Minimum amount required to perform a transfer.",
            "sender": "Address whose tokens are being transferred."
          }
        }
      ],
      "ERC20InvalidApprover(address)": [
        {
          "details": "Indicates a failure with the `approver` of a token to be approved. Used in approvals.",
          "params": {
            "approver": "Address initiating an approval operation."
          }
        }
      ],
      "ERC20InvalidReceiver(address)": [
        {
          "details": "Indicates a failure with the token `receiver`. Used in transfers.",
          "params": {
            "receiver": "Address to which tokens are being transferred."
          }
        }
      ],
      "ERC20InvalidSender(address)": [
        {
          "details": "Indicates a failure with the token `sender`. Used in transfers.",
          "params": {
            "sender": "Address whose tokens are being transferred."
          }
        }
      ],
      "ERC20InvalidSpender(address)": [
        {
          "details": "Indicates a failure with the `spender` to be approved. Used in approvals.",
          "params": {
            "spender": "Address that may be allowed to operate on tokens without being their owner."
          }
        }
      ],
      "FailedCall()": [
        {
          "details": "A call to an address target failed. The target may have reverted."
        }
      ],
      "InvalidInitialization()": [
        {
          "details": "The contract is already initialized."
        }
      ],
      "NotInitializing()": [
        {
          "details": "The contract is not initializing."
        }
      ],
      "UUPSUnauthorizedCallContext()": [
        {
          "details": "The call is from an unauthorized context."
        }
      ],
      "UUPSUnsupportedProxiableUUID(bytes32)": [
        {
          "details": "The storage `slot` is unsupported as a UUID."
        }
      ]
    },
    "events": {
      "Approval(address,address,uint256)": {
        "details": "Emitted when the allowance of a `spender` for an `owner` is set by a call to {approve}. `value` is the new allowance."
      },
      "Initialized(uint64)": {
        "details": "Triggered when the contract has been initialized or reinitialized."
      },
      "RoleAdminChanged(bytes32,bytes32,bytes32)": {
        "details": "Emitted when `newAdminRole` is set as ``role``'s admin role, replacing `previousAdminRole` `DEFAULT_ADMIN_ROLE` is the starting admin for all roles, despite {RoleAdminChanged} not being emitted to signal this."
      },
      "RoleGranted(bytes32,address,address)": {
        "details": "Emitted when `account` is granted `role`. `sender` is the account that originated the contract call. This account bears the admin role (for the granted role). Expected in cases where the role was granted using the internal {AccessControl-_grantRole}."
      },
      "RoleRevoked(bytes32,address,address)": {
        "details": "Emitted when `account` is revoked `role`. `sender` is the account that originated the contract call:   - if using `revokeRole`, it is the admin role bearer   - if using `renounceRole`, it is the role bearer (i.e. `account`)"
      },
      "Transfer(address,address,uint256)": {
        "details": "Emitted when `value` tokens are moved from one account (`from`) to another (`to`). Note that `value` may be zero."
      },
      "Upgraded(address)": {
        "details": "Emitted when the implementation is upgraded."
      }
    },
    "kind": "dev",
    "methods": {
      "allowance(address,address)": {
        "details": "Returns the remaining number of tokens that `spender` will be allowed to spend on behalf of `owner` through {transferFrom}. This is zero by default. This value changes when {approve} or {transferFrom} are called."
      },
      "approve(address,uint256)": {
        "details": "See {IERC20-approve}. NOTE: If `value` is the maximum `uint256`, the allowance is not updated on `transferFrom`. This is semantically equivalent to an infinite approval. Requirements: - `spender` cannot be the zero address."
      },
      "balanceOf(address)": {
        "details": "Returns the value of tokens owned by `account`."
      },
      "constructor": {
        "custom:oz-upgrades-unsafe-allow": "constructor"
      },
      "decimals()": {
        "details": "Returns the number of decimals used to get its user representation. For example, if `decimals` equals `2`, a balance of `505` tokens should be displayed to a user as `5.05` (`505 / 10 ** 2`). Tokens usually opt for a value of 18, imitating the relationship between Ether and Wei. This is the default value returned by this function, unless it's overridden. NOTE: This information is only used for _display_ purposes: it in no way affects any of the arithmetic of the contract, including {IERC20-balanceOf} and {IERC20-transfer}."
      },
      "getRoleAdmin(bytes32)": {
        "details": "Returns the admin role that controls `role`. See {grantRole} and {revokeRole}. To change a role's admin, use {_setRoleAdmin}."
      },
      "getRoleMember(bytes32,uint256)": {
        "details": "Returns one of the accounts that have `role`. `index` must be a value between 0 and {getRoleMemberCount}, non-inclusive. Role bearers are not sorted in any particular way, and their ordering may change at any point. WARNING: When using {getRoleMember} and {getRoleMemberCount}, make sure you perform all queries on the same block. See the following https://forum.openzeppelin.com/t/iterating-over-elements-on-enumerableset-in-openzeppelin-contracts/2296[forum post] for more information."
      },
      "getRoleMemberCount(bytes32)": {
        "details": "Returns the number of accounts that have `role`. Can be used together with {getRoleMember} to enumerate all bearers of a role."
      },
      "getRoleMembers(bytes32)": {
        "details": "Return all accounts that have `role` WARNING: This operation will copy the entire storage to memory, which can be quite expensive. This is designed to mostly be used by view accessors that are queried without any gas fees. Developers should keep in mind that this function has an unbounded cost, and using it as part of a state-changing function may render the function uncallable if the set grows to a point where copying to memory consumes too much gas to fit in a block."
      },
      "grantRole(bytes32,address)": {
        "details": "Grants `role` to `account`. If `account` had not been already granted `role`, emits a {RoleGranted} event. Requirements: - the caller must have ``role``'s admin role. May emit a {RoleGranted} event."
      },
      "hasRole(bytes32,address)": {
        "details": "Returns `true` if `account` has been granted `role`."
      },
      "name()": {
        "details": "Returns the name of the token."
      },
      "proxiableUUID()": {
        "details": "Implementation of the ERC-1822 {proxiableUUID} function. This returns the storage slot used by the implementation. It is used to validate the implementation's compatibility when performing an upgrade. IMPORTANT: A proxy pointing at a proxiable contract should not be considered proxiable itself, because this risks bricking a proxy that upgrades to it, by delegating to itself until out of gas. Thus it is critical that this function revert if invoked through a proxy. This is guaranteed by the `notDelegated` modifier."
      },
      "renounceRole(bytes32,address)": {
        "details": "Revokes `role` from the calling account. Roles are often managed via {grantRole} and {revokeRole}: this function's purpose is to provide a mechanism for accounts to lose their privileges if they are compromised (such as when a trusted device is misplaced). If the calling account had been revoked `role`, emits a {RoleRevoked} event. Requirements: - the caller must be `callerConfirmation`. May emit a {RoleRevoked} event."
      },
      "revokeRole(bytes32,address)": {
        "details": "Revokes `role` from `account`. If `account` had been granted `role`, emits a {RoleRevoked} event. Requirements: - the caller must have ``role``'s admin role. May emit a {RoleRevoked} event."
      },
      "supportsInterface(bytes4)": {
        "details": "Returns true if this contract implements the interface defined by `interfaceId`. See the corresponding https://eips.ethereum.org/EIPS/eip-165#how-interfaces-are-identified[ERC section] to learn more about how these ids are created. This function call must use less than 30 000 gas."
      },
      "symbol()": {
        "details": "Returns the symbol of the token, usually a shorter version of the name."
      },
      "totalSupply()": {
        "details": "Returns the value of tokens in existence."
      },
      "transfer(address,uint256)": {
        "details": "See {IERC20-transfer}. Requirements: - `to` cannot be the zero address. - the caller must have a balance of at least `value`."
      },
      "transferFrom(address,address,uint256)": {
        "details": "See {IERC20-transferFrom}. Skips emitting an {Approval} event indicating an allowance update. This is not required by the ERC. See {xref-ERC20-_approve-address-address-uint256-bool-}[_approve]. NOTE: Does not update the allowance if the current allowance is the maximum `uint256`. Requirements: - `from` and `to` cannot be the zero address. - `from` must have a balance of at least `value`. - the caller must have allowance for ``from``'s tokens of at least `value`."
      },
      "upgradeToAndCall(address,bytes)": {
        "custom:oz-upgrades-unsafe-allow-reachable": "delegatecall",
        "details": "Upgrade the implementation of the proxy to `newImplementation`, and subsequently execute the function call encoded in `data`. Calls {_authorizeUpgrade}. Emits an {Upgraded} event."
      }
    },
    "version": 1
  },
  "userdoc": {
    "kind": "user",
    "methods": {},
    "version": 1
  },
  "storageLayout": {
    "storage": [
      {
        "astId": 8998,
        "contract": "contracts/SkyLabubu.sol:SkyLabubu",
        "label": "maxAmount",
        "offset": 0,
        "slot": "0",
        "type": "t_uint256"
      },
      {
        "astId": 9001,
        "contract": "contracts/SkyLabubu.sol:SkyLabubu",
        "label": "nft",
        "offset": 0,
        "slot": "1",
        "type": "t_contract(ILabubuNFT)10672"
      },
      {
        "astId": 9004,
        "contract": "contracts/SkyLabubu.sol:SkyLabubu",
        "label": "recoupment",
        "offset": 0,
        "slot": "2",
        "type": "t_contract(ILabubuRecoupment)10713"
      },
      {
        "astId": 9007,
        "contract": "contracts/SkyLabubu.sol:SkyLabubu",
        "label": "oracle",
        "offset": 0,
        "slot": "3",
        "type": "t_contract(ILabubuOracle)10693"
      },
      {
        "astId": 9010,
        "contract": "contracts/SkyLabubu.sol:SkyLabubu",
        "label": "registerV2",
        "offset": 0,
        "slot": "4",
        "type": "t_contract(IRegisterV2)11510"
      },
      {
        "astId": 9012,
        "contract": "contracts/SkyLabubu.sol:SkyLabubu",
        "label": "deflationAddress",
        "offset": 0,
        "slot": "5",
        "type": "t_address"
      },
      {
        "astId": 9014,
        "contract": "contracts/SkyLabubu.sol:SkyLabubu",
        "label": "sellFeeAddress",
        "offset": 0,
        "slot": "6",
        "type": "t_address"
      },
      {
        "astId": 9016,
        "contract": "contracts/SkyLabubu.sol:SkyLabubu",
        "label": "depositFeeAddress",
        "offset": 0,
        "slot": "7",
        "type": "t_address"
      },
      {
        "astId": 9018,
        "contract": "contracts/SkyLabubu.sol:SkyLabubu",
        "label": "pancakePair",
        "offset": 0,
        "slot": "8",
        "type": "t_address"
      },
      {
        "astId": 9022,
        "contract": "contracts/SkyLabubu.sol:SkyLabubu",
        "label": "accountSales",
        "offset": 0,
        "slot": "9",
        "type": "t_mapping(t_address,t_uint256)"
      },
      {
        "astId": 9026,
        "contract": "contracts/SkyLabubu.sol:SkyLabubu",
        "label": "addLiquidityUnlockTime",
        "offset": 0,
        "slot": "10",
        "type": "t_mapping(t_address,t_uint256)"
      },
      {
        "astId": 9030,
        "contract": "contracts/SkyLabubu.sol:SkyLabubu",
        "label": "accountLpAmount",
        "offset": 0,
        "slot": "11",
        "type": "t_mapping(t_address,t_uint256)"
      },
      {
        "astId": 9033,
        "contract": "contracts/SkyLabubu.sol:SkyLabubu",
        "label": "removeLpBurnRate",
        "offset": 0,
        "slot": "12",
        "type": "t_array(t_uint16)dyn_storage"
      },
      {
        "astId": 9037,
        "contract": "contracts/SkyLabubu.sol:SkyLabubu",
        "label": "dailyBurnRate",
        "offset": 0,
        "slot": "13",
        "type": "t_array(t_uint16)3_storage"
      },
      {
        "astId": 9041,
        "contract": "contracts/SkyLabubu.sol:SkyLabubu",
        "label": "dailyBurned",
        "offset": 0,
        "slot": "14",
        "type": "t_mapping(t_uint256,t_bool)"
      },
      {
        "astId": 9043,
        "contract": "contracts/SkyLabubu.sol:SkyLabubu",
        "label": "burnAndMintSwitch",
        "offset": 0,
        "slot": "15",
        "type": "t_bool"
      },
      {
        "astId": 9045,
        "contract": "contracts/SkyLabubu.sol:SkyLabubu",
        "label": "removeLpSwitch",
        "offset": 1,
        "slot": "15",
        "type": "t_bool"
      }
    ],
    "types": {
      "t_address": {
        "encoding": "inplace",
        "label": "address",
        "numberOfBytes": "20"
      },
      "t_array(t_uint16)3_storage": {
        "base": "t_uint16",
        "encoding": "inplace",
        "label": "uint16[3]",
        "numberOfBytes": "32"
      },
      "t_array(t_uint16)dyn_storage": {
        "base": "t_uint16",
        "encoding": "dynamic_array",
        "label": "uint16[]",
        "numberOfBytes": "32"
      },
      "t_bool": {
        "encoding": "inplace",
        "label": "bool",
        "numberOfBytes": "1"
      },
      "t_contract(ILabubuNFT)10672": {
        "encoding": "inplace",
        "label": "contract ILabubuNFT",
        "numberOfBytes": "20"
      },
      "t_contract(ILabubuOracle)10693": {
        "encoding": "inplace",
        "label": "contract ILabubuOracle",
        "numberOfBytes": "20"
      },
      "t_contract(ILabubuRecoupment)10713": {
        "encoding": "inplace",
        "label": "contract ILabubuRecoupment",
        "numberOfBytes": "20"
      },
      "t_contract(IRegisterV2)11510": {
        "encoding": "inplace",
        "label": "contract IRegisterV2",
        "numberOfBytes": "20"
      },
      "t_mapping(t_address,t_uint256)": {
        "encoding": "mapping",
        "key": "t_address",
        "label": "mapping(address => uint256)",
        "numberOfBytes": "32",
        "value": "t_uint256"
      },
      "t_mapping(t_uint256,t_bool)": {
        "encoding": "mapping",
        "key": "t_uint256",
        "label": "mapping(uint256 => bool)",
        "numberOfBytes": "32",
        "value": "t_bool"
      },
      "t_uint16": {
        "encoding": "inplace",
        "label": "uint16",
        "numberOfBytes": "2"
      },
      "t_uint256": {
        "encoding": "inplace",
        "label": "uint256",
        "numberOfBytes": "32"
      }
    }
  }
}